{
	"contracts/contracts-main/src/ERC6551Registry.sol": {
		"ERC6551Registry": {
			"abi": [
				{
					"inputs": [],
					"name": "AccountCreationFailed",
					"type": "error"
				},
				{
					"anonymous": false,
					"inputs": [
						{
							"indexed": false,
							"internalType": "address",
							"name": "account",
							"type": "address"
						},
						{
							"indexed": true,
							"internalType": "address",
							"name": "implementation",
							"type": "address"
						},
						{
							"indexed": false,
							"internalType": "bytes32",
							"name": "salt",
							"type": "bytes32"
						},
						{
							"indexed": false,
							"internalType": "uint256",
							"name": "chainId",
							"type": "uint256"
						},
						{
							"indexed": true,
							"internalType": "address",
							"name": "tokenContract",
							"type": "address"
						},
						{
							"indexed": true,
							"internalType": "uint256",
							"name": "tokenId",
							"type": "uint256"
						}
					],
					"name": "ERC6551AccountCreated",
					"type": "event"
				},
				{
					"inputs": [
						{
							"internalType": "address",
							"name": "implementation",
							"type": "address"
						},
						{
							"internalType": "bytes32",
							"name": "salt",
							"type": "bytes32"
						},
						{
							"internalType": "uint256",
							"name": "chainId",
							"type": "uint256"
						},
						{
							"internalType": "address",
							"name": "tokenContract",
							"type": "address"
						},
						{
							"internalType": "uint256",
							"name": "tokenId",
							"type": "uint256"
						}
					],
					"name": "account",
					"outputs": [
						{
							"internalType": "address",
							"name": "",
							"type": "address"
						}
					],
					"stateMutability": "view",
					"type": "function"
				},
				{
					"inputs": [
						{
							"internalType": "address",
							"name": "implementation",
							"type": "address"
						},
						{
							"internalType": "bytes32",
							"name": "salt",
							"type": "bytes32"
						},
						{
							"internalType": "uint256",
							"name": "chainId",
							"type": "uint256"
						},
						{
							"internalType": "address",
							"name": "tokenContract",
							"type": "address"
						},
						{
							"internalType": "uint256",
							"name": "tokenId",
							"type": "uint256"
						}
					],
					"name": "createAccount",
					"outputs": [
						{
							"internalType": "address",
							"name": "",
							"type": "address"
						}
					],
					"stateMutability": "nonpayable",
					"type": "function"
				}
			],
			"devdoc": {
				"errors": {
					"AccountCreationFailed()": [
						{
							"details": "The registry MUST revert with AccountCreationFailed error if the create2 operation fails."
						}
					]
				},
				"events": {
					"ERC6551AccountCreated(address,address,bytes32,uint256,address,uint256)": {
						"details": "The registry MUST emit the ERC6551AccountCreated event upon successful account creation."
					}
				},
				"kind": "dev",
				"methods": {
					"account(address,bytes32,uint256,address,uint256)": {
						"details": "Returns the computed token bound account address for a non-fungible token.",
						"returns": {
							"_0": "The address of the token bound account"
						}
					},
					"createAccount(address,bytes32,uint256,address,uint256)": {
						"details": "Creates a token bound account for a non-fungible token. If account has already been created, returns the account address without calling create2. Emits ERC6551AccountCreated event.",
						"returns": {
							"_0": "The address of the token bound account"
						}
					}
				},
				"version": 1
			},
			"evm": {
				"assembly": "    /* \"contracts/contracts-main/src/ERC6551Registry.sol\":1470:5767  contract ERC6551Registry is IERC6551Registry {... */\n  mstore(0x40, 0x80)\n  callvalue\n  dup1\n  iszero\n  tag_1\n  jumpi\n  0x00\n  dup1\n  revert\ntag_1:\n  pop\n  dataSize(sub_0)\n  dup1\n  dataOffset(sub_0)\n  0x00\n  codecopy\n  0x00\n  return\nstop\n\nsub_0: assembly {\n        /* \"contracts/contracts-main/src/ERC6551Registry.sol\":1470:5767  contract ERC6551Registry is IERC6551Registry {... */\n      mstore(0x40, 0x80)\n      callvalue\n      dup1\n      iszero\n      tag_1\n      jumpi\n      0x00\n      dup1\n      revert\n    tag_1:\n      pop\n      jumpi(tag_2, lt(calldatasize, 0x04))\n      shr(0xe0, calldataload(0x00))\n      dup1\n      0x246a0021\n      eq\n      tag_3\n      jumpi\n      dup1\n      0x8a54c52f\n      eq\n      tag_4\n      jumpi\n    tag_2:\n      0x00\n      dup1\n      revert\n        /* \"contracts/contracts-main/src/ERC6551Registry.sol\":4558:5765  function account(... */\n    tag_3:\n      tag_5\n      0x04\n      dup1\n      calldatasize\n      sub\n      dup2\n      add\n      swap1\n      tag_6\n      swap2\n      swap1\n      tag_7\n      jump\t// in\n    tag_6:\n      tag_8\n      jump\t// in\n    tag_5:\n      mload(0x40)\n      tag_9\n      swap2\n      swap1\n      tag_10\n      jump\t// in\n    tag_9:\n      mload(0x40)\n      dup1\n      swap2\n      sub\n      swap1\n      return\n        /* \"contracts/contracts-main/src/ERC6551Registry.sol\":1521:4552  function createAccount(... */\n    tag_4:\n      tag_11\n      0x04\n      dup1\n      calldatasize\n      sub\n      dup2\n      add\n      swap1\n      tag_12\n      swap2\n      swap1\n      tag_7\n      jump\t// in\n    tag_12:\n      tag_13\n      jump\t// in\n    tag_11:\n      mload(0x40)\n      tag_14\n      swap2\n      swap1\n      tag_10\n      jump\t// in\n    tag_14:\n      mload(0x40)\n      dup1\n      swap2\n      sub\n      swap1\n      return\n        /* \"contracts/contracts-main/src/ERC6551Registry.sol\":4558:5765  function account(... */\n    tag_8:\n        /* \"contracts/contracts-main/src/ERC6551Registry.sol\":4739:4746  address */\n      0x00\n        /* \"contracts/contracts-main/src/ERC6551Registry.sol\":4991:4995  0x80 */\n      0x80\n        /* \"contracts/contracts-main/src/ERC6551Registry.sol\":4985:4989  0x24 */\n      0x24\n        /* \"contracts/contracts-main/src/ERC6551Registry.sol\":4979:4983  0x8c */\n      0x8c\n        /* \"contracts/contracts-main/src/ERC6551Registry.sol\":4966:4996  calldatacopy(0x8c, 0x24, 0x80) */\n      calldatacopy\n        /* \"contracts/contracts-main/src/ERC6551Registry.sol\":5063:5095  0x5af43d82803e903d91602b57fd5bf3 */\n      0x5af43d82803e903d91602b57fd5bf3\n        /* \"contracts/contracts-main/src/ERC6551Registry.sol\":5057:5061  0x6c */\n      0x6c\n        /* \"contracts/contracts-main/src/ERC6551Registry.sol\":5050:5096  mstore(0x6c, 0x5af43d82803e903d91602b57fd5bf3) */\n      mstore\n        /* \"contracts/contracts-main/src/ERC6551Registry.sol\":5141:5155  implementation */\n      dup6\n        /* \"contracts/contracts-main/src/ERC6551Registry.sol\":5135:5139  0x5d */\n      0x5d\n        /* \"contracts/contracts-main/src/ERC6551Registry.sol\":5128:5156  mstore(0x5d, implementation) */\n      mstore\n        /* \"contracts/contracts-main/src/ERC6551Registry.sol\":5200:5242  0x3d60ad80600a3d3981f3363d3d373d3d3d363d73 */\n      0x3d60ad80600a3d3981f3363d3d373d3d3d363d73\n        /* \"contracts/contracts-main/src/ERC6551Registry.sol\":5194:5198  0x49 */\n      0x49\n        /* \"contracts/contracts-main/src/ERC6551Registry.sol\":5187:5243  mstore(0x49, 0x3d60ad80600a3d3981f3363d3d373d3d3d363d73) */\n      mstore\n        /* \"contracts/contracts-main/src/ERC6551Registry.sol\":5359:5363  0xff */\n      0xff\n        /* \"contracts/contracts-main/src/ERC6551Registry.sol\":5353:5357  0x00 */\n      0x00\n        /* \"contracts/contracts-main/src/ERC6551Registry.sol\":5345:5364  mstore8(0x00, 0xff) */\n      mstore8\n        /* \"contracts/contracts-main/src/ERC6551Registry.sol\":5414:5418  0xb7 */\n      0xb7\n        /* \"contracts/contracts-main/src/ERC6551Registry.sol\":5408:5412  0x55 */\n      0x55\n        /* \"contracts/contracts-main/src/ERC6551Registry.sol\":5398:5419  keccak256(0x55, 0xb7) */\n      keccak256\n        /* \"contracts/contracts-main/src/ERC6551Registry.sol\":5392:5396  0x35 */\n      0x35\n        /* \"contracts/contracts-main/src/ERC6551Registry.sol\":5385:5420  mstore(0x35, keccak256(0x55, 0xb7)) */\n      mstore\n        /* \"contracts/contracts-main/src/ERC6551Registry.sol\":5477:5486  address() */\n      address\n        /* \"contracts/contracts-main/src/ERC6551Registry.sol\":5473:5475  96 */\n      0x60\n        /* \"contracts/contracts-main/src/ERC6551Registry.sol\":5469:5487  shl(96, address()) */\n      shl\n        /* \"contracts/contracts-main/src/ERC6551Registry.sol\":5463:5467  0x01 */\n      0x01\n        /* \"contracts/contracts-main/src/ERC6551Registry.sol\":5456:5488  mstore(0x01, shl(96, address())) */\n      mstore\n        /* \"contracts/contracts-main/src/ERC6551Registry.sol\":5534:5538  salt */\n      dup5\n        /* \"contracts/contracts-main/src/ERC6551Registry.sol\":5528:5532  0x15 */\n      0x15\n        /* \"contracts/contracts-main/src/ERC6551Registry.sol\":5521:5539  mstore(0x15, salt) */\n      mstore\n        /* \"contracts/contracts-main/src/ERC6551Registry.sol\":5662:5666  0x55 */\n      0x55\n        /* \"contracts/contracts-main/src/ERC6551Registry.sol\":5656:5660  0x00 */\n      0x00\n        /* \"contracts/contracts-main/src/ERC6551Registry.sol\":5646:5667  keccak256(0x00, 0x55) */\n      keccak256\n        /* \"contracts/contracts-main/src/ERC6551Registry.sol\":5642:5644  96 */\n      0x60\n        /* \"contracts/contracts-main/src/ERC6551Registry.sol\":5638:5668  shl(96, keccak256(0x00, 0x55)) */\n      shl\n        /* \"contracts/contracts-main/src/ERC6551Registry.sol\":5634:5636  96 */\n      0x60\n        /* \"contracts/contracts-main/src/ERC6551Registry.sol\":5630:5669  shr(96, shl(96, keccak256(0x00, 0x55))) */\n      shr\n        /* \"contracts/contracts-main/src/ERC6551Registry.sol\":5624:5628  0x00 */\n      0x00\n        /* \"contracts/contracts-main/src/ERC6551Registry.sol\":5617:5670  mstore(0x00, shr(96, shl(96, keccak256(0x00, 0x55)))) */\n      mstore\n        /* \"contracts/contracts-main/src/ERC6551Registry.sol\":5744:5748  0x20 */\n      0x20\n        /* \"contracts/contracts-main/src/ERC6551Registry.sol\":5738:5742  0x00 */\n      0x00\n        /* \"contracts/contracts-main/src/ERC6551Registry.sol\":5731:5749  return(0x00, 0x20) */\n      return\n        /* \"contracts/contracts-main/src/ERC6551Registry.sol\":1521:4552  function createAccount(... */\n    tag_13:\n        /* \"contracts/contracts-main/src/ERC6551Registry.sol\":1703:1710  address */\n      0x00\n        /* \"contracts/contracts-main/src/ERC6551Registry.sol\":2672:2676  0x80 */\n      0x80\n        /* \"contracts/contracts-main/src/ERC6551Registry.sol\":2666:2670  0x24 */\n      0x24\n        /* \"contracts/contracts-main/src/ERC6551Registry.sol\":2660:2664  0x8c */\n      0x8c\n        /* \"contracts/contracts-main/src/ERC6551Registry.sol\":2647:2677  calldatacopy(0x8c, 0x24, 0x80) */\n      calldatacopy\n        /* \"contracts/contracts-main/src/ERC6551Registry.sol\":2744:2776  0x5af43d82803e903d91602b57fd5bf3 */\n      0x5af43d82803e903d91602b57fd5bf3\n        /* \"contracts/contracts-main/src/ERC6551Registry.sol\":2738:2742  0x6c */\n      0x6c\n        /* \"contracts/contracts-main/src/ERC6551Registry.sol\":2731:2777  mstore(0x6c, 0x5af43d82803e903d91602b57fd5bf3) */\n      mstore\n        /* \"contracts/contracts-main/src/ERC6551Registry.sol\":2822:2836  implementation */\n      dup6\n        /* \"contracts/contracts-main/src/ERC6551Registry.sol\":2816:2820  0x5d */\n      0x5d\n        /* \"contracts/contracts-main/src/ERC6551Registry.sol\":2809:2837  mstore(0x5d, implementation) */\n      mstore\n        /* \"contracts/contracts-main/src/ERC6551Registry.sol\":2881:2923  0x3d60ad80600a3d3981f3363d3d373d3d3d363d73 */\n      0x3d60ad80600a3d3981f3363d3d373d3d3d363d73\n        /* \"contracts/contracts-main/src/ERC6551Registry.sol\":2875:2879  0x49 */\n      0x49\n        /* \"contracts/contracts-main/src/ERC6551Registry.sol\":2868:2924  mstore(0x49, 0x3d60ad80600a3d3981f3363d3d373d3d3d363d73) */\n      mstore\n        /* \"contracts/contracts-main/src/ERC6551Registry.sol\":3040:3044  0xff */\n      0xff\n        /* \"contracts/contracts-main/src/ERC6551Registry.sol\":3034:3038  0x00 */\n      0x00\n        /* \"contracts/contracts-main/src/ERC6551Registry.sol\":3026:3045  mstore8(0x00, 0xff) */\n      mstore8\n        /* \"contracts/contracts-main/src/ERC6551Registry.sol\":3095:3099  0xb7 */\n      0xb7\n        /* \"contracts/contracts-main/src/ERC6551Registry.sol\":3089:3093  0x55 */\n      0x55\n        /* \"contracts/contracts-main/src/ERC6551Registry.sol\":3079:3100  keccak256(0x55, 0xb7) */\n      keccak256\n        /* \"contracts/contracts-main/src/ERC6551Registry.sol\":3073:3077  0x35 */\n      0x35\n        /* \"contracts/contracts-main/src/ERC6551Registry.sol\":3066:3101  mstore(0x35, keccak256(0x55, 0xb7)) */\n      mstore\n        /* \"contracts/contracts-main/src/ERC6551Registry.sol\":3158:3167  address() */\n      address\n        /* \"contracts/contracts-main/src/ERC6551Registry.sol\":3154:3156  96 */\n      0x60\n        /* \"contracts/contracts-main/src/ERC6551Registry.sol\":3150:3168  shl(96, address()) */\n      shl\n        /* \"contracts/contracts-main/src/ERC6551Registry.sol\":3144:3148  0x01 */\n      0x01\n        /* \"contracts/contracts-main/src/ERC6551Registry.sol\":3137:3169  mstore(0x01, shl(96, address())) */\n      mstore\n        /* \"contracts/contracts-main/src/ERC6551Registry.sol\":3215:3219  salt */\n      dup5\n        /* \"contracts/contracts-main/src/ERC6551Registry.sol\":3209:3213  0x15 */\n      0x15\n        /* \"contracts/contracts-main/src/ERC6551Registry.sol\":3202:3220  mstore(0x15, salt) */\n      mstore\n        /* \"contracts/contracts-main/src/ERC6551Registry.sol\":3313:3317  0x55 */\n      0x55\n        /* \"contracts/contracts-main/src/ERC6551Registry.sol\":3307:3311  0x00 */\n      0x00\n        /* \"contracts/contracts-main/src/ERC6551Registry.sol\":3297:3318  keccak256(0x00, 0x55) */\n      keccak256\n        /* \"contracts/contracts-main/src/ERC6551Registry.sol\":3410:3418  computed */\n      dup1\n        /* \"contracts/contracts-main/src/ERC6551Registry.sol\":3398:3419  extcodesize(computed) */\n      extcodesize\n        /* \"contracts/contracts-main/src/ERC6551Registry.sol\":3388:4389  if iszero(extcodesize(computed)) {... */\n      tag_17\n      jumpi\n        /* \"contracts/contracts-main/src/ERC6551Registry.sol\":3521:3525  salt */\n      dup6\n        /* \"contracts/contracts-main/src/ERC6551Registry.sol\":3515:3519  0xb7 */\n      0xb7\n        /* \"contracts/contracts-main/src/ERC6551Registry.sol\":3509:3513  0x55 */\n      0x55\n        /* \"contracts/contracts-main/src/ERC6551Registry.sol\":3506:3507  0 */\n      0x00\n        /* \"contracts/contracts-main/src/ERC6551Registry.sol\":3498:3526  create2(0, 0x55, 0xb7, salt) */\n      create2\n        /* \"contracts/contracts-main/src/ERC6551Registry.sol\":3604:3612  deployed */\n      dup1\n        /* \"contracts/contracts-main/src/ERC6551Registry.sol\":3594:3746  if iszero(deployed) {... */\n      tag_18\n      jumpi\n        /* \"contracts/contracts-main/src/ERC6551Registry.sol\":3649:3659  0x20188a59 */\n      0x20188a59\n        /* \"contracts/contracts-main/src/ERC6551Registry.sol\":3643:3647  0x00 */\n      0x00\n        /* \"contracts/contracts-main/src/ERC6551Registry.sol\":3636:3660  mstore(0x00, 0x20188a59) */\n      mstore\n        /* \"contracts/contracts-main/src/ERC6551Registry.sol\":3723:3727  0x04 */\n      0x04\n        /* \"contracts/contracts-main/src/ERC6551Registry.sol\":3717:3721  0x1c */\n      0x1c\n        /* \"contracts/contracts-main/src/ERC6551Registry.sol\":3710:3728  revert(0x1c, 0x04) */\n      revert\n        /* \"contracts/contracts-main/src/ERC6551Registry.sol\":3594:3746  if iszero(deployed) {... */\n    tag_18:\n        /* \"contracts/contracts-main/src/ERC6551Registry.sol\":3852:3860  deployed */\n      dup1\n        /* \"contracts/contracts-main/src/ERC6551Registry.sol\":3846:3850  0x6c */\n      0x6c\n        /* \"contracts/contracts-main/src/ERC6551Registry.sol\":3839:3861  mstore(0x6c, deployed) */\n      mstore\n        /* \"contracts/contracts-main/src/ERC6551Registry.sol\":4268:4275  tokenId */\n      dup4\n        /* \"contracts/contracts-main/src/ERC6551Registry.sol\":4233:4246  tokenContract */\n      dup6\n        /* \"contracts/contracts-main/src/ERC6551Registry.sol\":4197:4211  implementation */\n      dup10\n        /* \"contracts/contracts-main/src/ERC6551Registry.sol\":4109:4175  0x79f19b3655ee38b1ce526556b7731a20c8f218fbda4a3990b6cc4172fdf88722 */\n      0x79f19b3655ee38b1ce526556b7731a20c8f218fbda4a3990b6cc4172fdf88722\n        /* \"contracts/contracts-main/src/ERC6551Registry.sol\":3987:3991  0x60 */\n      0x60\n        /* \"contracts/contracts-main/src/ERC6551Registry.sol\":3961:3965  0x6c */\n      0x6c\n        /* \"contracts/contracts-main/src/ERC6551Registry.sol\":3935:4293  log4(... */\n      log4\n        /* \"contracts/contracts-main/src/ERC6551Registry.sol\":4370:4374  0x20 */\n      0x20\n        /* \"contracts/contracts-main/src/ERC6551Registry.sol\":4364:4368  0x6c */\n      0x6c\n        /* \"contracts/contracts-main/src/ERC6551Registry.sol\":4357:4375  return(0x6c, 0x20) */\n      return\n        /* \"contracts/contracts-main/src/ERC6551Registry.sol\":3388:4389  if iszero(extcodesize(computed)) {... */\n    tag_17:\n        /* \"contracts/contracts-main/src/ERC6551Registry.sol\":4494:4502  computed */\n      dup1\n        /* \"contracts/contracts-main/src/ERC6551Registry.sol\":4490:4492  96 */\n      0x60\n        /* \"contracts/contracts-main/src/ERC6551Registry.sol\":4486:4503  shl(96, computed) */\n      shl\n        /* \"contracts/contracts-main/src/ERC6551Registry.sol\":4482:4484  96 */\n      0x60\n        /* \"contracts/contracts-main/src/ERC6551Registry.sol\":4478:4504  shr(96, shl(96, computed)) */\n      shr\n        /* \"contracts/contracts-main/src/ERC6551Registry.sol\":4472:4476  0x00 */\n      0x00\n        /* \"contracts/contracts-main/src/ERC6551Registry.sol\":4465:4505  mstore(0x00, shr(96, shl(96, computed))) */\n      mstore\n        /* \"contracts/contracts-main/src/ERC6551Registry.sol\":4531:4535  0x20 */\n      0x20\n        /* \"contracts/contracts-main/src/ERC6551Registry.sol\":4525:4529  0x00 */\n      0x00\n        /* \"contracts/contracts-main/src/ERC6551Registry.sol\":4518:4536  return(0x00, 0x20) */\n      return\n        /* \"#utility.yul\":88:205   */\n    tag_20:\n        /* \"#utility.yul\":197:198   */\n      0x00\n        /* \"#utility.yul\":194:195   */\n      dup1\n        /* \"#utility.yul\":187:199   */\n      revert\n        /* \"#utility.yul\":334:460   */\n    tag_22:\n        /* \"#utility.yul\":371:378   */\n      0x00\n        /* \"#utility.yul\":411:453   */\n      0xffffffffffffffffffffffffffffffffffffffff\n        /* \"#utility.yul\":404:409   */\n      dup3\n        /* \"#utility.yul\":400:454   */\n      and\n        /* \"#utility.yul\":389:454   */\n      swap1\n      pop\n        /* \"#utility.yul\":334:460   */\n      swap2\n      swap1\n      pop\n      jump\t// out\n        /* \"#utility.yul\":466:562   */\n    tag_23:\n        /* \"#utility.yul\":503:510   */\n      0x00\n        /* \"#utility.yul\":532:556   */\n      tag_39\n        /* \"#utility.yul\":550:555   */\n      dup3\n        /* \"#utility.yul\":532:556   */\n      tag_22\n      jump\t// in\n    tag_39:\n        /* \"#utility.yul\":521:556   */\n      swap1\n      pop\n        /* \"#utility.yul\":466:562   */\n      swap2\n      swap1\n      pop\n      jump\t// out\n        /* \"#utility.yul\":568:690   */\n    tag_24:\n        /* \"#utility.yul\":641:665   */\n      tag_41\n        /* \"#utility.yul\":659:664   */\n      dup2\n        /* \"#utility.yul\":641:665   */\n      tag_23\n      jump\t// in\n    tag_41:\n        /* \"#utility.yul\":634:639   */\n      dup2\n        /* \"#utility.yul\":631:666   */\n      eq\n        /* \"#utility.yul\":621:684   */\n      tag_42\n      jumpi\n        /* \"#utility.yul\":680:681   */\n      0x00\n        /* \"#utility.yul\":677:678   */\n      dup1\n        /* \"#utility.yul\":670:682   */\n      revert\n        /* \"#utility.yul\":621:684   */\n    tag_42:\n        /* \"#utility.yul\":568:690   */\n      pop\n      jump\t// out\n        /* \"#utility.yul\":696:835   */\n    tag_25:\n        /* \"#utility.yul\":742:747   */\n      0x00\n        /* \"#utility.yul\":780:786   */\n      dup2\n        /* \"#utility.yul\":767:787   */\n      calldataload\n        /* \"#utility.yul\":758:787   */\n      swap1\n      pop\n        /* \"#utility.yul\":796:829   */\n      tag_44\n        /* \"#utility.yul\":823:828   */\n      dup2\n        /* \"#utility.yul\":796:829   */\n      tag_24\n      jump\t// in\n    tag_44:\n        /* \"#utility.yul\":696:835   */\n      swap3\n      swap2\n      pop\n      pop\n      jump\t// out\n        /* \"#utility.yul\":841:918   */\n    tag_26:\n        /* \"#utility.yul\":878:885   */\n      0x00\n        /* \"#utility.yul\":907:912   */\n      dup2\n        /* \"#utility.yul\":896:912   */\n      swap1\n      pop\n        /* \"#utility.yul\":841:918   */\n      swap2\n      swap1\n      pop\n      jump\t// out\n        /* \"#utility.yul\":924:1046   */\n    tag_27:\n        /* \"#utility.yul\":997:1021   */\n      tag_47\n        /* \"#utility.yul\":1015:1020   */\n      dup2\n        /* \"#utility.yul\":997:1021   */\n      tag_26\n      jump\t// in\n    tag_47:\n        /* \"#utility.yul\":990:995   */\n      dup2\n        /* \"#utility.yul\":987:1022   */\n      eq\n        /* \"#utility.yul\":977:1040   */\n      tag_48\n      jumpi\n        /* \"#utility.yul\":1036:1037   */\n      0x00\n        /* \"#utility.yul\":1033:1034   */\n      dup1\n        /* \"#utility.yul\":1026:1038   */\n      revert\n        /* \"#utility.yul\":977:1040   */\n    tag_48:\n        /* \"#utility.yul\":924:1046   */\n      pop\n      jump\t// out\n        /* \"#utility.yul\":1052:1191   */\n    tag_28:\n        /* \"#utility.yul\":1098:1103   */\n      0x00\n        /* \"#utility.yul\":1136:1142   */\n      dup2\n        /* \"#utility.yul\":1123:1143   */\n      calldataload\n        /* \"#utility.yul\":1114:1143   */\n      swap1\n      pop\n        /* \"#utility.yul\":1152:1185   */\n      tag_50\n        /* \"#utility.yul\":1179:1184   */\n      dup2\n        /* \"#utility.yul\":1152:1185   */\n      tag_27\n      jump\t// in\n    tag_50:\n        /* \"#utility.yul\":1052:1191   */\n      swap3\n      swap2\n      pop\n      pop\n      jump\t// out\n        /* \"#utility.yul\":1197:1274   */\n    tag_29:\n        /* \"#utility.yul\":1234:1241   */\n      0x00\n        /* \"#utility.yul\":1263:1268   */\n      dup2\n        /* \"#utility.yul\":1252:1268   */\n      swap1\n      pop\n        /* \"#utility.yul\":1197:1274   */\n      swap2\n      swap1\n      pop\n      jump\t// out\n        /* \"#utility.yul\":1280:1402   */\n    tag_30:\n        /* \"#utility.yul\":1353:1377   */\n      tag_53\n        /* \"#utility.yul\":1371:1376   */\n      dup2\n        /* \"#utility.yul\":1353:1377   */\n      tag_29\n      jump\t// in\n    tag_53:\n        /* \"#utility.yul\":1346:1351   */\n      dup2\n        /* \"#utility.yul\":1343:1378   */\n      eq\n        /* \"#utility.yul\":1333:1396   */\n      tag_54\n      jumpi\n        /* \"#utility.yul\":1392:1393   */\n      0x00\n        /* \"#utility.yul\":1389:1390   */\n      dup1\n        /* \"#utility.yul\":1382:1394   */\n      revert\n        /* \"#utility.yul\":1333:1396   */\n    tag_54:\n        /* \"#utility.yul\":1280:1402   */\n      pop\n      jump\t// out\n        /* \"#utility.yul\":1408:1547   */\n    tag_31:\n        /* \"#utility.yul\":1454:1459   */\n      0x00\n        /* \"#utility.yul\":1492:1498   */\n      dup2\n        /* \"#utility.yul\":1479:1499   */\n      calldataload\n        /* \"#utility.yul\":1470:1499   */\n      swap1\n      pop\n        /* \"#utility.yul\":1508:1541   */\n      tag_56\n        /* \"#utility.yul\":1535:1540   */\n      dup2\n        /* \"#utility.yul\":1508:1541   */\n      tag_30\n      jump\t// in\n    tag_56:\n        /* \"#utility.yul\":1408:1547   */\n      swap3\n      swap2\n      pop\n      pop\n      jump\t// out\n        /* \"#utility.yul\":1553:2464   */\n    tag_7:\n        /* \"#utility.yul\":1648:1654   */\n      0x00\n        /* \"#utility.yul\":1656:1662   */\n      dup1\n        /* \"#utility.yul\":1664:1670   */\n      0x00\n        /* \"#utility.yul\":1672:1678   */\n      dup1\n        /* \"#utility.yul\":1680:1686   */\n      0x00\n        /* \"#utility.yul\":1729:1732   */\n      0xa0\n        /* \"#utility.yul\":1717:1726   */\n      dup7\n        /* \"#utility.yul\":1708:1715   */\n      dup9\n        /* \"#utility.yul\":1704:1727   */\n      sub\n        /* \"#utility.yul\":1700:1733   */\n      slt\n        /* \"#utility.yul\":1697:1817   */\n      iszero\n      tag_58\n      jumpi\n        /* \"#utility.yul\":1736:1815   */\n      tag_59\n      tag_20\n      jump\t// in\n    tag_59:\n        /* \"#utility.yul\":1697:1817   */\n    tag_58:\n        /* \"#utility.yul\":1856:1857   */\n      0x00\n        /* \"#utility.yul\":1881:1934   */\n      tag_60\n        /* \"#utility.yul\":1926:1933   */\n      dup9\n        /* \"#utility.yul\":1917:1923   */\n      dup3\n        /* \"#utility.yul\":1906:1915   */\n      dup10\n        /* \"#utility.yul\":1902:1924   */\n      add\n        /* \"#utility.yul\":1881:1934   */\n      tag_25\n      jump\t// in\n    tag_60:\n        /* \"#utility.yul\":1871:1934   */\n      swap6\n      pop\n        /* \"#utility.yul\":1827:1944   */\n      pop\n        /* \"#utility.yul\":1983:1985   */\n      0x20\n        /* \"#utility.yul\":2009:2062   */\n      tag_61\n        /* \"#utility.yul\":2054:2061   */\n      dup9\n        /* \"#utility.yul\":2045:2051   */\n      dup3\n        /* \"#utility.yul\":2034:2043   */\n      dup10\n        /* \"#utility.yul\":2030:2052   */\n      add\n        /* \"#utility.yul\":2009:2062   */\n      tag_28\n      jump\t// in\n    tag_61:\n        /* \"#utility.yul\":1999:2062   */\n      swap5\n      pop\n        /* \"#utility.yul\":1954:2072   */\n      pop\n        /* \"#utility.yul\":2111:2113   */\n      0x40\n        /* \"#utility.yul\":2137:2190   */\n      tag_62\n        /* \"#utility.yul\":2182:2189   */\n      dup9\n        /* \"#utility.yul\":2173:2179   */\n      dup3\n        /* \"#utility.yul\":2162:2171   */\n      dup10\n        /* \"#utility.yul\":2158:2180   */\n      add\n        /* \"#utility.yul\":2137:2190   */\n      tag_31\n      jump\t// in\n    tag_62:\n        /* \"#utility.yul\":2127:2190   */\n      swap4\n      pop\n        /* \"#utility.yul\":2082:2200   */\n      pop\n        /* \"#utility.yul\":2239:2241   */\n      0x60\n        /* \"#utility.yul\":2265:2318   */\n      tag_63\n        /* \"#utility.yul\":2310:2317   */\n      dup9\n        /* \"#utility.yul\":2301:2307   */\n      dup3\n        /* \"#utility.yul\":2290:2299   */\n      dup10\n        /* \"#utility.yul\":2286:2308   */\n      add\n        /* \"#utility.yul\":2265:2318   */\n      tag_25\n      jump\t// in\n    tag_63:\n        /* \"#utility.yul\":2255:2318   */\n      swap3\n      pop\n        /* \"#utility.yul\":2210:2328   */\n      pop\n        /* \"#utility.yul\":2367:2370   */\n      0x80\n        /* \"#utility.yul\":2394:2447   */\n      tag_64\n        /* \"#utility.yul\":2439:2446   */\n      dup9\n        /* \"#utility.yul\":2430:2436   */\n      dup3\n        /* \"#utility.yul\":2419:2428   */\n      dup10\n        /* \"#utility.yul\":2415:2437   */\n      add\n        /* \"#utility.yul\":2394:2447   */\n      tag_31\n      jump\t// in\n    tag_64:\n        /* \"#utility.yul\":2384:2447   */\n      swap2\n      pop\n        /* \"#utility.yul\":2338:2457   */\n      pop\n        /* \"#utility.yul\":1553:2464   */\n      swap3\n      swap6\n      pop\n      swap3\n      swap6\n      swap1\n      swap4\n      pop\n      jump\t// out\n        /* \"#utility.yul\":2470:2588   */\n    tag_32:\n        /* \"#utility.yul\":2557:2581   */\n      tag_66\n        /* \"#utility.yul\":2575:2580   */\n      dup2\n        /* \"#utility.yul\":2557:2581   */\n      tag_23\n      jump\t// in\n    tag_66:\n        /* \"#utility.yul\":2552:2555   */\n      dup3\n        /* \"#utility.yul\":2545:2582   */\n      mstore\n        /* \"#utility.yul\":2470:2588   */\n      pop\n      pop\n      jump\t// out\n        /* \"#utility.yul\":2594:2816   */\n    tag_10:\n        /* \"#utility.yul\":2687:2691   */\n      0x00\n        /* \"#utility.yul\":2725:2727   */\n      0x20\n        /* \"#utility.yul\":2714:2723   */\n      dup3\n        /* \"#utility.yul\":2710:2728   */\n      add\n        /* \"#utility.yul\":2702:2728   */\n      swap1\n      pop\n        /* \"#utility.yul\":2738:2809   */\n      tag_68\n        /* \"#utility.yul\":2806:2807   */\n      0x00\n        /* \"#utility.yul\":2795:2804   */\n      dup4\n        /* \"#utility.yul\":2791:2808   */\n      add\n        /* \"#utility.yul\":2782:2788   */\n      dup5\n        /* \"#utility.yul\":2738:2809   */\n      tag_32\n      jump\t// in\n    tag_68:\n        /* \"#utility.yul\":2594:2816   */\n      swap3\n      swap2\n      pop\n      pop\n      jump\t// out\n\n    auxdata: 0xa2646970667358221220ee07692c2d61ad645ef258d21c7dcf8dc7c1ec56098b1c18c157bb3b1ac9c33664736f6c63430008140033\n}\n",
				"bytecode": {
					"linkReferences": {},
					"object": "608060405234801561000f575f80fd5b506103428061001d5f395ff3fe608060405234801561000f575f80fd5b5060043610610034575f3560e01c8063246a0021146100385780638a54c52f14610068575b5f80fd5b610052600480360381019061004d919061026d565b610098565b60405161005f91906102f3565b60405180910390f35b610082600480360381019061007d919061026d565b6100f7565b60405161008f91906102f3565b60405180910390f35b5f60806024608c376e5af43d82803e903d91602b57fd5bf3606c5285605d52733d60ad80600a3d3981f3363d3d373d3d3d363d7360495260ff5f5360b76055206035523060601b6001528460155260555f2060601b60601c5f5260205ff35b5f60806024608c376e5af43d82803e903d91602b57fd5bf3606c5285605d52733d60ad80600a3d3981f3363d3d373d3d3d363d7360495260ff5f5360b76055206035523060601b6001528460155260555f20803b61019b578560b760555ff580610168576320188a595f526004601cfd5b80606c528385897f79f19b3655ee38b1ce526556b7731a20c8f218fbda4a3990b6cc4172fdf887226060606ca46020606cf35b8060601b60601c5f5260205ff35b5f80fd5b5f73ffffffffffffffffffffffffffffffffffffffff82169050919050565b5f6101d6826101ad565b9050919050565b6101e6816101cc565b81146101f0575f80fd5b50565b5f81359050610201816101dd565b92915050565b5f819050919050565b61021981610207565b8114610223575f80fd5b50565b5f8135905061023481610210565b92915050565b5f819050919050565b61024c8161023a565b8114610256575f80fd5b50565b5f8135905061026781610243565b92915050565b5f805f805f60a08688031215610286576102856101a9565b5b5f610293888289016101f3565b95505060206102a488828901610226565b94505060406102b588828901610259565b93505060606102c6888289016101f3565b92505060806102d788828901610259565b9150509295509295909350565b6102ed816101cc565b82525050565b5f6020820190506103065f8301846102e4565b9291505056fea2646970667358221220ee07692c2d61ad645ef258d21c7dcf8dc7c1ec56098b1c18c157bb3b1ac9c33664736f6c63430008140033",
					"opcodes": "PUSH1 0x80 PUSH1 0x40 MSTORE CALLVALUE DUP1 ISZERO PUSH2 0xF JUMPI PUSH0 DUP1 REVERT JUMPDEST POP PUSH2 0x342 DUP1 PUSH2 0x1D PUSH0 CODECOPY PUSH0 RETURN INVALID PUSH1 0x80 PUSH1 0x40 MSTORE CALLVALUE DUP1 ISZERO PUSH2 0xF JUMPI PUSH0 DUP1 REVERT JUMPDEST POP PUSH1 0x4 CALLDATASIZE LT PUSH2 0x34 JUMPI PUSH0 CALLDATALOAD PUSH1 0xE0 SHR DUP1 PUSH4 0x246A0021 EQ PUSH2 0x38 JUMPI DUP1 PUSH4 0x8A54C52F EQ PUSH2 0x68 JUMPI JUMPDEST PUSH0 DUP1 REVERT JUMPDEST PUSH2 0x52 PUSH1 0x4 DUP1 CALLDATASIZE SUB DUP2 ADD SWAP1 PUSH2 0x4D SWAP2 SWAP1 PUSH2 0x26D JUMP JUMPDEST PUSH2 0x98 JUMP JUMPDEST PUSH1 0x40 MLOAD PUSH2 0x5F SWAP2 SWAP1 PUSH2 0x2F3 JUMP JUMPDEST PUSH1 0x40 MLOAD DUP1 SWAP2 SUB SWAP1 RETURN JUMPDEST PUSH2 0x82 PUSH1 0x4 DUP1 CALLDATASIZE SUB DUP2 ADD SWAP1 PUSH2 0x7D SWAP2 SWAP1 PUSH2 0x26D JUMP JUMPDEST PUSH2 0xF7 JUMP JUMPDEST PUSH1 0x40 MLOAD PUSH2 0x8F SWAP2 SWAP1 PUSH2 0x2F3 JUMP JUMPDEST PUSH1 0x40 MLOAD DUP1 SWAP2 SUB SWAP1 RETURN JUMPDEST PUSH0 PUSH1 0x80 PUSH1 0x24 PUSH1 0x8C CALLDATACOPY PUSH15 0x5AF43D82803E903D91602B57FD5BF3 PUSH1 0x6C MSTORE DUP6 PUSH1 0x5D MSTORE PUSH20 0x3D60AD80600A3D3981F3363D3D373D3D3D363D73 PUSH1 0x49 MSTORE PUSH1 0xFF PUSH0 MSTORE8 PUSH1 0xB7 PUSH1 0x55 KECCAK256 PUSH1 0x35 MSTORE ADDRESS PUSH1 0x60 SHL PUSH1 0x1 MSTORE DUP5 PUSH1 0x15 MSTORE PUSH1 0x55 PUSH0 KECCAK256 PUSH1 0x60 SHL PUSH1 0x60 SHR PUSH0 MSTORE PUSH1 0x20 PUSH0 RETURN JUMPDEST PUSH0 PUSH1 0x80 PUSH1 0x24 PUSH1 0x8C CALLDATACOPY PUSH15 0x5AF43D82803E903D91602B57FD5BF3 PUSH1 0x6C MSTORE DUP6 PUSH1 0x5D MSTORE PUSH20 0x3D60AD80600A3D3981F3363D3D373D3D3D363D73 PUSH1 0x49 MSTORE PUSH1 0xFF PUSH0 MSTORE8 PUSH1 0xB7 PUSH1 0x55 KECCAK256 PUSH1 0x35 MSTORE ADDRESS PUSH1 0x60 SHL PUSH1 0x1 MSTORE DUP5 PUSH1 0x15 MSTORE PUSH1 0x55 PUSH0 KECCAK256 DUP1 EXTCODESIZE PUSH2 0x19B JUMPI DUP6 PUSH1 0xB7 PUSH1 0x55 PUSH0 CREATE2 DUP1 PUSH2 0x168 JUMPI PUSH4 0x20188A59 PUSH0 MSTORE PUSH1 0x4 PUSH1 0x1C REVERT JUMPDEST DUP1 PUSH1 0x6C MSTORE DUP4 DUP6 DUP10 PUSH32 0x79F19B3655EE38B1CE526556B7731A20C8F218FBDA4A3990B6CC4172FDF88722 PUSH1 0x60 PUSH1 0x6C LOG4 PUSH1 0x20 PUSH1 0x6C RETURN JUMPDEST DUP1 PUSH1 0x60 SHL PUSH1 0x60 SHR PUSH0 MSTORE PUSH1 0x20 PUSH0 RETURN JUMPDEST PUSH0 DUP1 REVERT JUMPDEST PUSH0 PUSH20 0xFFFFFFFFFFFFFFFFFFFFFFFFFFFFFFFFFFFFFFFF DUP3 AND SWAP1 POP SWAP2 SWAP1 POP JUMP JUMPDEST PUSH0 PUSH2 0x1D6 DUP3 PUSH2 0x1AD JUMP JUMPDEST SWAP1 POP SWAP2 SWAP1 POP JUMP JUMPDEST PUSH2 0x1E6 DUP2 PUSH2 0x1CC JUMP JUMPDEST DUP2 EQ PUSH2 0x1F0 JUMPI PUSH0 DUP1 REVERT JUMPDEST POP JUMP JUMPDEST PUSH0 DUP2 CALLDATALOAD SWAP1 POP PUSH2 0x201 DUP2 PUSH2 0x1DD JUMP JUMPDEST SWAP3 SWAP2 POP POP JUMP JUMPDEST PUSH0 DUP2 SWAP1 POP SWAP2 SWAP1 POP JUMP JUMPDEST PUSH2 0x219 DUP2 PUSH2 0x207 JUMP JUMPDEST DUP2 EQ PUSH2 0x223 JUMPI PUSH0 DUP1 REVERT JUMPDEST POP JUMP JUMPDEST PUSH0 DUP2 CALLDATALOAD SWAP1 POP PUSH2 0x234 DUP2 PUSH2 0x210 JUMP JUMPDEST SWAP3 SWAP2 POP POP JUMP JUMPDEST PUSH0 DUP2 SWAP1 POP SWAP2 SWAP1 POP JUMP JUMPDEST PUSH2 0x24C DUP2 PUSH2 0x23A JUMP JUMPDEST DUP2 EQ PUSH2 0x256 JUMPI PUSH0 DUP1 REVERT JUMPDEST POP JUMP JUMPDEST PUSH0 DUP2 CALLDATALOAD SWAP1 POP PUSH2 0x267 DUP2 PUSH2 0x243 JUMP JUMPDEST SWAP3 SWAP2 POP POP JUMP JUMPDEST PUSH0 DUP1 PUSH0 DUP1 PUSH0 PUSH1 0xA0 DUP7 DUP9 SUB SLT ISZERO PUSH2 0x286 JUMPI PUSH2 0x285 PUSH2 0x1A9 JUMP JUMPDEST JUMPDEST PUSH0 PUSH2 0x293 DUP9 DUP3 DUP10 ADD PUSH2 0x1F3 JUMP JUMPDEST SWAP6 POP POP PUSH1 0x20 PUSH2 0x2A4 DUP9 DUP3 DUP10 ADD PUSH2 0x226 JUMP JUMPDEST SWAP5 POP POP PUSH1 0x40 PUSH2 0x2B5 DUP9 DUP3 DUP10 ADD PUSH2 0x259 JUMP JUMPDEST SWAP4 POP POP PUSH1 0x60 PUSH2 0x2C6 DUP9 DUP3 DUP10 ADD PUSH2 0x1F3 JUMP JUMPDEST SWAP3 POP POP PUSH1 0x80 PUSH2 0x2D7 DUP9 DUP3 DUP10 ADD PUSH2 0x259 JUMP JUMPDEST SWAP2 POP POP SWAP3 SWAP6 POP SWAP3 SWAP6 SWAP1 SWAP4 POP JUMP JUMPDEST PUSH2 0x2ED DUP2 PUSH2 0x1CC JUMP JUMPDEST DUP3 MSTORE POP POP JUMP JUMPDEST PUSH0 PUSH1 0x20 DUP3 ADD SWAP1 POP PUSH2 0x306 PUSH0 DUP4 ADD DUP5 PUSH2 0x2E4 JUMP JUMPDEST SWAP3 SWAP2 POP POP JUMP INVALID LOG2 PUSH5 0x6970667358 0x22 SLT KECCAK256 0xEE SMOD PUSH10 0x2C2D61AD645EF258D21C PUSH30 0xCF8DC7C1EC56098B1C18C157BB3B1AC9C33664736F6C6343000814003300 "
				},
				"gasEstimates": {
					"creation": {
						"codeDepositCost": "166800",
						"executionCost": "212",
						"totalCost": "167012"
					},
					"external": {
						"account(address,bytes32,uint256,address,uint256)": "infinite",
						"createAccount(address,bytes32,uint256,address,uint256)": "infinite"
					}
				},
				"methodIdentifiers": {
					"account(address,bytes32,uint256,address,uint256)": "246a0021",
					"createAccount(address,bytes32,uint256,address,uint256)": "8a54c52f"
				}
			},
			"storageLayout": {
				"storage": [],
				"types": null
			},
			"userdoc": {
				"kind": "user",
				"methods": {},
				"version": 1
			}
		}
	}
}