{
	"data": {
		"bytecode": {
			"linkReferences": {},
			"object": "6101e261004e600b8282823980515f1a607314610042577f4e487b71000000000000000000000000000000000000000000000000000000005f525f60045260245ffd5b305f52607381538281f3fe730000000000000000000000000000000000000000301460806040526004361061003f575f3560e01c80630d7163c6146100435780633ce3018514610061575b5f80fd5b61004b61007f565b604051610058919061015e565b60405180910390f35b6100696100b8565b604051610076919061015e565b60405180910390f35b6040518060400160405280600e81526020017f604380600d600039806000f3fe7300000000000000000000000000000000000081525081565b6040518060600160405280602e815260200161017f602e913981565b5f81519050919050565b5f82825260208201905092915050565b5f5b8381101561010b5780820151818401526020810190506100f0565b5f8484015250505050565b5f601f19601f8301169050919050565b5f610130826100d4565b61013a81856100de565b935061014a8185602086016100ee565b61015381610116565b840191505092915050565b5f6020820190508181035f8301526101768184610126565b90509291505056fe3314601d573d3dfd5b363d3d373d3d6014360360143d5160601c5af43d6000803e80603e573d6000fd5b3d6000f3a2646970667358221220fada23b62b822552158aef787265e9b6a97a7793768b103f76f56b3e0d46f2dd64736f6c63430008140033",
			"opcodes": "PUSH2 0x1E2 PUSH2 0x4E PUSH1 0xB DUP3 DUP3 DUP3 CODECOPY DUP1 MLOAD PUSH0 BYTE PUSH1 0x73 EQ PUSH2 0x42 JUMPI PUSH32 0x4E487B7100000000000000000000000000000000000000000000000000000000 PUSH0 MSTORE PUSH0 PUSH1 0x4 MSTORE PUSH1 0x24 PUSH0 REVERT JUMPDEST ADDRESS PUSH0 MSTORE PUSH1 0x73 DUP2 MSTORE8 DUP3 DUP2 RETURN INVALID PUSH20 0x0 ADDRESS EQ PUSH1 0x80 PUSH1 0x40 MSTORE PUSH1 0x4 CALLDATASIZE LT PUSH2 0x3F JUMPI PUSH0 CALLDATALOAD PUSH1 0xE0 SHR DUP1 PUSH4 0xD7163C6 EQ PUSH2 0x43 JUMPI DUP1 PUSH4 0x3CE30185 EQ PUSH2 0x61 JUMPI JUMPDEST PUSH0 DUP1 REVERT JUMPDEST PUSH2 0x4B PUSH2 0x7F JUMP JUMPDEST PUSH1 0x40 MLOAD PUSH2 0x58 SWAP2 SWAP1 PUSH2 0x15E JUMP JUMPDEST PUSH1 0x40 MLOAD DUP1 SWAP2 SUB SWAP1 RETURN JUMPDEST PUSH2 0x69 PUSH2 0xB8 JUMP JUMPDEST PUSH1 0x40 MLOAD PUSH2 0x76 SWAP2 SWAP1 PUSH2 0x15E JUMP JUMPDEST PUSH1 0x40 MLOAD DUP1 SWAP2 SUB SWAP1 RETURN JUMPDEST PUSH1 0x40 MLOAD DUP1 PUSH1 0x40 ADD PUSH1 0x40 MSTORE DUP1 PUSH1 0xE DUP2 MSTORE PUSH1 0x20 ADD PUSH32 0x604380600D600039806000F3FE73000000000000000000000000000000000000 DUP2 MSTORE POP DUP2 JUMP JUMPDEST PUSH1 0x40 MLOAD DUP1 PUSH1 0x60 ADD PUSH1 0x40 MSTORE DUP1 PUSH1 0x2E DUP2 MSTORE PUSH1 0x20 ADD PUSH2 0x17F PUSH1 0x2E SWAP2 CODECOPY DUP2 JUMP JUMPDEST PUSH0 DUP2 MLOAD SWAP1 POP SWAP2 SWAP1 POP JUMP JUMPDEST PUSH0 DUP3 DUP3 MSTORE PUSH1 0x20 DUP3 ADD SWAP1 POP SWAP3 SWAP2 POP POP JUMP JUMPDEST PUSH0 JUMPDEST DUP4 DUP2 LT ISZERO PUSH2 0x10B JUMPI DUP1 DUP3 ADD MLOAD DUP2 DUP5 ADD MSTORE PUSH1 0x20 DUP2 ADD SWAP1 POP PUSH2 0xF0 JUMP JUMPDEST PUSH0 DUP5 DUP5 ADD MSTORE POP POP POP POP JUMP JUMPDEST PUSH0 PUSH1 0x1F NOT PUSH1 0x1F DUP4 ADD AND SWAP1 POP SWAP2 SWAP1 POP JUMP JUMPDEST PUSH0 PUSH2 0x130 DUP3 PUSH2 0xD4 JUMP JUMPDEST PUSH2 0x13A DUP2 DUP6 PUSH2 0xDE JUMP JUMPDEST SWAP4 POP PUSH2 0x14A DUP2 DUP6 PUSH1 0x20 DUP7 ADD PUSH2 0xEE JUMP JUMPDEST PUSH2 0x153 DUP2 PUSH2 0x116 JUMP JUMPDEST DUP5 ADD SWAP2 POP POP SWAP3 SWAP2 POP POP JUMP JUMPDEST PUSH0 PUSH1 0x20 DUP3 ADD SWAP1 POP DUP2 DUP2 SUB PUSH0 DUP4 ADD MSTORE PUSH2 0x176 DUP2 DUP5 PUSH2 0x126 JUMP JUMPDEST SWAP1 POP SWAP3 SWAP2 POP POP JUMP INVALID CALLER EQ PUSH1 0x1D JUMPI RETURNDATASIZE RETURNDATASIZE REVERT JUMPDEST CALLDATASIZE RETURNDATASIZE RETURNDATASIZE CALLDATACOPY RETURNDATASIZE RETURNDATASIZE PUSH1 0x14 CALLDATASIZE SUB PUSH1 0x14 RETURNDATASIZE MLOAD PUSH1 0x60 SHR GAS DELEGATECALL RETURNDATASIZE PUSH1 0x0 DUP1 RETURNDATACOPY DUP1 PUSH1 0x3E JUMPI RETURNDATASIZE PUSH1 0x0 REVERT JUMPDEST RETURNDATASIZE PUSH1 0x0 RETURN LOG2 PUSH5 0x6970667358 0x22 SLT KECCAK256 STATICCALL 0xDA 0x23 0xB6 0x2B DUP3 0x25 MSTORE ISZERO DUP11 0xEF PUSH25 0x7265E9B6A97A7793768B103F76F56B3E0D46F2DD64736F6C63 NUMBER STOP ADDMOD EQ STOP CALLER "
		},
		"gasEstimates": {
			"creation": {
				"codeDepositCost": "96400",
				"executionCost": "170",
				"totalCost": "96570"
			},
			"external": {
				"footer()": "infinite",
				"header()": "infinite"
			},
			"internal": {
				"bytecode(address)": "infinite",
				"deploy(address)": "infinite",
				"sandbox(address)": "infinite"
			}
		},
		"methodIdentifiers": {
			"footer()": "3ce30185",
			"header()": "0d7163c6"
		}
	},
	"abi": [
		{
			"inputs": [],
			"name": "footer",
			"outputs": [
				{
					"internalType": "bytes",
					"name": "",
					"type": "bytes"
				}
			],
			"stateMutability": "view",
			"type": "function"
		},
		{
			"inputs": [],
			"name": "header",
			"outputs": [
				{
					"internalType": "bytes",
					"name": "",
					"type": "bytes"
				}
			],
			"stateMutability": "view",
			"type": "function"
		}
	]
}