{
	"data": {
		"bytecode": {
			"linkReferences": {},
			"object": "6101206040523073ffffffffffffffffffffffffffffffffffffffff1660a09073ffffffffffffffffffffffffffffffffffffffff1681525034801562000044575f80fd5b5060405162005be838038062005be883398181016040528101906200006a9190620002e6565b82828181875f73ffffffffffffffffffffffffffffffffffffffff168173ffffffffffffffffffffffffffffffffffffffff1603620000d5576040517f2039d3c900000000000000000000000000000000000000000000000000000000815260040160405180910390fd5b8073ffffffffffffffffffffffffffffffffffffffff1660808173ffffffffffffffffffffffffffffffffffffffff1681525050505f73ffffffffffffffffffffffffffffffffffffffff168173ffffffffffffffffffffffffffffffffffffffff160362000170576040517f46a2950000000000000000000000000000000000000000000000000000000000815260040160405180910390fd5b8073ffffffffffffffffffffffffffffffffffffffff1660c08173ffffffffffffffffffffffffffffffffffffffff1681525050508073ffffffffffffffffffffffffffffffffffffffff1660e08173ffffffffffffffffffffffffffffffffffffffff1681525050505f73ffffffffffffffffffffffffffffffffffffffff168273ffffffffffffffffffffffffffffffffffffffff160362000240576040517fea98ea6600000000000000000000000000000000000000000000000000000000815260040160405180910390fd5b50508073ffffffffffffffffffffffffffffffffffffffff166101008173ffffffffffffffffffffffffffffffffffffffff16815250505050505062000355565b5f80fd5b5f73ffffffffffffffffffffffffffffffffffffffff82169050919050565b5f620002b08262000285565b9050919050565b620002c281620002a4565b8114620002cd575f80fd5b50565b5f81519050620002e081620002b7565b92915050565b5f805f806080858703121562000301576200030062000281565b5b5f6200031087828801620002d0565b94505060206200032387828801620002d0565b93505060406200033687828801620002d0565b92505060606200034987828801620002d0565b91505092959194509250565b60805160a05160c05160e05161010051615840620003a85f395f6124d501525f611b9b01525f8181610cbe01528181610e4b0152612f3601525f8181610e6c0152612f1501525f611bf101526158405ff3fe6080604052600436106101d0575f3560e01c806357d39e70116100f6578063bc197c8111610094578063dd46706411610063578063dd46706414610725578063ee9c60541461074d578063f23a6e6114610789578063fc0c546a146107c5576101df565b8063bc197c811461066b578063c19d93fb146106a7578063ce0617ec146106d1578063d087d288146106fb576101df565b80638da5cb5b116100d05780638da5cb5b146105b1578063a4e2d634146105db578063b0d691fe14610605578063b709467c1461062f576101df565b806357d39e70146105235780637a8f73561461055f5780637da0a87714610587576101df565b80631fb1ecf01161016e57806345a24e3e1161013d57806345a24e3e1461043f578063519454471461047b578063523e3260146104ab578063572b6c05146104e7576101df565b80631fb1ecf01461036757806334715fb1146103975780633a871cdd146103d357806343629a731461040f576101df565b8063150b7a02116101aa578063150b7a02146102775780631626ba7e146102b35780631e2eaeaf146102ef5780631f9838b51461032b576101df565b806301ffc9a7146101e9578063039721b114610225578063056d5afe1461024d576101df565b366101df576101dd6107f1565b005b6101e76107f1565b005b3480156101f4575f80fd5b5061020f600480360381019061020a9190613b35565b6109ca565b60405161021c9190613b7a565b60405180910390f35b348015610230575f80fd5b5061024b60048036038101906102469190613c49565b6109f9565b005b348015610258575f80fd5b50610261610cbc565b60405161026e9190613d06565b60405180910390f35b348015610282575f80fd5b5061029d60048036038101906102989190613eb4565b610ce0565b6040516102aa9190613f43565b60405180910390f35b3480156102be575f80fd5b506102d960048036038101906102d49190613fe4565b610d8b565b6040516102e69190613f43565b60405180910390f35b3480156102fa575f80fd5b5061031560048036038101906103109190614041565b610db9565b604051610322919061407b565b60405180910390f35b348015610336575f80fd5b50610351600480360381019061034c9190614094565b610dc3565b60405161035e9190613b7a565b60405180910390f35b610381600480360381019061037c919061415d565b610ded565b60405161038e919061428e565b60405180910390f35b3480156103a2575f80fd5b506103bd60048036038101906103b891906142ae565b61113a565b6040516103ca9190613d06565b60405180910390f35b3480156103de575f80fd5b506103f960048036038101906103f49190614342565b611159565b60405161040691906143bd565b60405180910390f35b6104296004803603810190610424919061442b565b61118b565b6040516104369190614579565b60405180910390f35b34801561044a575f80fd5b5061046560048036038101906104609190614599565b61134c565b6040516104729190613d06565b60405180910390f35b610495600480360381019061049091906145f6565b6113ab565b6040516104a2919061428e565b60405180910390f35b3480156104b6575f80fd5b506104d160048036038101906104cc919061467a565b611413565b6040516104de9190613f43565b60405180910390f35b3480156104f2575f80fd5b5061050d600480360381019061050891906146d7565b611483565b60405161051a9190613b7a565b60405180910390f35b34801561052e575f80fd5b5061054960048036038101906105449190614702565b6114c1565b60405161055691906143bd565b60405180910390f35b34801561056a575f80fd5b50610585600480360381019061058091906147ce565b611867565b005b348015610592575f80fd5b5061059b611b98565b6040516105a89190613d06565b60405180910390f35b3480156105bc575f80fd5b506105c5611bbf565b6040516105d29190613d06565b60405180910390f35b3480156105e6575f80fd5b506105ef611be4565b6040516105fc9190613b7a565b60405180910390f35b348015610610575f80fd5b50610619611bee565b60405161062691906148a7565b60405180910390f35b34801561063a575f80fd5b50610655600480360381019061065091906148c0565b611c15565b604051610662919061428e565b60405180910390f35b348015610676575f80fd5b50610691600480360381019061068c91906149f1565b611c77565b60405161069e9190613f43565b60405180910390f35b3480156106b2575f80fd5b506106bb611c93565b6040516106c891906143bd565b60405180910390f35b3480156106dc575f80fd5b506106e5611c9c565b6040516106f291906143bd565b60405180910390f35b348015610706575f80fd5b5061070f611ca1565b60405161071c91906143bd565b60405180910390f35b348015610730575f80fd5b5061074b60048036038101906107469190614abc565b611d28565b005b348015610758575f80fd5b50610773600480360381019061076e9190614ae7565b611ea6565b6040516107809190613d06565b60405180910390f35b348015610794575f80fd5b506107af60048036038101906107aa9190614b25565b611ee3565b6040516107bc9190613f43565b60405180910390f35b3480156107d0575f80fd5b506107d9611eff565b6040516107e893929190614bb8565b60405180910390f35b5f805f6107fc611f15565b9250925092505f61080e848484611f2c565b90505f60015f8373ffffffffffffffffffffffffffffffffffffffff1673ffffffffffffffffffffffffffffffffffffffff1681526020019081526020015f205f80357fffffffff00000000000000000000000000000000000000000000000000000000167bffffffffffffffffffffffffffffffffffffffffffffffffffffffff19167bffffffffffffffffffffffffffffffffffffffffffffffffffffffff191681526020019081526020015f205f9054906101000a900473ffffffffffffffffffffffffffffffffffffffff1690505f73ffffffffffffffffffffffffffffffffffffffff168173ffffffffffffffffffffffffffffffffffffffff16146109c3575f61091d30611f51565b90505f808273ffffffffffffffffffffffffffffffffffffffff16845f363360405160200161094f9493929190614c60565b60405160208183030381529060405260405161096b9190614cca565b5f604051808303815f865af19150503d805f81146109a4576040519150601f19603f3d011682016040523d82523d5f602084013e6109a9565b606091505b5091509150816109bb57805160208201fd5b805160208201f35b5050505050565b5f806109d583611f92565b905080156109e75760019150506109f4565b6109ef61200b565b5f9150505b919050565b5f805f610a04611f15565b9250925092505f610a16848484611f2c565b90505f73ffffffffffffffffffffffffffffffffffffffff168173ffffffffffffffffffffffffffffffffffffffff1603610a7d576040517fea8e4eb500000000000000000000000000000000000000000000000000000000815260040160405180910390fd5b8073ffffffffffffffffffffffffffffffffffffffff163373ffffffffffffffffffffffffffffffffffffffff1614610ae2576040517fea8e4eb500000000000000000000000000000000000000000000000000000000815260040160405180910390fd5b610aea6121b4565b5f888890509050808787905014610b2d576040517fb4fa3fb300000000000000000000000000000000000000000000000000000000815260040160405180910390fd5b5f5b81811015610cb057878782818110610b4a57610b49614ce0565b5b9050602002016020810190610b5f9190614d37565b60025f8573ffffffffffffffffffffffffffffffffffffffff1673ffffffffffffffffffffffffffffffffffffffff1681526020019081526020015f205f8c8c85818110610bb057610baf614ce0565b5b9050602002016020810190610bc591906146d7565b73ffffffffffffffffffffffffffffffffffffffff1673ffffffffffffffffffffffffffffffffffffffff1681526020019081526020015f205f6101000a81548160ff0219169083151502179055507f394777a58092892d136a90c4bb7e4350c72ac50fba6a0208128677f36527dcf5838b8b84818110610c4957610c48614ce0565b5b9050602002016020810190610c5e91906146d7565b8a8a85818110610c7157610c70614ce0565b5b9050602002016020810190610c869190614d37565b604051610c9593929190614d62565b60405180910390a18080610ca890614dc4565b915050610b2f565b50505050505050505050565b7f000000000000000000000000000000000000000000000000000000000000000081565b5f805f80610cec611f15565b9250925092508173ffffffffffffffffffffffffffffffffffffffff163373ffffffffffffffffffffffffffffffffffffffff16148015610d2c57508086145b8015610d3757504683145b15610d6e576040517fb79e3f3f00000000000000000000000000000000000000000000000000000000815260040160405180910390fd5b610d766107f1565b63150b7a0260e01b9350505050949350505050565b5f610d978484846121fd565b15610dab57631626ba7e60e01b9050610db2565b5f60e01b90505b9392505050565b5f81549050919050565b6002602052815f5260405f20602052805f5260405f205f915091509054906101000a900460ff1681565b60605f8383905090505f610dff6123eb565b9050365f5b838110156110d557868682818110610e1f57610e1e614ce0565b5b90506060020191505f826020016020810190610e3b91906146d7565b90505f836040013590505f610e977f00000000000000000000000000000000000000000000000000000000000000007f0000000000000000000000000000000000000000000000000000000000000000875f01354687876123f9565b90505f8373ffffffffffffffffffffffffffffffffffffffff163b03610ee9576040517f414b749400000000000000000000000000000000000000000000000000000000815260040160405180910390fd5b5f8173ffffffffffffffffffffffffffffffffffffffff163b1115610fad578073ffffffffffffffffffffffffffffffffffffffff1663a4e2d6346040518163ffffffff1660e01b8152600401602060405180830381865afa158015610f51573d5f803e3d5ffd5b505050506040513d601f19601f82011682018060405250810190610f759190614e1f565b15610fac576040517f6315bfbb00000000000000000000000000000000000000000000000000000000815260040160405180910390fd5b5b8273ffffffffffffffffffffffffffffffffffffffff16636352211e836040518263ffffffff1660e01b8152600401610fe691906143bd565b602060405180830381865afa92505050801561102057506040513d601f19601f8201168201806040525081019061101d9190614e5e565b60015b611056576040517f414b749400000000000000000000000000000000000000000000000000000000815260040160405180910390fd5b8673ffffffffffffffffffffffffffffffffffffffff168173ffffffffffffffffffffffffffffffffffffffff16146110bb576040517f414b749400000000000000000000000000000000000000000000000000000000815260040160405180910390fd5b8196505050505080806110cd90614dc4565b915050610e04565b506110df82612429565b611115576040517fea8e4eb500000000000000000000000000000000000000000000000000000000815260040160405180910390fd5b61111d612646565b61112a8b8b8b8b8b61268f565b9350505050979650505050505050565b5f6111436128a4565b61114f85858585612913565b9050949350505050565b5f6111626129d4565b61116c8484612a4b565b905061117b8460200135612a87565b61118482612a8a565b9392505050565b606061119d6111986123eb565b612429565b6111d3576040517fea8e4eb500000000000000000000000000000000000000000000000000000000815260040160405180910390fd5b6111db612646565b5f8383905090505f8167ffffffffffffffff8111156111fd576111fc613d90565b5b60405190808252806020026020018201604052801561123057816020015b606081526020019060019003908161121b5790505b5090505f5b828110156113405761130f86868381811061125357611252614ce0565b5b90506020028101906112659190614e95565b5f01602081019061127691906146d7565b87878481811061128957611288614ce0565b5b905060200281019061129b9190614e95565b602001358888858181106112b2576112b1614ce0565b5b90506020028101906112c49190614e95565b80604001906112d39190614ebc565b8a8a878181106112e6576112e5614ce0565b5b90506020028101906112f89190614e95565b606001602081019061130a9190614f1e565b61268f565b82828151811061132257611321614ce0565b5b6020026020010181905250808061133890614dc4565b915050611235565b50809250505092915050565b5f6113556128a4565b6113a28484848080601f0160208091040260200160405190810160405280939291908181526020018383808284375f81840152601f19601f82011690508083019250505050505050612b21565b90509392505050565b60606113bd6113b86123eb565b612429565b6113f3576040517fea8e4eb500000000000000000000000000000000000000000000000000000000815260040160405180910390fd5b6113fb612646565b611408868686868661268f565b905095945050505050565b5f6114618484848080601f0160208091040260200160405190810160405280939291908181526020018383808284375f81840152601f19601f82011690508083019250505050505050612b9c565b156114755763523e326060e01b905061147c565b5f60e01b90505b9392505050565b5f61148c611b98565b73ffffffffffffffffffffffffffffffffffffffff168273ffffffffffffffffffffffffffffffffffffffff16149050919050565b5f734d2996e95cc316b174c0a14b590387a86521e98173ffffffffffffffffffffffffffffffffffffffff163373ffffffffffffffffffffffffffffffffffffffff1614611544576040517f08c379a000000000000000000000000000000000000000000000000000000000815260040161153b90614fa3565b60405180910390fd5b5f8690505f73e592427a0aece92de3edee1f18e0157c058615649050858273ffffffffffffffffffffffffffffffffffffffff166370a08231306040518263ffffffff1660e01b815260040161159a9190613d06565b602060405180830381865afa1580156115b5573d5f803e3d5ffd5b505050506040513d601f19601f820116820180604052508101906115d99190614fd5565b101561161a576040517f08c379a00000000000000000000000000000000000000000000000000000000081526004016116119061504a565b60405180910390fd5b5f84866116279190615068565b90505f6116348883612c64565b90508373ffffffffffffffffffffffffffffffffffffffff1663095ea7b3848a6040518363ffffffff1660e01b815260040161167192919061509b565b6020604051808303815f875af115801561168d573d5f803e3d5ffd5b505050506040513d601f19601f820116820180604052508101906116b19190614e1f565b508373ffffffffffffffffffffffffffffffffffffffff1663a9059cbb73449f07dc7616c43b47dbe8cf57dc1f6e34ef82f8846040518363ffffffff1660e01b815260040161170192919061509b565b6020604051808303815f875af115801561171d573d5f803e3d5ffd5b505050506040513d601f19601f820116820180604052508101906117419190614e1f565b505f6040518061010001604052808c73ffffffffffffffffffffffffffffffffffffffff1681526020018b73ffffffffffffffffffffffffffffffffffffffff168152602001610bb862ffffff1681526020013073ffffffffffffffffffffffffffffffffffffffff1681526020014281526020018381526020015f81526020015f73ffffffffffffffffffffffffffffffffffffffff1681525090508373ffffffffffffffffffffffffffffffffffffffff1663414bf389826040518263ffffffff1660e01b815260040161181791906151ac565b6020604051808303815f875af1158015611833573d5f803e3d5ffd5b505050506040513d601f19601f820116820180604052508101906118579190614fd5565b9550505050505095945050505050565b5f805f611872611f15565b9250925092505f611884848484611f2c565b90505f73ffffffffffffffffffffffffffffffffffffffff168173ffffffffffffffffffffffffffffffffffffffff16036118eb576040517fea8e4eb500000000000000000000000000000000000000000000000000000000815260040160405180910390fd5b8073ffffffffffffffffffffffffffffffffffffffff163373ffffffffffffffffffffffffffffffffffffffff1614611950576040517fea8e4eb500000000000000000000000000000000000000000000000000000000815260040160405180910390fd5b611958612c79565b5f61196230611f51565b90505f8173ffffffffffffffffffffffffffffffffffffffff163b0361198c5761198b30612cc2565b5b5f8989905090508088889050146119cf576040517fb4fa3fb300000000000000000000000000000000000000000000000000000000815260040160405180910390fd5b5f5b81811015611b8b578888828181106119ec576119eb614ce0565b5b9050602002016020810190611a0191906146d7565b60015f8673ffffffffffffffffffffffffffffffffffffffff1673ffffffffffffffffffffffffffffffffffffffff1681526020019081526020015f205f8d8d85818110611a5257611a51614ce0565b5b9050602002016020810190611a679190613b35565b7bffffffffffffffffffffffffffffffffffffffffffffffffffffffff19167bffffffffffffffffffffffffffffffffffffffffffffffffffffffff191681526020019081526020015f205f6101000a81548173ffffffffffffffffffffffffffffffffffffffff021916908373ffffffffffffffffffffffffffffffffffffffff1602179055507f2c722487e90aca38ec1b074c3403210bd2bfb769b4da7f12f7bf0b9e37517c18848c8c84818110611b2457611b23614ce0565b5b9050602002016020810190611b399190613b35565b8b8b85818110611b4c57611b4b614ce0565b5b9050602002016020810190611b6191906146d7565b604051611b70939291906151c6565b60405180910390a18080611b8390614dc4565b9150506119d1565b5050505050505050505050565b5f7f0000000000000000000000000000000000000000000000000000000000000000905090565b5f805f80611bcb611f15565b925092509250611bdc838383612cf9565b935050505090565b5f425f5411905090565b5f7f0000000000000000000000000000000000000000000000000000000000000000905090565b6060611c1f6128a4565b611c6d858585858080601f0160208091040260200160405190810160405280939291908181526020018383808284375f81840152601f19601f82011690508083019250505050505050612dba565b9050949350505050565b5f611c806107f1565b63bc197c8160e01b905095945050505050565b5f600354905090565b5f5481565b5f611caa611bee565b73ffffffffffffffffffffffffffffffffffffffff166335567e1a305f6040518363ffffffff1660e01b8152600401611ce4929190615257565b602060405180830381865afa158015611cff573d5f803e3d5ffd5b505050506040513d601f19601f82011682018060405250810190611d239190614fd5565b905090565b5f805f611d33611f15565b9250925092505f611d45848484611f2c565b90505f73ffffffffffffffffffffffffffffffffffffffff168173ffffffffffffffffffffffffffffffffffffffff1603611dac576040517fea8e4eb500000000000000000000000000000000000000000000000000000000815260040160405180910390fd5b8073ffffffffffffffffffffffffffffffffffffffff163373ffffffffffffffffffffffffffffffffffffffff1614611e11576040517fea8e4eb500000000000000000000000000000000000000000000000000000000815260040160405180910390fd5b6301e1338042611e219190615068565b851115611e5a576040517f0c0a7be800000000000000000000000000000000000000000000000000000000815260040160405180910390fd5b611e62612e40565b845f819055507fa7b24c66dd3269a292a60b3facdbb8f3e7557d1e19e64d99e0d6ee7250be63ad85604051611e9791906143bd565b60405180910390a15050505050565b6001602052815f5260405f20602052805f5260405f205f915091509054906101000a900473ffffffffffffffffffffffffffffffffffffffff1681565b5f611eec6107f1565b63f23a6e6160e01b905095945050505050565b5f805f611f0a611f15565b925092509250909192565b5f805f611f2130612e89565b925092509250909192565b5f80611f39858585612cf9565b9050611f4781868686612f09565b9150509392505050565b5f611f8b7f97f795a08410e77dc9dbbaba3915f17c601e45642518dd578bd440d8775bfee4611f7f84612ff6565b80519060200120613070565b9050919050565b5f7f51945447000000000000000000000000000000000000000000000000000000007bffffffffffffffffffffffffffffffffffffffffffffffffffffffff1916827bffffffffffffffffffffffffffffffffffffffffffffffffffffffff19161480612004575061200382613084565b5b9050919050565b5f805f612016611f15565b9250925092505f612028848484611f2c565b90505f60015f8373ffffffffffffffffffffffffffffffffffffffff1673ffffffffffffffffffffffffffffffffffffffff1681526020019081526020015f205f80357fffffffff00000000000000000000000000000000000000000000000000000000167bffffffffffffffffffffffffffffffffffffffffffffffffffffffff19167bffffffffffffffffffffffffffffffffffffffffffffffffffffffff191681526020019081526020015f205f9054906101000a900473ffffffffffffffffffffffffffffffffffffffff1690505f73ffffffffffffffffffffffffffffffffffffffff168173ffffffffffffffffffffffffffffffffffffffff16146121ad575f808273ffffffffffffffffffffffffffffffffffffffff165f3660405161215692919061527e565b5f60405180830381855afa9150503d805f811461218e576040519150601f19603f3d011682016040523d82523d5f602084013e612193565b606091505b5091509150816121a557805160208201fd5b805160208201f35b5050505050565b6121bc611be4565b156121f3576040517f6315bfbb00000000000000000000000000000000000000000000000000000000815260040160405180910390fd5b6121fb6130fd565b565b5f808383604081811061221357612212614ce0565b5b9050013560f81c60f81b60f81c90505f808260ff16036123405784845f906020926122409392919061529e565b9061224b91906152ee565b5f1c90506122678160405180602001604052805f815250612b9c565b1580156122a057503073ffffffffffffffffffffffffffffffffffffffff168173ffffffffffffffffffffffffffffffffffffffff1614155b156122af575f925050506123e4565b365f868688886020906040926122c79392919061529e565b906122d291906152ee565b5f1c9080926122e39392919061529e565b91509150612335838984848080601f0160208091040260200160405190810160405280939291908181526020018383808284375f81840152601f19601f8201169050808301925050505050505061313a565b9450505050506123e4565b5f61238e8787878080601f0160208091040260200160405190810160405280939291908181526020018383808284375f81840152601f19601f82011690508083019250505050505050613259565b91505f60038111156123a3576123a261534c565b5b8160038111156123b6576123b561534c565b5b146123c6575f93505050506123e4565b6123de8260405180602001604052805f815250612b9c565b93505050505b9392505050565b5f6123f4613283565b905090565b5f8061240887878787876132c4565b80519060200120905061241c86828a613332565b9150509695505050505050565b5f612432611bee565b73ffffffffffffffffffffffffffffffffffffffff168273ffffffffffffffffffffffffffffffffffffffff160361246d5760019050612641565b5f805f612478611f15565b92509250925046831461257d573073ffffffffffffffffffffffffffffffffffffffff166124ac6124a76123eb565b61335c565b73ffffffffffffffffffffffffffffffffffffffff16036124d35760019350505050612641565b7f000000000000000000000000000000000000000000000000000000000000000073ffffffffffffffffffffffffffffffffffffffff1663672657ca866040518263ffffffff1660e01b815260040161252c9190613d06565b602060405180830381865afa158015612547573d5f803e3d5ffd5b505050506040513d601f19601f8201168201806040525081019061256b9190614e1f565b1561257c5760019350505050612641565b5b5f612589848484612cf9565b90508073ffffffffffffffffffffffffffffffffffffffff168673ffffffffffffffffffffffffffffffffffffffff16036125cb576001945050505050612641565b5f6125d882868686612f09565b90508073ffffffffffffffffffffffffffffffffffffffff168773ffffffffffffffffffffffffffffffffffffffff160361261b57600195505050505050612641565b612625878261337b565b1561263857600195505050505050612641565b5f955050505050505b919050565b61264e611be4565b15612685576040517f6315bfbb00000000000000000000000000000000000000000000000000000000815260040160405180910390fd5b61268d6130fd565b565b60605f60ff168260ff16036126f3576126ec868686868080601f0160208091040260200160405190810160405280939291908181526020018383808284375f81840152601f19601f82011690508083019250505050505050612dba565b905061289b565b600160ff168260ff160361276b575f61270b30611f51565b90505f8173ffffffffffffffffffffffffffffffffffffffff163b036127355761273430612cc2565b5b612763818789888860405160200161274f93929190615379565b604051602081830303815290604052612dba565b91505061289b565b600260ff168260ff16036127ec576127c68585858080601f0160208091040260200160405190810160405280939291908181526020018383808284375f81840152601f19601f82011690508083019250505050505050612b21565b6040516020016127d691906153a2565b604051602081830303815290604052905061289b565b600360ff168260ff1603612869575f84845f9060209261280e9392919061529e565b9061281991906152ee565b9050365f868660209080926128309392919061529e565b9150915061284088848484612913565b60405160200161285091906153a2565b604051602081830303815290604052935050505061289b565b6040517f398d4d3200000000000000000000000000000000000000000000000000000000815260040160405180910390fd5b95945050505050565b6128ad30611f51565b73ffffffffffffffffffffffffffffffffffffffff163373ffffffffffffffffffffffffffffffffffffffff1614612911576040517fea8e4eb500000000000000000000000000000000000000000000000000000000815260040160405180910390fd5b565b5f8083838080601f0160208091040260200160405190810160405280939291908181526020018383808284375f81840152601f19601f8201169050808301925050505050505090508481516020830188f591505f73ffffffffffffffffffffffffffffffffffffffff168273ffffffffffffffffffffffffffffffffffffffff16036129cb576040517fa28c247300000000000000000000000000000000000000000000000000000000815260040160405180910390fd5b50949350505050565b6129dc611bee565b73ffffffffffffffffffffffffffffffffffffffff163373ffffffffffffffffffffffffffffffffffffffff1614612a49576040517f08c379a0000000000000000000000000000000000000000000000000000000008152600401612a4090615406565b60405180910390fd5b565b5f612a6f612a598484613409565b84806101400190612a6a9190614ebc565b6121fd565b15612a7c575f9050612a81565b600190505b92915050565b50565b5f8114612b1e575f3373ffffffffffffffffffffffffffffffffffffffff16827fffffffffffffffffffffffffffffffffffffffffffffffffffffffffffffffff90604051612ad890615447565b5f60405180830381858888f193505050503d805f8114612b13576040519150601f19603f3d011682016040523d82523d5f602084013e612b18565b606091505b50509050505b50565b5f8082905080516020820185f091505f73ffffffffffffffffffffffffffffffffffffffff168273ffffffffffffffffffffffffffffffffffffffff1603612b95576040517fa28c247300000000000000000000000000000000000000000000000000000000815260040160405180910390fd5b5092915050565b5f805f80612ba8611f15565b9250925092505f612bba848484612cf9565b90508073ffffffffffffffffffffffffffffffffffffffff168773ffffffffffffffffffffffffffffffffffffffff1603612bfc576001945050505050612c5e565b5f612c0982868686612f09565b90508073ffffffffffffffffffffffffffffffffffffffff168873ffffffffffffffffffffffffffffffffffffffff1603612c4c57600195505050505050612c5e565b612c56888261337b565b955050505050505b92915050565b5f8183612c71919061545b565b905092915050565b612c81611be4565b15612cb8576040517f6315bfbb00000000000000000000000000000000000000000000000000000000815260040160405180910390fd5b612cc06130fd565b565b612cf55f7f97f795a08410e77dc9dbbaba3915f17c601e45642518dd578bd440d8775bfee4612cf084612ff6565b61341b565b5050565b5f468414612d09575f9050612db3565b5f8373ffffffffffffffffffffffffffffffffffffffff163b03612d2f575f9050612db3565b8273ffffffffffffffffffffffffffffffffffffffff16636352211e836040518263ffffffff1660e01b8152600401612d6891906143bd565b602060405180830381865afa925050508015612da257506040513d601f19601f82011682018060405250810190612d9f9190614e5e565b60015b612dae575f9050612db3565b809150505b9392505050565b60605f8473ffffffffffffffffffffffffffffffffffffffff168484604051612de39190614cca565b5f6040518083038185875af1925050503d805f8114612e1d576040519150601f19603f3d011682016040523d82523d5f602084013e612e22565b606091505b50809350819250505080612e3857815160208301fd5b509392505050565b612e48611be4565b15612e7f576040517f6315bfbb00000000000000000000000000000000000000000000000000000000815260040160405180910390fd5b612e876130fd565b565b5f805f80606067ffffffffffffffff811115612ea857612ea7613d90565b5b6040519080825280601f01601f191660200182016040528015612eda5781602001600182028036833780820191505090505b5090506060604d60208301873c80806020019051810190612efb91906154c9565b935093509350509193909250565b5f808590505b612f5a817f00000000000000000000000000000000000000000000000000000000000000007f0000000000000000000000000000000000000000000000000000000000000000613514565b15612fea578073ffffffffffffffffffffffffffffffffffffffff1663fc0c546a6040518163ffffffff1660e01b8152600401606060405180830381865afa158015612fa8573d5f803e3d5ffd5b505050506040513d601f19601f82011682018060405250810190612fcc9190615519565b809550819650829750505050612fe3858585612cf9565b9050612f0f565b80915050949350505050565b60606040518060400160405280600e81526020017f604380600d600039806000f3fe73000000000000000000000000000000000000815250826040518060600160405280602e81526020016157dd602e913960405160200161305a93929190615569565b6040516020818303038152906040529050919050565b5f61307c838330613332565b905092915050565b5f7f6faff5f1000000000000000000000000000000000000000000000000000000007bffffffffffffffffffffffffffffffffffffffffffffffffffffffff1916827bffffffffffffffffffffffffffffffffffffffffffffffffffffffff191614806130f657506130f58261360b565b5b9050919050565b600354613108613684565b60405160200161311a939291906155c9565b604051602081830303815290604052805190602001205f1c600381905550565b5f805f8573ffffffffffffffffffffffffffffffffffffffff1685856040516024016131679291906155f9565b604051602081830303815290604052631626ba7e60e01b6020820180517bffffffffffffffffffffffffffffffffffffffffffffffffffffffff83818316178352505050506040516131b99190614cca565b5f60405180830381855afa9150503d805f81146131f1576040519150601f19603f3d011682016040523d82523d5f602084013e6131f6565b606091505b509150915081801561320a57506020815110155b801561324e5750631626ba7e60e01b7bffffffffffffffffffffffffffffffffffffffffffffffffffffffff19168180602001905181019061324c919061563b565b145b925050509392505050565b5f805f806132678686613696565b92509250925061327782826136eb565b82935050505092915050565b5f61328d33611483565b801561329d575060145f36905010155b156132b157601436033560601c90506132c0565b6132b961384d565b90506132c1565b5b90565b606060405190508160b78201528260601b60601c60978201528360778201528460578201526e5af43d82803e903d91602b57fd5bf36037820152856028820152733d60ad80600a3d3981f3363d3d373d3d3d363d73601482015260b7815260d7810160405295945050505050565b5f604051836040820152846020820152828152600b810160ff815360558120925050509392505050565b5f73111100000000000000000000000000000000111182039050919050565b5f60025f8373ffffffffffffffffffffffffffffffffffffffff1673ffffffffffffffffffffffffffffffffffffffff1681526020019081526020015f205f8473ffffffffffffffffffffffffffffffffffffffff1673ffffffffffffffffffffffffffffffffffffffff1681526020019081526020015f205f9054906101000a900460ff16905092915050565b5f61341382613854565b905092915050565b5f834710156134635747846040517fe4bbecac00000000000000000000000000000000000000000000000000000000815260040161345a929190615666565b60405180910390fd5b5f82510361349d576040517f4ca249dc00000000000000000000000000000000000000000000000000000000815260040160405180910390fd5b8282516020840186f590505f73ffffffffffffffffffffffffffffffffffffffff168173ffffffffffffffffffffffffffffffffffffffff160361350d576040517f741752c200000000000000000000000000000000000000000000000000000000815260040160405180910390fd5b9392505050565b5f60ad8473ffffffffffffffffffffffffffffffffffffffff163b1461353c575f9050613604565b5f61354685613883565b90505f8173ffffffffffffffffffffffffffffffffffffffff163b0361356f575f915050613604565b8373ffffffffffffffffffffffffffffffffffffffff168173ffffffffffffffffffffffffffffffffffffffff16146135ab575f915050613604565b5f805f806135b889613895565b93509350935093506135ce8786868686866123f9565b73ffffffffffffffffffffffffffffffffffffffff168973ffffffffffffffffffffffffffffffffffffffff1614955050505050505b9392505050565b5f7f4e2312e0000000000000000000000000000000000000000000000000000000007bffffffffffffffffffffffffffffffffffffffffffffffffffffffff1916827bffffffffffffffffffffffffffffffffffffffffffffffffffffffff1916148061367d575061367c82613918565b5b9050919050565b365f61368e613981565b915091509091565b5f805f60418451036136d6575f805f602087015192506040870151915060608701515f1a90506136c8888285856139dc565b9550955095505050506136e4565b5f600285515f1b9250925092505b9250925092565b5f60038111156136fe576136fd61534c565b5b8260038111156137115761371061534c565b5b0315613849576001600381111561372b5761372a61534c565b5b82600381111561373e5761373d61534c565b5b03613775576040517ff645eedf00000000000000000000000000000000000000000000000000000000815260040160405180910390fd5b600260038111156137895761378861534c565b5b82600381111561379c5761379b61534c565b5b036137e057805f1c6040517ffce698f70000000000000000000000000000000000000000000000000000000081526004016137d791906143bd565b60405180910390fd5b6003808111156137f3576137f261534c565b5b8260038111156138065761380561534c565b5b0361384857806040517fd78bce0c00000000000000000000000000000000000000000000000000000000815260040161383f919061407b565b60405180910390fd5b5b5050565b5f33905090565b5f816040516020016138669190615701565b604051602081830303815290604052805190602001209050919050565b5f6014600a600c843c5f519050919050565b5f805f805f608067ffffffffffffffff8111156138b5576138b4613d90565b5b6040519080825280601f01601f1916602001820160405280156138e75781602001600182028036833780820191505090505b5090506080602d60208301883c808060200190518101906139089190615726565b9450945094509450509193509193565b5f7f01ffc9a7000000000000000000000000000000000000000000000000000000007bffffffffffffffffffffffffffffffffffffffffffffffffffffffff1916827bffffffffffffffffffffffffffffffffffffffffffffffffffffffff1916149050919050565b365f61398c33611483565b801561399c575060145f36905010155b156139cb575f365f9060145f3690506139b5919061545b565b926139c29392919061529e565b915091506139d8565b6139d3613ac3565b915091505b9091565b5f805f7f7fffffffffffffffffffffffffffffff5d576e7357a4501ddfe92f46681b20a0845f1c1115613a18575f600385925092509250613ab9565b5f6001888888886040515f8152602001604052604051613a3b9493929190615799565b6020604051602081039080840390855afa158015613a5b573d5f803e3d5ffd5b5050506020604051035190505f73ffffffffffffffffffffffffffffffffffffffff168173ffffffffffffffffffffffffffffffffffffffff1603613aac575f60015f801b93509350935050613ab9565b805f805f1b935093509350505b9450945094915050565b365f8036915091509091565b5f604051905090565b5f80fd5b5f80fd5b5f7fffffffff0000000000000000000000000000000000000000000000000000000082169050919050565b613b1481613ae0565b8114613b1e575f80fd5b50565b5f81359050613b2f81613b0b565b92915050565b5f60208284031215613b4a57613b49613ad8565b5b5f613b5784828501613b21565b91505092915050565b5f8115159050919050565b613b7481613b60565b82525050565b5f602082019050613b8d5f830184613b6b565b92915050565b5f80fd5b5f80fd5b5f80fd5b5f8083601f840112613bb457613bb3613b93565b5b8235905067ffffffffffffffff811115613bd157613bd0613b97565b5b602083019150836020820283011115613bed57613bec613b9b565b5b9250929050565b5f8083601f840112613c0957613c08613b93565b5b8235905067ffffffffffffffff811115613c2657613c25613b97565b5b602083019150836020820283011115613c4257613c41613b9b565b5b9250929050565b5f805f8060408587031215613c6157613c60613ad8565b5b5f85013567ffffffffffffffff811115613c7e57613c7d613adc565b5b613c8a87828801613b9f565b9450945050602085013567ffffffffffffffff811115613cad57613cac613adc565b5b613cb987828801613bf4565b925092505092959194509250565b5f73ffffffffffffffffffffffffffffffffffffffff82169050919050565b5f613cf082613cc7565b9050919050565b613d0081613ce6565b82525050565b5f602082019050613d195f830184613cf7565b92915050565b613d2881613ce6565b8114613d32575f80fd5b50565b5f81359050613d4381613d1f565b92915050565b5f819050919050565b613d5b81613d49565b8114613d65575f80fd5b50565b5f81359050613d7681613d52565b92915050565b5f80fd5b5f601f19601f8301169050919050565b7f4e487b71000000000000000000000000000000000000000000000000000000005f52604160045260245ffd5b613dc682613d80565b810181811067ffffffffffffffff82111715613de557613de4613d90565b5b80604052505050565b5f613df7613acf565b9050613e038282613dbd565b919050565b5f67ffffffffffffffff821115613e2257613e21613d90565b5b613e2b82613d80565b9050602081019050919050565b828183375f83830152505050565b5f613e58613e5384613e08565b613dee565b905082815260208101848484011115613e7457613e73613d7c565b5b613e7f848285613e38565b509392505050565b5f82601f830112613e9b57613e9a613b93565b5b8135613eab848260208601613e46565b91505092915050565b5f805f8060808587031215613ecc57613ecb613ad8565b5b5f613ed987828801613d35565b9450506020613eea87828801613d35565b9350506040613efb87828801613d68565b925050606085013567ffffffffffffffff811115613f1c57613f1b613adc565b5b613f2887828801613e87565b91505092959194509250565b613f3d81613ae0565b82525050565b5f602082019050613f565f830184613f34565b92915050565b5f819050919050565b613f6e81613f5c565b8114613f78575f80fd5b50565b5f81359050613f8981613f65565b92915050565b5f8083601f840112613fa457613fa3613b93565b5b8235905067ffffffffffffffff811115613fc157613fc0613b97565b5b602083019150836001820283011115613fdd57613fdc613b9b565b5b9250929050565b5f805f60408486031215613ffb57613ffa613ad8565b5b5f61400886828701613f7b565b935050602084013567ffffffffffffffff81111561402957614028613adc565b5b61403586828701613f8f565b92509250509250925092565b5f6020828403121561405657614055613ad8565b5b5f61406384828501613f7b565b91505092915050565b61407581613f5c565b82525050565b5f60208201905061408e5f83018461406c565b92915050565b5f80604083850312156140aa576140a9613ad8565b5b5f6140b785828601613d35565b92505060206140c885828601613d35565b9150509250929050565b5f60ff82169050919050565b6140e7816140d2565b81146140f1575f80fd5b50565b5f81359050614102816140de565b92915050565b5f8083601f84011261411d5761411c613b93565b5b8235905067ffffffffffffffff81111561413a57614139613b97565b5b60208301915083606082028301111561415657614155613b9b565b5b9250929050565b5f805f805f805f60a0888a03121561417857614177613ad8565b5b5f6141858a828b01613d35565b97505060206141968a828b01613d68565b965050604088013567ffffffffffffffff8111156141b7576141b6613adc565b5b6141c38a828b01613f8f565b955095505060606141d68a828b016140f4565b935050608088013567ffffffffffffffff8111156141f7576141f6613adc565b5b6142038a828b01614108565b925092505092959891949750929550565b5f81519050919050565b5f82825260208201905092915050565b5f5b8381101561424b578082015181840152602081019050614230565b5f8484015250505050565b5f61426082614214565b61426a818561421e565b935061427a81856020860161422e565b61428381613d80565b840191505092915050565b5f6020820190508181035f8301526142a68184614256565b905092915050565b5f805f80606085870312156142c6576142c5613ad8565b5b5f6142d387828801613d68565b94505060206142e487828801613f7b565b935050604085013567ffffffffffffffff81111561430557614304613adc565b5b61431187828801613f8f565b925092505092959194509250565b5f80fd5b5f61016082840312156143395761433861431f565b5b81905092915050565b5f805f6060848603121561435957614358613ad8565b5b5f84013567ffffffffffffffff81111561437657614375613adc565b5b61438286828701614323565b935050602061439386828701613f7b565b92505060406143a486828701613d68565b9150509250925092565b6143b781613d49565b82525050565b5f6020820190506143d05f8301846143ae565b92915050565b5f8083601f8401126143eb576143ea613b93565b5b8235905067ffffffffffffffff81111561440857614407613b97565b5b60208301915083602082028301111561442457614423613b9b565b5b9250929050565b5f806020838503121561444157614440613ad8565b5b5f83013567ffffffffffffffff81111561445e5761445d613adc565b5b61446a858286016143d6565b92509250509250929050565b5f81519050919050565b5f82825260208201905092915050565b5f819050602082019050919050565b5f82825260208201905092915050565b5f6144b982614214565b6144c3818561449f565b93506144d381856020860161422e565b6144dc81613d80565b840191505092915050565b5f6144f283836144af565b905092915050565b5f602082019050919050565b5f61451082614476565b61451a8185614480565b93508360208202850161452c85614490565b805f5b85811015614567578484038952815161454885826144e7565b9450614553836144fa565b925060208a0199505060018101905061452f565b50829750879550505050505092915050565b5f6020820190508181035f8301526145918184614506565b905092915050565b5f805f604084860312156145b0576145af613ad8565b5b5f6145bd86828701613d68565b935050602084013567ffffffffffffffff8111156145de576145dd613adc565b5b6145ea86828701613f8f565b92509250509250925092565b5f805f805f6080868803121561460f5761460e613ad8565b5b5f61461c88828901613d35565b955050602061462d88828901613d68565b945050604086013567ffffffffffffffff81111561464e5761464d613adc565b5b61465a88828901613f8f565b9350935050606061466d888289016140f4565b9150509295509295909350565b5f805f6040848603121561469157614690613ad8565b5b5f61469e86828701613d35565b935050602084013567ffffffffffffffff8111156146bf576146be613adc565b5b6146cb86828701613f8f565b92509250509250925092565b5f602082840312156146ec576146eb613ad8565b5b5f6146f984828501613d35565b91505092915050565b5f805f805f60a0868803121561471b5761471a613ad8565b5b5f61472888828901613d35565b955050602061473988828901613d35565b945050604061474a88828901613d68565b935050606061475b88828901613d68565b925050608061476c88828901613d68565b9150509295509295909350565b5f8083601f84011261478e5761478d613b93565b5b8235905067ffffffffffffffff8111156147ab576147aa613b97565b5b6020830191508360208202830111156147c7576147c6613b9b565b5b9250929050565b5f805f80604085870312156147e6576147e5613ad8565b5b5f85013567ffffffffffffffff81111561480357614802613adc565b5b61480f87828801614779565b9450945050602085013567ffffffffffffffff81111561483257614831613adc565b5b61483e87828801613b9f565b925092505092959194509250565b5f819050919050565b5f61486f61486a61486584613cc7565b61484c565b613cc7565b9050919050565b5f61488082614855565b9050919050565b5f61489182614876565b9050919050565b6148a181614887565b82525050565b5f6020820190506148ba5f830184614898565b92915050565b5f805f80606085870312156148d8576148d7613ad8565b5b5f6148e587828801613d35565b94505060206148f687828801613d68565b935050604085013567ffffffffffffffff81111561491757614916613adc565b5b61492387828801613f8f565b925092505092959194509250565b5f67ffffffffffffffff82111561494b5761494a613d90565b5b602082029050602081019050919050565b5f61496e61496984614931565b613dee565b9050808382526020820190506020840283018581111561499157614990613b9b565b5b835b818110156149ba57806149a68882613d68565b845260208401935050602081019050614993565b5050509392505050565b5f82601f8301126149d8576149d7613b93565b5b81356149e884826020860161495c565b91505092915050565b5f805f805f60a08688031215614a0a57614a09613ad8565b5b5f614a1788828901613d35565b9550506020614a2888828901613d35565b945050604086013567ffffffffffffffff811115614a4957614a48613adc565b5b614a55888289016149c4565b935050606086013567ffffffffffffffff811115614a7657614a75613adc565b5b614a82888289016149c4565b925050608086013567ffffffffffffffff811115614aa357614aa2613adc565b5b614aaf88828901613e87565b9150509295509295909350565b5f60208284031215614ad157614ad0613ad8565b5b5f614ade84828501613d68565b91505092915050565b5f8060408385031215614afd57614afc613ad8565b5b5f614b0a85828601613d35565b9250506020614b1b85828601613b21565b9150509250929050565b5f805f805f60a08688031215614b3e57614b3d613ad8565b5b5f614b4b88828901613d35565b9550506020614b5c88828901613d35565b9450506040614b6d88828901613d68565b9350506060614b7e88828901613d68565b925050608086013567ffffffffffffffff811115614b9f57614b9e613adc565b5b614bab88828901613e87565b9150509295509295909350565b5f606082019050614bcb5f8301866143ae565b614bd86020830185613cf7565b614be560408301846143ae565b949350505050565b5f8160601b9050919050565b5f614c0382614bed565b9050919050565b5f614c1482614bf9565b9050919050565b614c2c614c2782613ce6565b614c0a565b82525050565b5f81905092915050565b5f614c478385614c32565b9350614c54838584613e38565b82840190509392505050565b5f614c6b8287614c1b565b601482019150614c7c828587614c3c565b9150614c888284614c1b565b60148201915081905095945050505050565b5f614ca482614214565b614cae8185614c32565b9350614cbe81856020860161422e565b80840191505092915050565b5f614cd58284614c9a565b915081905092915050565b7f4e487b71000000000000000000000000000000000000000000000000000000005f52603260045260245ffd5b614d1681613b60565b8114614d20575f80fd5b50565b5f81359050614d3181614d0d565b92915050565b5f60208284031215614d4c57614d4b613ad8565b5b5f614d5984828501614d23565b91505092915050565b5f606082019050614d755f830186613cf7565b614d826020830185613cf7565b614d8f6040830184613b6b565b949350505050565b7f4e487b71000000000000000000000000000000000000000000000000000000005f52601160045260245ffd5b5f614dce82613d49565b91507fffffffffffffffffffffffffffffffffffffffffffffffffffffffffffffffff8203614e0057614dff614d97565b5b600182019050919050565b5f81519050614e1981614d0d565b92915050565b5f60208284031215614e3457614e33613ad8565b5b5f614e4184828501614e0b565b91505092915050565b5f81519050614e5881613d1f565b92915050565b5f60208284031215614e7357614e72613ad8565b5b5f614e8084828501614e4a565b91505092915050565b5f80fd5b5f80fd5b5f80fd5b5f82356001608003833603038112614eb057614eaf614e89565b5b80830191505092915050565b5f8083356001602003843603038112614ed857614ed7614e89565b5b80840192508235915067ffffffffffffffff821115614efa57614ef9614e8d565b5b602083019250600182023603831315614f1657614f15614e91565b5b509250929050565b5f60208284031215614f3357614f32613ad8565b5b5f614f40848285016140f4565b91505092915050565b5f82825260208201905092915050565b7f4e6f7420426f742057616c6c65740000000000000000000000000000000000005f82015250565b5f614f8d600e83614f49565b9150614f9882614f59565b602082019050919050565b5f6020820190508181035f830152614fba81614f81565b9050919050565b5f81519050614fcf81613d52565b92915050565b5f60208284031215614fea57614fe9613ad8565b5b5f614ff784828501614fc1565b91505092915050565b7f4e6f7420656e6f756768205553444300000000000000000000000000000000005f82015250565b5f615034600f83614f49565b915061503f82615000565b602082019050919050565b5f6020820190508181035f83015261506181615028565b9050919050565b5f61507282613d49565b915061507d83613d49565b925082820190508082111561509557615094614d97565b5b92915050565b5f6040820190506150ae5f830185613cf7565b6150bb60208301846143ae565b9392505050565b6150cb81613ce6565b82525050565b5f62ffffff82169050919050565b6150e8816150d1565b82525050565b6150f781613d49565b82525050565b61510681613cc7565b82525050565b61010082015f8201516151215f8501826150c2565b50602082015161513460208501826150c2565b50604082015161514760408501826150df565b50606082015161515a60608501826150c2565b50608082015161516d60808501826150ee565b5060a082015161518060a08501826150ee565b5060c082015161519360c08501826150ee565b5060e08201516151a660e08501826150fd565b50505050565b5f610100820190506151c05f83018461510c565b92915050565b5f6060820190506151d95f830186613cf7565b6151e66020830185613f34565b6151f36040830184613cf7565b949350505050565b5f819050919050565b5f77ffffffffffffffffffffffffffffffffffffffffffffffff82169050919050565b5f61524161523c615237846151fb565b61484c565b615204565b9050919050565b61525181615227565b82525050565b5f60408201905061526a5f830185613cf7565b6152776020830184615248565b9392505050565b5f61528a828486614c3c565b91508190509392505050565b5f80fd5b5f80fd5b5f80858511156152b1576152b0615296565b5b838611156152c2576152c161529a565b5b6001850283019150848603905094509492505050565b5f82905092915050565b5f82821b905092915050565b5f6152f983836152d8565b826153048135613f5c565b925060208210156153445761533f7fffffffffffffffffffffffffffffffffffffffffffffffffffffffffffffffff836020036008026152e2565b831692505b505092915050565b7f4e487b71000000000000000000000000000000000000000000000000000000005f52602160045260245ffd5b5f6153848286614c1b565b601482019150615395828486614c3c565b9150819050949350505050565b5f6153ad8284614c1b565b60148201915081905092915050565b7f6163636f756e743a206e6f742066726f6d20456e747279506f696e74000000005f82015250565b5f6153f0601c83614f49565b91506153fb826153bc565b602082019050919050565b5f6020820190508181035f83015261541d816153e4565b9050919050565b50565b5f6154325f83614c32565b915061543d82615424565b5f82019050919050565b5f61545182615427565b9150819050919050565b5f61546582613d49565b915061547083613d49565b925082820390508181111561548857615487614d97565b5b92915050565b5f61549882613cc7565b9050919050565b6154a88161548e565b81146154b2575f80fd5b50565b5f815190506154c38161549f565b92915050565b5f805f606084860312156154e0576154df613ad8565b5b5f6154ed86828701614fc1565b93505060206154fe868287016154b5565b925050604061550f86828701614fc1565b9150509250925092565b5f805f606084860312156155305761552f613ad8565b5b5f61553d86828701614fc1565b935050602061554e86828701614e4a565b925050604061555f86828701614fc1565b9150509250925092565b5f6155748286614c9a565b91506155808285614c1b565b6014820191506155908284614c9a565b9150819050949350505050565b5f6155a8838561421e565b93506155b5838584613e38565b6155be83613d80565b840190509392505050565b5f6040820190506155dc5f8301866143ae565b81810360208301526155ef81848661559d565b9050949350505050565b5f60408201905061560c5f83018561406c565b818103602083015261561e8184614256565b90509392505050565b5f8151905061563581613f65565b92915050565b5f602082840312156156505761564f613ad8565b5b5f61565d84828501615627565b91505092915050565b5f6040820190506156795f8301856143ae565b61568660208301846143ae565b9392505050565b5f81905092915050565b7f19457468657265756d205369676e6564204d6573736167653a0a3332000000005f82015250565b5f6156cb601c8361568d565b91506156d682615697565b601c82019050919050565b5f819050919050565b6156fb6156f682613f5c565b6156e1565b82525050565b5f61570b826156bf565b915061571782846156ea565b60208201915081905092915050565b5f805f806080858703121561573e5761573d613ad8565b5b5f61574b87828801615627565b945050602061575c87828801614fc1565b935050604061576d878288016154b5565b925050606061577e87828801614fc1565b91505092959194509250565b615793816140d2565b82525050565b5f6080820190506157ac5f83018761406c565b6157b9602083018661578a565b6157c6604083018561406c565b6157d3606083018461406c565b9594505050505056fe3314601d573d3dfd5b363d3d373d3d6014360360143d5160601c5af43d6000803e80603e573d6000fd5b3d6000f3a2646970667358221220502cc36c485e5f9d26e4598dddf613d2d53c11a6fb8b9f63a712fc76f1c10a3f64736f6c63430008140033",
			"opcodes": "PUSH2 0x120 PUSH1 0x40 MSTORE ADDRESS PUSH20 0xFFFFFFFFFFFFFFFFFFFFFFFFFFFFFFFFFFFFFFFF AND PUSH1 0xA0 SWAP1 PUSH20 0xFFFFFFFFFFFFFFFFFFFFFFFFFFFFFFFFFFFFFFFF AND DUP2 MSTORE POP CALLVALUE DUP1 ISZERO PUSH3 0x44 JUMPI PUSH0 DUP1 REVERT JUMPDEST POP PUSH1 0x40 MLOAD PUSH3 0x5BE8 CODESIZE SUB DUP1 PUSH3 0x5BE8 DUP4 CODECOPY DUP2 DUP2 ADD PUSH1 0x40 MSTORE DUP2 ADD SWAP1 PUSH3 0x6A SWAP2 SWAP1 PUSH3 0x2E6 JUMP JUMPDEST DUP3 DUP3 DUP2 DUP2 DUP8 PUSH0 PUSH20 0xFFFFFFFFFFFFFFFFFFFFFFFFFFFFFFFFFFFFFFFF AND DUP2 PUSH20 0xFFFFFFFFFFFFFFFFFFFFFFFFFFFFFFFFFFFFFFFF AND SUB PUSH3 0xD5 JUMPI PUSH1 0x40 MLOAD PUSH32 0x2039D3C900000000000000000000000000000000000000000000000000000000 DUP2 MSTORE PUSH1 0x4 ADD PUSH1 0x40 MLOAD DUP1 SWAP2 SUB SWAP1 REVERT JUMPDEST DUP1 PUSH20 0xFFFFFFFFFFFFFFFFFFFFFFFFFFFFFFFFFFFFFFFF AND PUSH1 0x80 DUP2 PUSH20 0xFFFFFFFFFFFFFFFFFFFFFFFFFFFFFFFFFFFFFFFF AND DUP2 MSTORE POP POP POP PUSH0 PUSH20 0xFFFFFFFFFFFFFFFFFFFFFFFFFFFFFFFFFFFFFFFF AND DUP2 PUSH20 0xFFFFFFFFFFFFFFFFFFFFFFFFFFFFFFFFFFFFFFFF AND SUB PUSH3 0x170 JUMPI PUSH1 0x40 MLOAD PUSH32 0x46A2950000000000000000000000000000000000000000000000000000000000 DUP2 MSTORE PUSH1 0x4 ADD PUSH1 0x40 MLOAD DUP1 SWAP2 SUB SWAP1 REVERT JUMPDEST DUP1 PUSH20 0xFFFFFFFFFFFFFFFFFFFFFFFFFFFFFFFFFFFFFFFF AND PUSH1 0xC0 DUP2 PUSH20 0xFFFFFFFFFFFFFFFFFFFFFFFFFFFFFFFFFFFFFFFF AND DUP2 MSTORE POP POP POP DUP1 PUSH20 0xFFFFFFFFFFFFFFFFFFFFFFFFFFFFFFFFFFFFFFFF AND PUSH1 0xE0 DUP2 PUSH20 0xFFFFFFFFFFFFFFFFFFFFFFFFFFFFFFFFFFFFFFFF AND DUP2 MSTORE POP POP POP PUSH0 PUSH20 0xFFFFFFFFFFFFFFFFFFFFFFFFFFFFFFFFFFFFFFFF AND DUP3 PUSH20 0xFFFFFFFFFFFFFFFFFFFFFFFFFFFFFFFFFFFFFFFF AND SUB PUSH3 0x240 JUMPI PUSH1 0x40 MLOAD PUSH32 0xEA98EA6600000000000000000000000000000000000000000000000000000000 DUP2 MSTORE PUSH1 0x4 ADD PUSH1 0x40 MLOAD DUP1 SWAP2 SUB SWAP1 REVERT JUMPDEST POP POP DUP1 PUSH20 0xFFFFFFFFFFFFFFFFFFFFFFFFFFFFFFFFFFFFFFFF AND PUSH2 0x100 DUP2 PUSH20 0xFFFFFFFFFFFFFFFFFFFFFFFFFFFFFFFFFFFFFFFF AND DUP2 MSTORE POP POP POP POP POP POP PUSH3 0x355 JUMP JUMPDEST PUSH0 DUP1 REVERT JUMPDEST PUSH0 PUSH20 0xFFFFFFFFFFFFFFFFFFFFFFFFFFFFFFFFFFFFFFFF DUP3 AND SWAP1 POP SWAP2 SWAP1 POP JUMP JUMPDEST PUSH0 PUSH3 0x2B0 DUP3 PUSH3 0x285 JUMP JUMPDEST SWAP1 POP SWAP2 SWAP1 POP JUMP JUMPDEST PUSH3 0x2C2 DUP2 PUSH3 0x2A4 JUMP JUMPDEST DUP2 EQ PUSH3 0x2CD JUMPI PUSH0 DUP1 REVERT JUMPDEST POP JUMP JUMPDEST PUSH0 DUP2 MLOAD SWAP1 POP PUSH3 0x2E0 DUP2 PUSH3 0x2B7 JUMP JUMPDEST SWAP3 SWAP2 POP POP JUMP JUMPDEST PUSH0 DUP1 PUSH0 DUP1 PUSH1 0x80 DUP6 DUP8 SUB SLT ISZERO PUSH3 0x301 JUMPI PUSH3 0x300 PUSH3 0x281 JUMP JUMPDEST JUMPDEST PUSH0 PUSH3 0x310 DUP8 DUP3 DUP9 ADD PUSH3 0x2D0 JUMP JUMPDEST SWAP5 POP POP PUSH1 0x20 PUSH3 0x323 DUP8 DUP3 DUP9 ADD PUSH3 0x2D0 JUMP JUMPDEST SWAP4 POP POP PUSH1 0x40 PUSH3 0x336 DUP8 DUP3 DUP9 ADD PUSH3 0x2D0 JUMP JUMPDEST SWAP3 POP POP PUSH1 0x60 PUSH3 0x349 DUP8 DUP3 DUP9 ADD PUSH3 0x2D0 JUMP JUMPDEST SWAP2 POP POP SWAP3 SWAP6 SWAP2 SWAP5 POP SWAP3 POP JUMP JUMPDEST PUSH1 0x80 MLOAD PUSH1 0xA0 MLOAD PUSH1 0xC0 MLOAD PUSH1 0xE0 MLOAD PUSH2 0x100 MLOAD PUSH2 0x5840 PUSH3 0x3A8 PUSH0 CODECOPY PUSH0 PUSH2 0x24D5 ADD MSTORE PUSH0 PUSH2 0x1B9B ADD MSTORE PUSH0 DUP2 DUP2 PUSH2 0xCBE ADD MSTORE DUP2 DUP2 PUSH2 0xE4B ADD MSTORE PUSH2 0x2F36 ADD MSTORE PUSH0 DUP2 DUP2 PUSH2 0xE6C ADD MSTORE PUSH2 0x2F15 ADD MSTORE PUSH0 PUSH2 0x1BF1 ADD MSTORE PUSH2 0x5840 PUSH0 RETURN INVALID PUSH1 0x80 PUSH1 0x40 MSTORE PUSH1 0x4 CALLDATASIZE LT PUSH2 0x1D0 JUMPI PUSH0 CALLDATALOAD PUSH1 0xE0 SHR DUP1 PUSH4 0x57D39E70 GT PUSH2 0xF6 JUMPI DUP1 PUSH4 0xBC197C81 GT PUSH2 0x94 JUMPI DUP1 PUSH4 0xDD467064 GT PUSH2 0x63 JUMPI DUP1 PUSH4 0xDD467064 EQ PUSH2 0x725 JUMPI DUP1 PUSH4 0xEE9C6054 EQ PUSH2 0x74D JUMPI DUP1 PUSH4 0xF23A6E61 EQ PUSH2 0x789 JUMPI DUP1 PUSH4 0xFC0C546A EQ PUSH2 0x7C5 JUMPI PUSH2 0x1DF JUMP JUMPDEST DUP1 PUSH4 0xBC197C81 EQ PUSH2 0x66B JUMPI DUP1 PUSH4 0xC19D93FB EQ PUSH2 0x6A7 JUMPI DUP1 PUSH4 0xCE0617EC EQ PUSH2 0x6D1 JUMPI DUP1 PUSH4 0xD087D288 EQ PUSH2 0x6FB JUMPI PUSH2 0x1DF JUMP JUMPDEST DUP1 PUSH4 0x8DA5CB5B GT PUSH2 0xD0 JUMPI DUP1 PUSH4 0x8DA5CB5B EQ PUSH2 0x5B1 JUMPI DUP1 PUSH4 0xA4E2D634 EQ PUSH2 0x5DB JUMPI DUP1 PUSH4 0xB0D691FE EQ PUSH2 0x605 JUMPI DUP1 PUSH4 0xB709467C EQ PUSH2 0x62F JUMPI PUSH2 0x1DF JUMP JUMPDEST DUP1 PUSH4 0x57D39E70 EQ PUSH2 0x523 JUMPI DUP1 PUSH4 0x7A8F7356 EQ PUSH2 0x55F JUMPI DUP1 PUSH4 0x7DA0A877 EQ PUSH2 0x587 JUMPI PUSH2 0x1DF JUMP JUMPDEST DUP1 PUSH4 0x1FB1ECF0 GT PUSH2 0x16E JUMPI DUP1 PUSH4 0x45A24E3E GT PUSH2 0x13D JUMPI DUP1 PUSH4 0x45A24E3E EQ PUSH2 0x43F JUMPI DUP1 PUSH4 0x51945447 EQ PUSH2 0x47B JUMPI DUP1 PUSH4 0x523E3260 EQ PUSH2 0x4AB JUMPI DUP1 PUSH4 0x572B6C05 EQ PUSH2 0x4E7 JUMPI PUSH2 0x1DF JUMP JUMPDEST DUP1 PUSH4 0x1FB1ECF0 EQ PUSH2 0x367 JUMPI DUP1 PUSH4 0x34715FB1 EQ PUSH2 0x397 JUMPI DUP1 PUSH4 0x3A871CDD EQ PUSH2 0x3D3 JUMPI DUP1 PUSH4 0x43629A73 EQ PUSH2 0x40F JUMPI PUSH2 0x1DF JUMP JUMPDEST DUP1 PUSH4 0x150B7A02 GT PUSH2 0x1AA JUMPI DUP1 PUSH4 0x150B7A02 EQ PUSH2 0x277 JUMPI DUP1 PUSH4 0x1626BA7E EQ PUSH2 0x2B3 JUMPI DUP1 PUSH4 0x1E2EAEAF EQ PUSH2 0x2EF JUMPI DUP1 PUSH4 0x1F9838B5 EQ PUSH2 0x32B JUMPI PUSH2 0x1DF JUMP JUMPDEST DUP1 PUSH4 0x1FFC9A7 EQ PUSH2 0x1E9 JUMPI DUP1 PUSH4 0x39721B1 EQ PUSH2 0x225 JUMPI DUP1 PUSH4 0x56D5AFE EQ PUSH2 0x24D JUMPI PUSH2 0x1DF JUMP JUMPDEST CALLDATASIZE PUSH2 0x1DF JUMPI PUSH2 0x1DD PUSH2 0x7F1 JUMP JUMPDEST STOP JUMPDEST PUSH2 0x1E7 PUSH2 0x7F1 JUMP JUMPDEST STOP JUMPDEST CALLVALUE DUP1 ISZERO PUSH2 0x1F4 JUMPI PUSH0 DUP1 REVERT JUMPDEST POP PUSH2 0x20F PUSH1 0x4 DUP1 CALLDATASIZE SUB DUP2 ADD SWAP1 PUSH2 0x20A SWAP2 SWAP1 PUSH2 0x3B35 JUMP JUMPDEST PUSH2 0x9CA JUMP JUMPDEST PUSH1 0x40 MLOAD PUSH2 0x21C SWAP2 SWAP1 PUSH2 0x3B7A JUMP JUMPDEST PUSH1 0x40 MLOAD DUP1 SWAP2 SUB SWAP1 RETURN JUMPDEST CALLVALUE DUP1 ISZERO PUSH2 0x230 JUMPI PUSH0 DUP1 REVERT JUMPDEST POP PUSH2 0x24B PUSH1 0x4 DUP1 CALLDATASIZE SUB DUP2 ADD SWAP1 PUSH2 0x246 SWAP2 SWAP1 PUSH2 0x3C49 JUMP JUMPDEST PUSH2 0x9F9 JUMP JUMPDEST STOP JUMPDEST CALLVALUE DUP1 ISZERO PUSH2 0x258 JUMPI PUSH0 DUP1 REVERT JUMPDEST POP PUSH2 0x261 PUSH2 0xCBC JUMP JUMPDEST PUSH1 0x40 MLOAD PUSH2 0x26E SWAP2 SWAP1 PUSH2 0x3D06 JUMP JUMPDEST PUSH1 0x40 MLOAD DUP1 SWAP2 SUB SWAP1 RETURN JUMPDEST CALLVALUE DUP1 ISZERO PUSH2 0x282 JUMPI PUSH0 DUP1 REVERT JUMPDEST POP PUSH2 0x29D PUSH1 0x4 DUP1 CALLDATASIZE SUB DUP2 ADD SWAP1 PUSH2 0x298 SWAP2 SWAP1 PUSH2 0x3EB4 JUMP JUMPDEST PUSH2 0xCE0 JUMP JUMPDEST PUSH1 0x40 MLOAD PUSH2 0x2AA SWAP2 SWAP1 PUSH2 0x3F43 JUMP JUMPDEST PUSH1 0x40 MLOAD DUP1 SWAP2 SUB SWAP1 RETURN JUMPDEST CALLVALUE DUP1 ISZERO PUSH2 0x2BE JUMPI PUSH0 DUP1 REVERT JUMPDEST POP PUSH2 0x2D9 PUSH1 0x4 DUP1 CALLDATASIZE SUB DUP2 ADD SWAP1 PUSH2 0x2D4 SWAP2 SWAP1 PUSH2 0x3FE4 JUMP JUMPDEST PUSH2 0xD8B JUMP JUMPDEST PUSH1 0x40 MLOAD PUSH2 0x2E6 SWAP2 SWAP1 PUSH2 0x3F43 JUMP JUMPDEST PUSH1 0x40 MLOAD DUP1 SWAP2 SUB SWAP1 RETURN JUMPDEST CALLVALUE DUP1 ISZERO PUSH2 0x2FA JUMPI PUSH0 DUP1 REVERT JUMPDEST POP PUSH2 0x315 PUSH1 0x4 DUP1 CALLDATASIZE SUB DUP2 ADD SWAP1 PUSH2 0x310 SWAP2 SWAP1 PUSH2 0x4041 JUMP JUMPDEST PUSH2 0xDB9 JUMP JUMPDEST PUSH1 0x40 MLOAD PUSH2 0x322 SWAP2 SWAP1 PUSH2 0x407B JUMP JUMPDEST PUSH1 0x40 MLOAD DUP1 SWAP2 SUB SWAP1 RETURN JUMPDEST CALLVALUE DUP1 ISZERO PUSH2 0x336 JUMPI PUSH0 DUP1 REVERT JUMPDEST POP PUSH2 0x351 PUSH1 0x4 DUP1 CALLDATASIZE SUB DUP2 ADD SWAP1 PUSH2 0x34C SWAP2 SWAP1 PUSH2 0x4094 JUMP JUMPDEST PUSH2 0xDC3 JUMP JUMPDEST PUSH1 0x40 MLOAD PUSH2 0x35E SWAP2 SWAP1 PUSH2 0x3B7A JUMP JUMPDEST PUSH1 0x40 MLOAD DUP1 SWAP2 SUB SWAP1 RETURN JUMPDEST PUSH2 0x381 PUSH1 0x4 DUP1 CALLDATASIZE SUB DUP2 ADD SWAP1 PUSH2 0x37C SWAP2 SWAP1 PUSH2 0x415D JUMP JUMPDEST PUSH2 0xDED JUMP JUMPDEST PUSH1 0x40 MLOAD PUSH2 0x38E SWAP2 SWAP1 PUSH2 0x428E JUMP JUMPDEST PUSH1 0x40 MLOAD DUP1 SWAP2 SUB SWAP1 RETURN JUMPDEST CALLVALUE DUP1 ISZERO PUSH2 0x3A2 JUMPI PUSH0 DUP1 REVERT JUMPDEST POP PUSH2 0x3BD PUSH1 0x4 DUP1 CALLDATASIZE SUB DUP2 ADD SWAP1 PUSH2 0x3B8 SWAP2 SWAP1 PUSH2 0x42AE JUMP JUMPDEST PUSH2 0x113A JUMP JUMPDEST PUSH1 0x40 MLOAD PUSH2 0x3CA SWAP2 SWAP1 PUSH2 0x3D06 JUMP JUMPDEST PUSH1 0x40 MLOAD DUP1 SWAP2 SUB SWAP1 RETURN JUMPDEST CALLVALUE DUP1 ISZERO PUSH2 0x3DE JUMPI PUSH0 DUP1 REVERT JUMPDEST POP PUSH2 0x3F9 PUSH1 0x4 DUP1 CALLDATASIZE SUB DUP2 ADD SWAP1 PUSH2 0x3F4 SWAP2 SWAP1 PUSH2 0x4342 JUMP JUMPDEST PUSH2 0x1159 JUMP JUMPDEST PUSH1 0x40 MLOAD PUSH2 0x406 SWAP2 SWAP1 PUSH2 0x43BD JUMP JUMPDEST PUSH1 0x40 MLOAD DUP1 SWAP2 SUB SWAP1 RETURN JUMPDEST PUSH2 0x429 PUSH1 0x4 DUP1 CALLDATASIZE SUB DUP2 ADD SWAP1 PUSH2 0x424 SWAP2 SWAP1 PUSH2 0x442B JUMP JUMPDEST PUSH2 0x118B JUMP JUMPDEST PUSH1 0x40 MLOAD PUSH2 0x436 SWAP2 SWAP1 PUSH2 0x4579 JUMP JUMPDEST PUSH1 0x40 MLOAD DUP1 SWAP2 SUB SWAP1 RETURN JUMPDEST CALLVALUE DUP1 ISZERO PUSH2 0x44A JUMPI PUSH0 DUP1 REVERT JUMPDEST POP PUSH2 0x465 PUSH1 0x4 DUP1 CALLDATASIZE SUB DUP2 ADD SWAP1 PUSH2 0x460 SWAP2 SWAP1 PUSH2 0x4599 JUMP JUMPDEST PUSH2 0x134C JUMP JUMPDEST PUSH1 0x40 MLOAD PUSH2 0x472 SWAP2 SWAP1 PUSH2 0x3D06 JUMP JUMPDEST PUSH1 0x40 MLOAD DUP1 SWAP2 SUB SWAP1 RETURN JUMPDEST PUSH2 0x495 PUSH1 0x4 DUP1 CALLDATASIZE SUB DUP2 ADD SWAP1 PUSH2 0x490 SWAP2 SWAP1 PUSH2 0x45F6 JUMP JUMPDEST PUSH2 0x13AB JUMP JUMPDEST PUSH1 0x40 MLOAD PUSH2 0x4A2 SWAP2 SWAP1 PUSH2 0x428E JUMP JUMPDEST PUSH1 0x40 MLOAD DUP1 SWAP2 SUB SWAP1 RETURN JUMPDEST CALLVALUE DUP1 ISZERO PUSH2 0x4B6 JUMPI PUSH0 DUP1 REVERT JUMPDEST POP PUSH2 0x4D1 PUSH1 0x4 DUP1 CALLDATASIZE SUB DUP2 ADD SWAP1 PUSH2 0x4CC SWAP2 SWAP1 PUSH2 0x467A JUMP JUMPDEST PUSH2 0x1413 JUMP JUMPDEST PUSH1 0x40 MLOAD PUSH2 0x4DE SWAP2 SWAP1 PUSH2 0x3F43 JUMP JUMPDEST PUSH1 0x40 MLOAD DUP1 SWAP2 SUB SWAP1 RETURN JUMPDEST CALLVALUE DUP1 ISZERO PUSH2 0x4F2 JUMPI PUSH0 DUP1 REVERT JUMPDEST POP PUSH2 0x50D PUSH1 0x4 DUP1 CALLDATASIZE SUB DUP2 ADD SWAP1 PUSH2 0x508 SWAP2 SWAP1 PUSH2 0x46D7 JUMP JUMPDEST PUSH2 0x1483 JUMP JUMPDEST PUSH1 0x40 MLOAD PUSH2 0x51A SWAP2 SWAP1 PUSH2 0x3B7A JUMP JUMPDEST PUSH1 0x40 MLOAD DUP1 SWAP2 SUB SWAP1 RETURN JUMPDEST CALLVALUE DUP1 ISZERO PUSH2 0x52E JUMPI PUSH0 DUP1 REVERT JUMPDEST POP PUSH2 0x549 PUSH1 0x4 DUP1 CALLDATASIZE SUB DUP2 ADD SWAP1 PUSH2 0x544 SWAP2 SWAP1 PUSH2 0x4702 JUMP JUMPDEST PUSH2 0x14C1 JUMP JUMPDEST PUSH1 0x40 MLOAD PUSH2 0x556 SWAP2 SWAP1 PUSH2 0x43BD JUMP JUMPDEST PUSH1 0x40 MLOAD DUP1 SWAP2 SUB SWAP1 RETURN JUMPDEST CALLVALUE DUP1 ISZERO PUSH2 0x56A JUMPI PUSH0 DUP1 REVERT JUMPDEST POP PUSH2 0x585 PUSH1 0x4 DUP1 CALLDATASIZE SUB DUP2 ADD SWAP1 PUSH2 0x580 SWAP2 SWAP1 PUSH2 0x47CE JUMP JUMPDEST PUSH2 0x1867 JUMP JUMPDEST STOP JUMPDEST CALLVALUE DUP1 ISZERO PUSH2 0x592 JUMPI PUSH0 DUP1 REVERT JUMPDEST POP PUSH2 0x59B PUSH2 0x1B98 JUMP JUMPDEST PUSH1 0x40 MLOAD PUSH2 0x5A8 SWAP2 SWAP1 PUSH2 0x3D06 JUMP JUMPDEST PUSH1 0x40 MLOAD DUP1 SWAP2 SUB SWAP1 RETURN JUMPDEST CALLVALUE DUP1 ISZERO PUSH2 0x5BC JUMPI PUSH0 DUP1 REVERT JUMPDEST POP PUSH2 0x5C5 PUSH2 0x1BBF JUMP JUMPDEST PUSH1 0x40 MLOAD PUSH2 0x5D2 SWAP2 SWAP1 PUSH2 0x3D06 JUMP JUMPDEST PUSH1 0x40 MLOAD DUP1 SWAP2 SUB SWAP1 RETURN JUMPDEST CALLVALUE DUP1 ISZERO PUSH2 0x5E6 JUMPI PUSH0 DUP1 REVERT JUMPDEST POP PUSH2 0x5EF PUSH2 0x1BE4 JUMP JUMPDEST PUSH1 0x40 MLOAD PUSH2 0x5FC SWAP2 SWAP1 PUSH2 0x3B7A JUMP JUMPDEST PUSH1 0x40 MLOAD DUP1 SWAP2 SUB SWAP1 RETURN JUMPDEST CALLVALUE DUP1 ISZERO PUSH2 0x610 JUMPI PUSH0 DUP1 REVERT JUMPDEST POP PUSH2 0x619 PUSH2 0x1BEE JUMP JUMPDEST PUSH1 0x40 MLOAD PUSH2 0x626 SWAP2 SWAP1 PUSH2 0x48A7 JUMP JUMPDEST PUSH1 0x40 MLOAD DUP1 SWAP2 SUB SWAP1 RETURN JUMPDEST CALLVALUE DUP1 ISZERO PUSH2 0x63A JUMPI PUSH0 DUP1 REVERT JUMPDEST POP PUSH2 0x655 PUSH1 0x4 DUP1 CALLDATASIZE SUB DUP2 ADD SWAP1 PUSH2 0x650 SWAP2 SWAP1 PUSH2 0x48C0 JUMP JUMPDEST PUSH2 0x1C15 JUMP JUMPDEST PUSH1 0x40 MLOAD PUSH2 0x662 SWAP2 SWAP1 PUSH2 0x428E JUMP JUMPDEST PUSH1 0x40 MLOAD DUP1 SWAP2 SUB SWAP1 RETURN JUMPDEST CALLVALUE DUP1 ISZERO PUSH2 0x676 JUMPI PUSH0 DUP1 REVERT JUMPDEST POP PUSH2 0x691 PUSH1 0x4 DUP1 CALLDATASIZE SUB DUP2 ADD SWAP1 PUSH2 0x68C SWAP2 SWAP1 PUSH2 0x49F1 JUMP JUMPDEST PUSH2 0x1C77 JUMP JUMPDEST PUSH1 0x40 MLOAD PUSH2 0x69E SWAP2 SWAP1 PUSH2 0x3F43 JUMP JUMPDEST PUSH1 0x40 MLOAD DUP1 SWAP2 SUB SWAP1 RETURN JUMPDEST CALLVALUE DUP1 ISZERO PUSH2 0x6B2 JUMPI PUSH0 DUP1 REVERT JUMPDEST POP PUSH2 0x6BB PUSH2 0x1C93 JUMP JUMPDEST PUSH1 0x40 MLOAD PUSH2 0x6C8 SWAP2 SWAP1 PUSH2 0x43BD JUMP JUMPDEST PUSH1 0x40 MLOAD DUP1 SWAP2 SUB SWAP1 RETURN JUMPDEST CALLVALUE DUP1 ISZERO PUSH2 0x6DC JUMPI PUSH0 DUP1 REVERT JUMPDEST POP PUSH2 0x6E5 PUSH2 0x1C9C JUMP JUMPDEST PUSH1 0x40 MLOAD PUSH2 0x6F2 SWAP2 SWAP1 PUSH2 0x43BD JUMP JUMPDEST PUSH1 0x40 MLOAD DUP1 SWAP2 SUB SWAP1 RETURN JUMPDEST CALLVALUE DUP1 ISZERO PUSH2 0x706 JUMPI PUSH0 DUP1 REVERT JUMPDEST POP PUSH2 0x70F PUSH2 0x1CA1 JUMP JUMPDEST PUSH1 0x40 MLOAD PUSH2 0x71C SWAP2 SWAP1 PUSH2 0x43BD JUMP JUMPDEST PUSH1 0x40 MLOAD DUP1 SWAP2 SUB SWAP1 RETURN JUMPDEST CALLVALUE DUP1 ISZERO PUSH2 0x730 JUMPI PUSH0 DUP1 REVERT JUMPDEST POP PUSH2 0x74B PUSH1 0x4 DUP1 CALLDATASIZE SUB DUP2 ADD SWAP1 PUSH2 0x746 SWAP2 SWAP1 PUSH2 0x4ABC JUMP JUMPDEST PUSH2 0x1D28 JUMP JUMPDEST STOP JUMPDEST CALLVALUE DUP1 ISZERO PUSH2 0x758 JUMPI PUSH0 DUP1 REVERT JUMPDEST POP PUSH2 0x773 PUSH1 0x4 DUP1 CALLDATASIZE SUB DUP2 ADD SWAP1 PUSH2 0x76E SWAP2 SWAP1 PUSH2 0x4AE7 JUMP JUMPDEST PUSH2 0x1EA6 JUMP JUMPDEST PUSH1 0x40 MLOAD PUSH2 0x780 SWAP2 SWAP1 PUSH2 0x3D06 JUMP JUMPDEST PUSH1 0x40 MLOAD DUP1 SWAP2 SUB SWAP1 RETURN JUMPDEST CALLVALUE DUP1 ISZERO PUSH2 0x794 JUMPI PUSH0 DUP1 REVERT JUMPDEST POP PUSH2 0x7AF PUSH1 0x4 DUP1 CALLDATASIZE SUB DUP2 ADD SWAP1 PUSH2 0x7AA SWAP2 SWAP1 PUSH2 0x4B25 JUMP JUMPDEST PUSH2 0x1EE3 JUMP JUMPDEST PUSH1 0x40 MLOAD PUSH2 0x7BC SWAP2 SWAP1 PUSH2 0x3F43 JUMP JUMPDEST PUSH1 0x40 MLOAD DUP1 SWAP2 SUB SWAP1 RETURN JUMPDEST CALLVALUE DUP1 ISZERO PUSH2 0x7D0 JUMPI PUSH0 DUP1 REVERT JUMPDEST POP PUSH2 0x7D9 PUSH2 0x1EFF JUMP JUMPDEST PUSH1 0x40 MLOAD PUSH2 0x7E8 SWAP4 SWAP3 SWAP2 SWAP1 PUSH2 0x4BB8 JUMP JUMPDEST PUSH1 0x40 MLOAD DUP1 SWAP2 SUB SWAP1 RETURN JUMPDEST PUSH0 DUP1 PUSH0 PUSH2 0x7FC PUSH2 0x1F15 JUMP JUMPDEST SWAP3 POP SWAP3 POP SWAP3 POP PUSH0 PUSH2 0x80E DUP5 DUP5 DUP5 PUSH2 0x1F2C JUMP JUMPDEST SWAP1 POP PUSH0 PUSH1 0x1 PUSH0 DUP4 PUSH20 0xFFFFFFFFFFFFFFFFFFFFFFFFFFFFFFFFFFFFFFFF AND PUSH20 0xFFFFFFFFFFFFFFFFFFFFFFFFFFFFFFFFFFFFFFFF AND DUP2 MSTORE PUSH1 0x20 ADD SWAP1 DUP2 MSTORE PUSH1 0x20 ADD PUSH0 KECCAK256 PUSH0 DUP1 CALLDATALOAD PUSH32 0xFFFFFFFF00000000000000000000000000000000000000000000000000000000 AND PUSH28 0xFFFFFFFFFFFFFFFFFFFFFFFFFFFFFFFFFFFFFFFFFFFFFFFFFFFFFFFF NOT AND PUSH28 0xFFFFFFFFFFFFFFFFFFFFFFFFFFFFFFFFFFFFFFFFFFFFFFFFFFFFFFFF NOT AND DUP2 MSTORE PUSH1 0x20 ADD SWAP1 DUP2 MSTORE PUSH1 0x20 ADD PUSH0 KECCAK256 PUSH0 SWAP1 SLOAD SWAP1 PUSH2 0x100 EXP SWAP1 DIV PUSH20 0xFFFFFFFFFFFFFFFFFFFFFFFFFFFFFFFFFFFFFFFF AND SWAP1 POP PUSH0 PUSH20 0xFFFFFFFFFFFFFFFFFFFFFFFFFFFFFFFFFFFFFFFF AND DUP2 PUSH20 0xFFFFFFFFFFFFFFFFFFFFFFFFFFFFFFFFFFFFFFFF AND EQ PUSH2 0x9C3 JUMPI PUSH0 PUSH2 0x91D ADDRESS PUSH2 0x1F51 JUMP JUMPDEST SWAP1 POP PUSH0 DUP1 DUP3 PUSH20 0xFFFFFFFFFFFFFFFFFFFFFFFFFFFFFFFFFFFFFFFF AND DUP5 PUSH0 CALLDATASIZE CALLER PUSH1 0x40 MLOAD PUSH1 0x20 ADD PUSH2 0x94F SWAP5 SWAP4 SWAP3 SWAP2 SWAP1 PUSH2 0x4C60 JUMP JUMPDEST PUSH1 0x40 MLOAD PUSH1 0x20 DUP2 DUP4 SUB SUB DUP2 MSTORE SWAP1 PUSH1 0x40 MSTORE PUSH1 0x40 MLOAD PUSH2 0x96B SWAP2 SWAP1 PUSH2 0x4CCA JUMP JUMPDEST PUSH0 PUSH1 0x40 MLOAD DUP1 DUP4 SUB DUP2 PUSH0 DUP7 GAS CALL SWAP2 POP POP RETURNDATASIZE DUP1 PUSH0 DUP2 EQ PUSH2 0x9A4 JUMPI PUSH1 0x40 MLOAD SWAP2 POP PUSH1 0x1F NOT PUSH1 0x3F RETURNDATASIZE ADD AND DUP3 ADD PUSH1 0x40 MSTORE RETURNDATASIZE DUP3 MSTORE RETURNDATASIZE PUSH0 PUSH1 0x20 DUP5 ADD RETURNDATACOPY PUSH2 0x9A9 JUMP JUMPDEST PUSH1 0x60 SWAP2 POP JUMPDEST POP SWAP2 POP SWAP2 POP DUP2 PUSH2 0x9BB JUMPI DUP1 MLOAD PUSH1 0x20 DUP3 ADD REVERT JUMPDEST DUP1 MLOAD PUSH1 0x20 DUP3 ADD RETURN JUMPDEST POP POP POP POP POP JUMP JUMPDEST PUSH0 DUP1 PUSH2 0x9D5 DUP4 PUSH2 0x1F92 JUMP JUMPDEST SWAP1 POP DUP1 ISZERO PUSH2 0x9E7 JUMPI PUSH1 0x1 SWAP2 POP POP PUSH2 0x9F4 JUMP JUMPDEST PUSH2 0x9EF PUSH2 0x200B JUMP JUMPDEST PUSH0 SWAP2 POP POP JUMPDEST SWAP2 SWAP1 POP JUMP JUMPDEST PUSH0 DUP1 PUSH0 PUSH2 0xA04 PUSH2 0x1F15 JUMP JUMPDEST SWAP3 POP SWAP3 POP SWAP3 POP PUSH0 PUSH2 0xA16 DUP5 DUP5 DUP5 PUSH2 0x1F2C JUMP JUMPDEST SWAP1 POP PUSH0 PUSH20 0xFFFFFFFFFFFFFFFFFFFFFFFFFFFFFFFFFFFFFFFF AND DUP2 PUSH20 0xFFFFFFFFFFFFFFFFFFFFFFFFFFFFFFFFFFFFFFFF AND SUB PUSH2 0xA7D JUMPI PUSH1 0x40 MLOAD PUSH32 0xEA8E4EB500000000000000000000000000000000000000000000000000000000 DUP2 MSTORE PUSH1 0x4 ADD PUSH1 0x40 MLOAD DUP1 SWAP2 SUB SWAP1 REVERT JUMPDEST DUP1 PUSH20 0xFFFFFFFFFFFFFFFFFFFFFFFFFFFFFFFFFFFFFFFF AND CALLER PUSH20 0xFFFFFFFFFFFFFFFFFFFFFFFFFFFFFFFFFFFFFFFF AND EQ PUSH2 0xAE2 JUMPI PUSH1 0x40 MLOAD PUSH32 0xEA8E4EB500000000000000000000000000000000000000000000000000000000 DUP2 MSTORE PUSH1 0x4 ADD PUSH1 0x40 MLOAD DUP1 SWAP2 SUB SWAP1 REVERT JUMPDEST PUSH2 0xAEA PUSH2 0x21B4 JUMP JUMPDEST PUSH0 DUP9 DUP9 SWAP1 POP SWAP1 POP DUP1 DUP8 DUP8 SWAP1 POP EQ PUSH2 0xB2D JUMPI PUSH1 0x40 MLOAD PUSH32 0xB4FA3FB300000000000000000000000000000000000000000000000000000000 DUP2 MSTORE PUSH1 0x4 ADD PUSH1 0x40 MLOAD DUP1 SWAP2 SUB SWAP1 REVERT JUMPDEST PUSH0 JUMPDEST DUP2 DUP2 LT ISZERO PUSH2 0xCB0 JUMPI DUP8 DUP8 DUP3 DUP2 DUP2 LT PUSH2 0xB4A JUMPI PUSH2 0xB49 PUSH2 0x4CE0 JUMP JUMPDEST JUMPDEST SWAP1 POP PUSH1 0x20 MUL ADD PUSH1 0x20 DUP2 ADD SWAP1 PUSH2 0xB5F SWAP2 SWAP1 PUSH2 0x4D37 JUMP JUMPDEST PUSH1 0x2 PUSH0 DUP6 PUSH20 0xFFFFFFFFFFFFFFFFFFFFFFFFFFFFFFFFFFFFFFFF AND PUSH20 0xFFFFFFFFFFFFFFFFFFFFFFFFFFFFFFFFFFFFFFFF AND DUP2 MSTORE PUSH1 0x20 ADD SWAP1 DUP2 MSTORE PUSH1 0x20 ADD PUSH0 KECCAK256 PUSH0 DUP13 DUP13 DUP6 DUP2 DUP2 LT PUSH2 0xBB0 JUMPI PUSH2 0xBAF PUSH2 0x4CE0 JUMP JUMPDEST JUMPDEST SWAP1 POP PUSH1 0x20 MUL ADD PUSH1 0x20 DUP2 ADD SWAP1 PUSH2 0xBC5 SWAP2 SWAP1 PUSH2 0x46D7 JUMP JUMPDEST PUSH20 0xFFFFFFFFFFFFFFFFFFFFFFFFFFFFFFFFFFFFFFFF AND PUSH20 0xFFFFFFFFFFFFFFFFFFFFFFFFFFFFFFFFFFFFFFFF AND DUP2 MSTORE PUSH1 0x20 ADD SWAP1 DUP2 MSTORE PUSH1 0x20 ADD PUSH0 KECCAK256 PUSH0 PUSH2 0x100 EXP DUP2 SLOAD DUP2 PUSH1 0xFF MUL NOT AND SWAP1 DUP4 ISZERO ISZERO MUL OR SWAP1 SSTORE POP PUSH32 0x394777A58092892D136A90C4BB7E4350C72AC50FBA6A0208128677F36527DCF5 DUP4 DUP12 DUP12 DUP5 DUP2 DUP2 LT PUSH2 0xC49 JUMPI PUSH2 0xC48 PUSH2 0x4CE0 JUMP JUMPDEST JUMPDEST SWAP1 POP PUSH1 0x20 MUL ADD PUSH1 0x20 DUP2 ADD SWAP1 PUSH2 0xC5E SWAP2 SWAP1 PUSH2 0x46D7 JUMP JUMPDEST DUP11 DUP11 DUP6 DUP2 DUP2 LT PUSH2 0xC71 JUMPI PUSH2 0xC70 PUSH2 0x4CE0 JUMP JUMPDEST JUMPDEST SWAP1 POP PUSH1 0x20 MUL ADD PUSH1 0x20 DUP2 ADD SWAP1 PUSH2 0xC86 SWAP2 SWAP1 PUSH2 0x4D37 JUMP JUMPDEST PUSH1 0x40 MLOAD PUSH2 0xC95 SWAP4 SWAP3 SWAP2 SWAP1 PUSH2 0x4D62 JUMP JUMPDEST PUSH1 0x40 MLOAD DUP1 SWAP2 SUB SWAP1 LOG1 DUP1 DUP1 PUSH2 0xCA8 SWAP1 PUSH2 0x4DC4 JUMP JUMPDEST SWAP2 POP POP PUSH2 0xB2F JUMP JUMPDEST POP POP POP POP POP POP POP POP POP POP JUMP JUMPDEST PUSH32 0x0 DUP2 JUMP JUMPDEST PUSH0 DUP1 PUSH0 DUP1 PUSH2 0xCEC PUSH2 0x1F15 JUMP JUMPDEST SWAP3 POP SWAP3 POP SWAP3 POP DUP2 PUSH20 0xFFFFFFFFFFFFFFFFFFFFFFFFFFFFFFFFFFFFFFFF AND CALLER PUSH20 0xFFFFFFFFFFFFFFFFFFFFFFFFFFFFFFFFFFFFFFFF AND EQ DUP1 ISZERO PUSH2 0xD2C JUMPI POP DUP1 DUP7 EQ JUMPDEST DUP1 ISZERO PUSH2 0xD37 JUMPI POP CHAINID DUP4 EQ JUMPDEST ISZERO PUSH2 0xD6E JUMPI PUSH1 0x40 MLOAD PUSH32 0xB79E3F3F00000000000000000000000000000000000000000000000000000000 DUP2 MSTORE PUSH1 0x4 ADD PUSH1 0x40 MLOAD DUP1 SWAP2 SUB SWAP1 REVERT JUMPDEST PUSH2 0xD76 PUSH2 0x7F1 JUMP JUMPDEST PUSH4 0x150B7A02 PUSH1 0xE0 SHL SWAP4 POP POP POP POP SWAP5 SWAP4 POP POP POP POP JUMP JUMPDEST PUSH0 PUSH2 0xD97 DUP5 DUP5 DUP5 PUSH2 0x21FD JUMP JUMPDEST ISZERO PUSH2 0xDAB JUMPI PUSH4 0x1626BA7E PUSH1 0xE0 SHL SWAP1 POP PUSH2 0xDB2 JUMP JUMPDEST PUSH0 PUSH1 0xE0 SHL SWAP1 POP JUMPDEST SWAP4 SWAP3 POP POP POP JUMP JUMPDEST PUSH0 DUP2 SLOAD SWAP1 POP SWAP2 SWAP1 POP JUMP JUMPDEST PUSH1 0x2 PUSH1 0x20 MSTORE DUP2 PUSH0 MSTORE PUSH1 0x40 PUSH0 KECCAK256 PUSH1 0x20 MSTORE DUP1 PUSH0 MSTORE PUSH1 0x40 PUSH0 KECCAK256 PUSH0 SWAP2 POP SWAP2 POP SWAP1 SLOAD SWAP1 PUSH2 0x100 EXP SWAP1 DIV PUSH1 0xFF AND DUP2 JUMP JUMPDEST PUSH1 0x60 PUSH0 DUP4 DUP4 SWAP1 POP SWAP1 POP PUSH0 PUSH2 0xDFF PUSH2 0x23EB JUMP JUMPDEST SWAP1 POP CALLDATASIZE PUSH0 JUMPDEST DUP4 DUP2 LT ISZERO PUSH2 0x10D5 JUMPI DUP7 DUP7 DUP3 DUP2 DUP2 LT PUSH2 0xE1F JUMPI PUSH2 0xE1E PUSH2 0x4CE0 JUMP JUMPDEST JUMPDEST SWAP1 POP PUSH1 0x60 MUL ADD SWAP2 POP PUSH0 DUP3 PUSH1 0x20 ADD PUSH1 0x20 DUP2 ADD SWAP1 PUSH2 0xE3B SWAP2 SWAP1 PUSH2 0x46D7 JUMP JUMPDEST SWAP1 POP PUSH0 DUP4 PUSH1 0x40 ADD CALLDATALOAD SWAP1 POP PUSH0 PUSH2 0xE97 PUSH32 0x0 PUSH32 0x0 DUP8 PUSH0 ADD CALLDATALOAD CHAINID DUP8 DUP8 PUSH2 0x23F9 JUMP JUMPDEST SWAP1 POP PUSH0 DUP4 PUSH20 0xFFFFFFFFFFFFFFFFFFFFFFFFFFFFFFFFFFFFFFFF AND EXTCODESIZE SUB PUSH2 0xEE9 JUMPI PUSH1 0x40 MLOAD PUSH32 0x414B749400000000000000000000000000000000000000000000000000000000 DUP2 MSTORE PUSH1 0x4 ADD PUSH1 0x40 MLOAD DUP1 SWAP2 SUB SWAP1 REVERT JUMPDEST PUSH0 DUP2 PUSH20 0xFFFFFFFFFFFFFFFFFFFFFFFFFFFFFFFFFFFFFFFF AND EXTCODESIZE GT ISZERO PUSH2 0xFAD JUMPI DUP1 PUSH20 0xFFFFFFFFFFFFFFFFFFFFFFFFFFFFFFFFFFFFFFFF AND PUSH4 0xA4E2D634 PUSH1 0x40 MLOAD DUP2 PUSH4 0xFFFFFFFF AND PUSH1 0xE0 SHL DUP2 MSTORE PUSH1 0x4 ADD PUSH1 0x20 PUSH1 0x40 MLOAD DUP1 DUP4 SUB DUP2 DUP7 GAS STATICCALL ISZERO DUP1 ISZERO PUSH2 0xF51 JUMPI RETURNDATASIZE PUSH0 DUP1 RETURNDATACOPY RETURNDATASIZE PUSH0 REVERT JUMPDEST POP POP POP POP PUSH1 0x40 MLOAD RETURNDATASIZE PUSH1 0x1F NOT PUSH1 0x1F DUP3 ADD AND DUP3 ADD DUP1 PUSH1 0x40 MSTORE POP DUP2 ADD SWAP1 PUSH2 0xF75 SWAP2 SWAP1 PUSH2 0x4E1F JUMP JUMPDEST ISZERO PUSH2 0xFAC JUMPI PUSH1 0x40 MLOAD PUSH32 0x6315BFBB00000000000000000000000000000000000000000000000000000000 DUP2 MSTORE PUSH1 0x4 ADD PUSH1 0x40 MLOAD DUP1 SWAP2 SUB SWAP1 REVERT JUMPDEST JUMPDEST DUP3 PUSH20 0xFFFFFFFFFFFFFFFFFFFFFFFFFFFFFFFFFFFFFFFF AND PUSH4 0x6352211E DUP4 PUSH1 0x40 MLOAD DUP3 PUSH4 0xFFFFFFFF AND PUSH1 0xE0 SHL DUP2 MSTORE PUSH1 0x4 ADD PUSH2 0xFE6 SWAP2 SWAP1 PUSH2 0x43BD JUMP JUMPDEST PUSH1 0x20 PUSH1 0x40 MLOAD DUP1 DUP4 SUB DUP2 DUP7 GAS STATICCALL SWAP3 POP POP POP DUP1 ISZERO PUSH2 0x1020 JUMPI POP PUSH1 0x40 MLOAD RETURNDATASIZE PUSH1 0x1F NOT PUSH1 0x1F DUP3 ADD AND DUP3 ADD DUP1 PUSH1 0x40 MSTORE POP DUP2 ADD SWAP1 PUSH2 0x101D SWAP2 SWAP1 PUSH2 0x4E5E JUMP JUMPDEST PUSH1 0x1 JUMPDEST PUSH2 0x1056 JUMPI PUSH1 0x40 MLOAD PUSH32 0x414B749400000000000000000000000000000000000000000000000000000000 DUP2 MSTORE PUSH1 0x4 ADD PUSH1 0x40 MLOAD DUP1 SWAP2 SUB SWAP1 REVERT JUMPDEST DUP7 PUSH20 0xFFFFFFFFFFFFFFFFFFFFFFFFFFFFFFFFFFFFFFFF AND DUP2 PUSH20 0xFFFFFFFFFFFFFFFFFFFFFFFFFFFFFFFFFFFFFFFF AND EQ PUSH2 0x10BB JUMPI PUSH1 0x40 MLOAD PUSH32 0x414B749400000000000000000000000000000000000000000000000000000000 DUP2 MSTORE PUSH1 0x4 ADD PUSH1 0x40 MLOAD DUP1 SWAP2 SUB SWAP1 REVERT JUMPDEST DUP2 SWAP7 POP POP POP POP POP DUP1 DUP1 PUSH2 0x10CD SWAP1 PUSH2 0x4DC4 JUMP JUMPDEST SWAP2 POP POP PUSH2 0xE04 JUMP JUMPDEST POP PUSH2 0x10DF DUP3 PUSH2 0x2429 JUMP JUMPDEST PUSH2 0x1115 JUMPI PUSH1 0x40 MLOAD PUSH32 0xEA8E4EB500000000000000000000000000000000000000000000000000000000 DUP2 MSTORE PUSH1 0x4 ADD PUSH1 0x40 MLOAD DUP1 SWAP2 SUB SWAP1 REVERT JUMPDEST PUSH2 0x111D PUSH2 0x2646 JUMP JUMPDEST PUSH2 0x112A DUP12 DUP12 DUP12 DUP12 DUP12 PUSH2 0x268F JUMP JUMPDEST SWAP4 POP POP POP POP SWAP8 SWAP7 POP POP POP POP POP POP POP JUMP JUMPDEST PUSH0 PUSH2 0x1143 PUSH2 0x28A4 JUMP JUMPDEST PUSH2 0x114F DUP6 DUP6 DUP6 DUP6 PUSH2 0x2913 JUMP JUMPDEST SWAP1 POP SWAP5 SWAP4 POP POP POP POP JUMP JUMPDEST PUSH0 PUSH2 0x1162 PUSH2 0x29D4 JUMP JUMPDEST PUSH2 0x116C DUP5 DUP5 PUSH2 0x2A4B JUMP JUMPDEST SWAP1 POP PUSH2 0x117B DUP5 PUSH1 0x20 ADD CALLDATALOAD PUSH2 0x2A87 JUMP JUMPDEST PUSH2 0x1184 DUP3 PUSH2 0x2A8A JUMP JUMPDEST SWAP4 SWAP3 POP POP POP JUMP JUMPDEST PUSH1 0x60 PUSH2 0x119D PUSH2 0x1198 PUSH2 0x23EB JUMP JUMPDEST PUSH2 0x2429 JUMP JUMPDEST PUSH2 0x11D3 JUMPI PUSH1 0x40 MLOAD PUSH32 0xEA8E4EB500000000000000000000000000000000000000000000000000000000 DUP2 MSTORE PUSH1 0x4 ADD PUSH1 0x40 MLOAD DUP1 SWAP2 SUB SWAP1 REVERT JUMPDEST PUSH2 0x11DB PUSH2 0x2646 JUMP JUMPDEST PUSH0 DUP4 DUP4 SWAP1 POP SWAP1 POP PUSH0 DUP2 PUSH8 0xFFFFFFFFFFFFFFFF DUP2 GT ISZERO PUSH2 0x11FD JUMPI PUSH2 0x11FC PUSH2 0x3D90 JUMP JUMPDEST JUMPDEST PUSH1 0x40 MLOAD SWAP1 DUP1 DUP3 MSTORE DUP1 PUSH1 0x20 MUL PUSH1 0x20 ADD DUP3 ADD PUSH1 0x40 MSTORE DUP1 ISZERO PUSH2 0x1230 JUMPI DUP2 PUSH1 0x20 ADD JUMPDEST PUSH1 0x60 DUP2 MSTORE PUSH1 0x20 ADD SWAP1 PUSH1 0x1 SWAP1 SUB SWAP1 DUP2 PUSH2 0x121B JUMPI SWAP1 POP JUMPDEST POP SWAP1 POP PUSH0 JUMPDEST DUP3 DUP2 LT ISZERO PUSH2 0x1340 JUMPI PUSH2 0x130F DUP7 DUP7 DUP4 DUP2 DUP2 LT PUSH2 0x1253 JUMPI PUSH2 0x1252 PUSH2 0x4CE0 JUMP JUMPDEST JUMPDEST SWAP1 POP PUSH1 0x20 MUL DUP2 ADD SWAP1 PUSH2 0x1265 SWAP2 SWAP1 PUSH2 0x4E95 JUMP JUMPDEST PUSH0 ADD PUSH1 0x20 DUP2 ADD SWAP1 PUSH2 0x1276 SWAP2 SWAP1 PUSH2 0x46D7 JUMP JUMPDEST DUP8 DUP8 DUP5 DUP2 DUP2 LT PUSH2 0x1289 JUMPI PUSH2 0x1288 PUSH2 0x4CE0 JUMP JUMPDEST JUMPDEST SWAP1 POP PUSH1 0x20 MUL DUP2 ADD SWAP1 PUSH2 0x129B SWAP2 SWAP1 PUSH2 0x4E95 JUMP JUMPDEST PUSH1 0x20 ADD CALLDATALOAD DUP9 DUP9 DUP6 DUP2 DUP2 LT PUSH2 0x12B2 JUMPI PUSH2 0x12B1 PUSH2 0x4CE0 JUMP JUMPDEST JUMPDEST SWAP1 POP PUSH1 0x20 MUL DUP2 ADD SWAP1 PUSH2 0x12C4 SWAP2 SWAP1 PUSH2 0x4E95 JUMP JUMPDEST DUP1 PUSH1 0x40 ADD SWAP1 PUSH2 0x12D3 SWAP2 SWAP1 PUSH2 0x4EBC JUMP JUMPDEST DUP11 DUP11 DUP8 DUP2 DUP2 LT PUSH2 0x12E6 JUMPI PUSH2 0x12E5 PUSH2 0x4CE0 JUMP JUMPDEST JUMPDEST SWAP1 POP PUSH1 0x20 MUL DUP2 ADD SWAP1 PUSH2 0x12F8 SWAP2 SWAP1 PUSH2 0x4E95 JUMP JUMPDEST PUSH1 0x60 ADD PUSH1 0x20 DUP2 ADD SWAP1 PUSH2 0x130A SWAP2 SWAP1 PUSH2 0x4F1E JUMP JUMPDEST PUSH2 0x268F JUMP JUMPDEST DUP3 DUP3 DUP2 MLOAD DUP2 LT PUSH2 0x1322 JUMPI PUSH2 0x1321 PUSH2 0x4CE0 JUMP JUMPDEST JUMPDEST PUSH1 0x20 MUL PUSH1 0x20 ADD ADD DUP2 SWAP1 MSTORE POP DUP1 DUP1 PUSH2 0x1338 SWAP1 PUSH2 0x4DC4 JUMP JUMPDEST SWAP2 POP POP PUSH2 0x1235 JUMP JUMPDEST POP DUP1 SWAP3 POP POP POP SWAP3 SWAP2 POP POP JUMP JUMPDEST PUSH0 PUSH2 0x1355 PUSH2 0x28A4 JUMP JUMPDEST PUSH2 0x13A2 DUP5 DUP5 DUP5 DUP1 DUP1 PUSH1 0x1F ADD PUSH1 0x20 DUP1 SWAP2 DIV MUL PUSH1 0x20 ADD PUSH1 0x40 MLOAD SWAP1 DUP2 ADD PUSH1 0x40 MSTORE DUP1 SWAP4 SWAP3 SWAP2 SWAP1 DUP2 DUP2 MSTORE PUSH1 0x20 ADD DUP4 DUP4 DUP1 DUP3 DUP5 CALLDATACOPY PUSH0 DUP2 DUP5 ADD MSTORE PUSH1 0x1F NOT PUSH1 0x1F DUP3 ADD AND SWAP1 POP DUP1 DUP4 ADD SWAP3 POP POP POP POP POP POP POP PUSH2 0x2B21 JUMP JUMPDEST SWAP1 POP SWAP4 SWAP3 POP POP POP JUMP JUMPDEST PUSH1 0x60 PUSH2 0x13BD PUSH2 0x13B8 PUSH2 0x23EB JUMP JUMPDEST PUSH2 0x2429 JUMP JUMPDEST PUSH2 0x13F3 JUMPI PUSH1 0x40 MLOAD PUSH32 0xEA8E4EB500000000000000000000000000000000000000000000000000000000 DUP2 MSTORE PUSH1 0x4 ADD PUSH1 0x40 MLOAD DUP1 SWAP2 SUB SWAP1 REVERT JUMPDEST PUSH2 0x13FB PUSH2 0x2646 JUMP JUMPDEST PUSH2 0x1408 DUP7 DUP7 DUP7 DUP7 DUP7 PUSH2 0x268F JUMP JUMPDEST SWAP1 POP SWAP6 SWAP5 POP POP POP POP POP JUMP JUMPDEST PUSH0 PUSH2 0x1461 DUP5 DUP5 DUP5 DUP1 DUP1 PUSH1 0x1F ADD PUSH1 0x20 DUP1 SWAP2 DIV MUL PUSH1 0x20 ADD PUSH1 0x40 MLOAD SWAP1 DUP2 ADD PUSH1 0x40 MSTORE DUP1 SWAP4 SWAP3 SWAP2 SWAP1 DUP2 DUP2 MSTORE PUSH1 0x20 ADD DUP4 DUP4 DUP1 DUP3 DUP5 CALLDATACOPY PUSH0 DUP2 DUP5 ADD MSTORE PUSH1 0x1F NOT PUSH1 0x1F DUP3 ADD AND SWAP1 POP DUP1 DUP4 ADD SWAP3 POP POP POP POP POP POP POP PUSH2 0x2B9C JUMP JUMPDEST ISZERO PUSH2 0x1475 JUMPI PUSH4 0x523E3260 PUSH1 0xE0 SHL SWAP1 POP PUSH2 0x147C JUMP JUMPDEST PUSH0 PUSH1 0xE0 SHL SWAP1 POP JUMPDEST SWAP4 SWAP3 POP POP POP JUMP JUMPDEST PUSH0 PUSH2 0x148C PUSH2 0x1B98 JUMP JUMPDEST PUSH20 0xFFFFFFFFFFFFFFFFFFFFFFFFFFFFFFFFFFFFFFFF AND DUP3 PUSH20 0xFFFFFFFFFFFFFFFFFFFFFFFFFFFFFFFFFFFFFFFF AND EQ SWAP1 POP SWAP2 SWAP1 POP JUMP JUMPDEST PUSH0 PUSH20 0x4D2996E95CC316B174C0A14B590387A86521E981 PUSH20 0xFFFFFFFFFFFFFFFFFFFFFFFFFFFFFFFFFFFFFFFF AND CALLER PUSH20 0xFFFFFFFFFFFFFFFFFFFFFFFFFFFFFFFFFFFFFFFF AND EQ PUSH2 0x1544 JUMPI PUSH1 0x40 MLOAD PUSH32 0x8C379A000000000000000000000000000000000000000000000000000000000 DUP2 MSTORE PUSH1 0x4 ADD PUSH2 0x153B SWAP1 PUSH2 0x4FA3 JUMP JUMPDEST PUSH1 0x40 MLOAD DUP1 SWAP2 SUB SWAP1 REVERT JUMPDEST PUSH0 DUP7 SWAP1 POP PUSH0 PUSH20 0xE592427A0AECE92DE3EDEE1F18E0157C05861564 SWAP1 POP DUP6 DUP3 PUSH20 0xFFFFFFFFFFFFFFFFFFFFFFFFFFFFFFFFFFFFFFFF AND PUSH4 0x70A08231 ADDRESS PUSH1 0x40 MLOAD DUP3 PUSH4 0xFFFFFFFF AND PUSH1 0xE0 SHL DUP2 MSTORE PUSH1 0x4 ADD PUSH2 0x159A SWAP2 SWAP1 PUSH2 0x3D06 JUMP JUMPDEST PUSH1 0x20 PUSH1 0x40 MLOAD DUP1 DUP4 SUB DUP2 DUP7 GAS STATICCALL ISZERO DUP1 ISZERO PUSH2 0x15B5 JUMPI RETURNDATASIZE PUSH0 DUP1 RETURNDATACOPY RETURNDATASIZE PUSH0 REVERT JUMPDEST POP POP POP POP PUSH1 0x40 MLOAD RETURNDATASIZE PUSH1 0x1F NOT PUSH1 0x1F DUP3 ADD AND DUP3 ADD DUP1 PUSH1 0x40 MSTORE POP DUP2 ADD SWAP1 PUSH2 0x15D9 SWAP2 SWAP1 PUSH2 0x4FD5 JUMP JUMPDEST LT ISZERO PUSH2 0x161A JUMPI PUSH1 0x40 MLOAD PUSH32 0x8C379A000000000000000000000000000000000000000000000000000000000 DUP2 MSTORE PUSH1 0x4 ADD PUSH2 0x1611 SWAP1 PUSH2 0x504A JUMP JUMPDEST PUSH1 0x40 MLOAD DUP1 SWAP2 SUB SWAP1 REVERT JUMPDEST PUSH0 DUP5 DUP7 PUSH2 0x1627 SWAP2 SWAP1 PUSH2 0x5068 JUMP JUMPDEST SWAP1 POP PUSH0 PUSH2 0x1634 DUP9 DUP4 PUSH2 0x2C64 JUMP JUMPDEST SWAP1 POP DUP4 PUSH20 0xFFFFFFFFFFFFFFFFFFFFFFFFFFFFFFFFFFFFFFFF AND PUSH4 0x95EA7B3 DUP5 DUP11 PUSH1 0x40 MLOAD DUP4 PUSH4 0xFFFFFFFF AND PUSH1 0xE0 SHL DUP2 MSTORE PUSH1 0x4 ADD PUSH2 0x1671 SWAP3 SWAP2 SWAP1 PUSH2 0x509B JUMP JUMPDEST PUSH1 0x20 PUSH1 0x40 MLOAD DUP1 DUP4 SUB DUP2 PUSH0 DUP8 GAS CALL ISZERO DUP1 ISZERO PUSH2 0x168D JUMPI RETURNDATASIZE PUSH0 DUP1 RETURNDATACOPY RETURNDATASIZE PUSH0 REVERT JUMPDEST POP POP POP POP PUSH1 0x40 MLOAD RETURNDATASIZE PUSH1 0x1F NOT PUSH1 0x1F DUP3 ADD AND DUP3 ADD DUP1 PUSH1 0x40 MSTORE POP DUP2 ADD SWAP1 PUSH2 0x16B1 SWAP2 SWAP1 PUSH2 0x4E1F JUMP JUMPDEST POP DUP4 PUSH20 0xFFFFFFFFFFFFFFFFFFFFFFFFFFFFFFFFFFFFFFFF AND PUSH4 0xA9059CBB PUSH20 0x449F07DC7616C43B47DBE8CF57DC1F6E34EF82F8 DUP5 PUSH1 0x40 MLOAD DUP4 PUSH4 0xFFFFFFFF AND PUSH1 0xE0 SHL DUP2 MSTORE PUSH1 0x4 ADD PUSH2 0x1701 SWAP3 SWAP2 SWAP1 PUSH2 0x509B JUMP JUMPDEST PUSH1 0x20 PUSH1 0x40 MLOAD DUP1 DUP4 SUB DUP2 PUSH0 DUP8 GAS CALL ISZERO DUP1 ISZERO PUSH2 0x171D JUMPI RETURNDATASIZE PUSH0 DUP1 RETURNDATACOPY RETURNDATASIZE PUSH0 REVERT JUMPDEST POP POP POP POP PUSH1 0x40 MLOAD RETURNDATASIZE PUSH1 0x1F NOT PUSH1 0x1F DUP3 ADD AND DUP3 ADD DUP1 PUSH1 0x40 MSTORE POP DUP2 ADD SWAP1 PUSH2 0x1741 SWAP2 SWAP1 PUSH2 0x4E1F JUMP JUMPDEST POP PUSH0 PUSH1 0x40 MLOAD DUP1 PUSH2 0x100 ADD PUSH1 0x40 MSTORE DUP1 DUP13 PUSH20 0xFFFFFFFFFFFFFFFFFFFFFFFFFFFFFFFFFFFFFFFF AND DUP2 MSTORE PUSH1 0x20 ADD DUP12 PUSH20 0xFFFFFFFFFFFFFFFFFFFFFFFFFFFFFFFFFFFFFFFF AND DUP2 MSTORE PUSH1 0x20 ADD PUSH2 0xBB8 PUSH3 0xFFFFFF AND DUP2 MSTORE PUSH1 0x20 ADD ADDRESS PUSH20 0xFFFFFFFFFFFFFFFFFFFFFFFFFFFFFFFFFFFFFFFF AND DUP2 MSTORE PUSH1 0x20 ADD TIMESTAMP DUP2 MSTORE PUSH1 0x20 ADD DUP4 DUP2 MSTORE PUSH1 0x20 ADD PUSH0 DUP2 MSTORE PUSH1 0x20 ADD PUSH0 PUSH20 0xFFFFFFFFFFFFFFFFFFFFFFFFFFFFFFFFFFFFFFFF AND DUP2 MSTORE POP SWAP1 POP DUP4 PUSH20 0xFFFFFFFFFFFFFFFFFFFFFFFFFFFFFFFFFFFFFFFF AND PUSH4 0x414BF389 DUP3 PUSH1 0x40 MLOAD DUP3 PUSH4 0xFFFFFFFF AND PUSH1 0xE0 SHL DUP2 MSTORE PUSH1 0x4 ADD PUSH2 0x1817 SWAP2 SWAP1 PUSH2 0x51AC JUMP JUMPDEST PUSH1 0x20 PUSH1 0x40 MLOAD DUP1 DUP4 SUB DUP2 PUSH0 DUP8 GAS CALL ISZERO DUP1 ISZERO PUSH2 0x1833 JUMPI RETURNDATASIZE PUSH0 DUP1 RETURNDATACOPY RETURNDATASIZE PUSH0 REVERT JUMPDEST POP POP POP POP PUSH1 0x40 MLOAD RETURNDATASIZE PUSH1 0x1F NOT PUSH1 0x1F DUP3 ADD AND DUP3 ADD DUP1 PUSH1 0x40 MSTORE POP DUP2 ADD SWAP1 PUSH2 0x1857 SWAP2 SWAP1 PUSH2 0x4FD5 JUMP JUMPDEST SWAP6 POP POP POP POP POP POP SWAP6 SWAP5 POP POP POP POP POP JUMP JUMPDEST PUSH0 DUP1 PUSH0 PUSH2 0x1872 PUSH2 0x1F15 JUMP JUMPDEST SWAP3 POP SWAP3 POP SWAP3 POP PUSH0 PUSH2 0x1884 DUP5 DUP5 DUP5 PUSH2 0x1F2C JUMP JUMPDEST SWAP1 POP PUSH0 PUSH20 0xFFFFFFFFFFFFFFFFFFFFFFFFFFFFFFFFFFFFFFFF AND DUP2 PUSH20 0xFFFFFFFFFFFFFFFFFFFFFFFFFFFFFFFFFFFFFFFF AND SUB PUSH2 0x18EB JUMPI PUSH1 0x40 MLOAD PUSH32 0xEA8E4EB500000000000000000000000000000000000000000000000000000000 DUP2 MSTORE PUSH1 0x4 ADD PUSH1 0x40 MLOAD DUP1 SWAP2 SUB SWAP1 REVERT JUMPDEST DUP1 PUSH20 0xFFFFFFFFFFFFFFFFFFFFFFFFFFFFFFFFFFFFFFFF AND CALLER PUSH20 0xFFFFFFFFFFFFFFFFFFFFFFFFFFFFFFFFFFFFFFFF AND EQ PUSH2 0x1950 JUMPI PUSH1 0x40 MLOAD PUSH32 0xEA8E4EB500000000000000000000000000000000000000000000000000000000 DUP2 MSTORE PUSH1 0x4 ADD PUSH1 0x40 MLOAD DUP1 SWAP2 SUB SWAP1 REVERT JUMPDEST PUSH2 0x1958 PUSH2 0x2C79 JUMP JUMPDEST PUSH0 PUSH2 0x1962 ADDRESS PUSH2 0x1F51 JUMP JUMPDEST SWAP1 POP PUSH0 DUP2 PUSH20 0xFFFFFFFFFFFFFFFFFFFFFFFFFFFFFFFFFFFFFFFF AND EXTCODESIZE SUB PUSH2 0x198C JUMPI PUSH2 0x198B ADDRESS PUSH2 0x2CC2 JUMP JUMPDEST JUMPDEST PUSH0 DUP10 DUP10 SWAP1 POP SWAP1 POP DUP1 DUP9 DUP9 SWAP1 POP EQ PUSH2 0x19CF JUMPI PUSH1 0x40 MLOAD PUSH32 0xB4FA3FB300000000000000000000000000000000000000000000000000000000 DUP2 MSTORE PUSH1 0x4 ADD PUSH1 0x40 MLOAD DUP1 SWAP2 SUB SWAP1 REVERT JUMPDEST PUSH0 JUMPDEST DUP2 DUP2 LT ISZERO PUSH2 0x1B8B JUMPI DUP9 DUP9 DUP3 DUP2 DUP2 LT PUSH2 0x19EC JUMPI PUSH2 0x19EB PUSH2 0x4CE0 JUMP JUMPDEST JUMPDEST SWAP1 POP PUSH1 0x20 MUL ADD PUSH1 0x20 DUP2 ADD SWAP1 PUSH2 0x1A01 SWAP2 SWAP1 PUSH2 0x46D7 JUMP JUMPDEST PUSH1 0x1 PUSH0 DUP7 PUSH20 0xFFFFFFFFFFFFFFFFFFFFFFFFFFFFFFFFFFFFFFFF AND PUSH20 0xFFFFFFFFFFFFFFFFFFFFFFFFFFFFFFFFFFFFFFFF AND DUP2 MSTORE PUSH1 0x20 ADD SWAP1 DUP2 MSTORE PUSH1 0x20 ADD PUSH0 KECCAK256 PUSH0 DUP14 DUP14 DUP6 DUP2 DUP2 LT PUSH2 0x1A52 JUMPI PUSH2 0x1A51 PUSH2 0x4CE0 JUMP JUMPDEST JUMPDEST SWAP1 POP PUSH1 0x20 MUL ADD PUSH1 0x20 DUP2 ADD SWAP1 PUSH2 0x1A67 SWAP2 SWAP1 PUSH2 0x3B35 JUMP JUMPDEST PUSH28 0xFFFFFFFFFFFFFFFFFFFFFFFFFFFFFFFFFFFFFFFFFFFFFFFFFFFFFFFF NOT AND PUSH28 0xFFFFFFFFFFFFFFFFFFFFFFFFFFFFFFFFFFFFFFFFFFFFFFFFFFFFFFFF NOT AND DUP2 MSTORE PUSH1 0x20 ADD SWAP1 DUP2 MSTORE PUSH1 0x20 ADD PUSH0 KECCAK256 PUSH0 PUSH2 0x100 EXP DUP2 SLOAD DUP2 PUSH20 0xFFFFFFFFFFFFFFFFFFFFFFFFFFFFFFFFFFFFFFFF MUL NOT AND SWAP1 DUP4 PUSH20 0xFFFFFFFFFFFFFFFFFFFFFFFFFFFFFFFFFFFFFFFF AND MUL OR SWAP1 SSTORE POP PUSH32 0x2C722487E90ACA38EC1B074C3403210BD2BFB769B4DA7F12F7BF0B9E37517C18 DUP5 DUP13 DUP13 DUP5 DUP2 DUP2 LT PUSH2 0x1B24 JUMPI PUSH2 0x1B23 PUSH2 0x4CE0 JUMP JUMPDEST JUMPDEST SWAP1 POP PUSH1 0x20 MUL ADD PUSH1 0x20 DUP2 ADD SWAP1 PUSH2 0x1B39 SWAP2 SWAP1 PUSH2 0x3B35 JUMP JUMPDEST DUP12 DUP12 DUP6 DUP2 DUP2 LT PUSH2 0x1B4C JUMPI PUSH2 0x1B4B PUSH2 0x4CE0 JUMP JUMPDEST JUMPDEST SWAP1 POP PUSH1 0x20 MUL ADD PUSH1 0x20 DUP2 ADD SWAP1 PUSH2 0x1B61 SWAP2 SWAP1 PUSH2 0x46D7 JUMP JUMPDEST PUSH1 0x40 MLOAD PUSH2 0x1B70 SWAP4 SWAP3 SWAP2 SWAP1 PUSH2 0x51C6 JUMP JUMPDEST PUSH1 0x40 MLOAD DUP1 SWAP2 SUB SWAP1 LOG1 DUP1 DUP1 PUSH2 0x1B83 SWAP1 PUSH2 0x4DC4 JUMP JUMPDEST SWAP2 POP POP PUSH2 0x19D1 JUMP JUMPDEST POP POP POP POP POP POP POP POP POP POP POP JUMP JUMPDEST PUSH0 PUSH32 0x0 SWAP1 POP SWAP1 JUMP JUMPDEST PUSH0 DUP1 PUSH0 DUP1 PUSH2 0x1BCB PUSH2 0x1F15 JUMP JUMPDEST SWAP3 POP SWAP3 POP SWAP3 POP PUSH2 0x1BDC DUP4 DUP4 DUP4 PUSH2 0x2CF9 JUMP JUMPDEST SWAP4 POP POP POP POP SWAP1 JUMP JUMPDEST PUSH0 TIMESTAMP PUSH0 SLOAD GT SWAP1 POP SWAP1 JUMP JUMPDEST PUSH0 PUSH32 0x0 SWAP1 POP SWAP1 JUMP JUMPDEST PUSH1 0x60 PUSH2 0x1C1F PUSH2 0x28A4 JUMP JUMPDEST PUSH2 0x1C6D DUP6 DUP6 DUP6 DUP6 DUP1 DUP1 PUSH1 0x1F ADD PUSH1 0x20 DUP1 SWAP2 DIV MUL PUSH1 0x20 ADD PUSH1 0x40 MLOAD SWAP1 DUP2 ADD PUSH1 0x40 MSTORE DUP1 SWAP4 SWAP3 SWAP2 SWAP1 DUP2 DUP2 MSTORE PUSH1 0x20 ADD DUP4 DUP4 DUP1 DUP3 DUP5 CALLDATACOPY PUSH0 DUP2 DUP5 ADD MSTORE PUSH1 0x1F NOT PUSH1 0x1F DUP3 ADD AND SWAP1 POP DUP1 DUP4 ADD SWAP3 POP POP POP POP POP POP POP PUSH2 0x2DBA JUMP JUMPDEST SWAP1 POP SWAP5 SWAP4 POP POP POP POP JUMP JUMPDEST PUSH0 PUSH2 0x1C80 PUSH2 0x7F1 JUMP JUMPDEST PUSH4 0xBC197C81 PUSH1 0xE0 SHL SWAP1 POP SWAP6 SWAP5 POP POP POP POP POP JUMP JUMPDEST PUSH0 PUSH1 0x3 SLOAD SWAP1 POP SWAP1 JUMP JUMPDEST PUSH0 SLOAD DUP2 JUMP JUMPDEST PUSH0 PUSH2 0x1CAA PUSH2 0x1BEE JUMP JUMPDEST PUSH20 0xFFFFFFFFFFFFFFFFFFFFFFFFFFFFFFFFFFFFFFFF AND PUSH4 0x35567E1A ADDRESS PUSH0 PUSH1 0x40 MLOAD DUP4 PUSH4 0xFFFFFFFF AND PUSH1 0xE0 SHL DUP2 MSTORE PUSH1 0x4 ADD PUSH2 0x1CE4 SWAP3 SWAP2 SWAP1 PUSH2 0x5257 JUMP JUMPDEST PUSH1 0x20 PUSH1 0x40 MLOAD DUP1 DUP4 SUB DUP2 DUP7 GAS STATICCALL ISZERO DUP1 ISZERO PUSH2 0x1CFF JUMPI RETURNDATASIZE PUSH0 DUP1 RETURNDATACOPY RETURNDATASIZE PUSH0 REVERT JUMPDEST POP POP POP POP PUSH1 0x40 MLOAD RETURNDATASIZE PUSH1 0x1F NOT PUSH1 0x1F DUP3 ADD AND DUP3 ADD DUP1 PUSH1 0x40 MSTORE POP DUP2 ADD SWAP1 PUSH2 0x1D23 SWAP2 SWAP1 PUSH2 0x4FD5 JUMP JUMPDEST SWAP1 POP SWAP1 JUMP JUMPDEST PUSH0 DUP1 PUSH0 PUSH2 0x1D33 PUSH2 0x1F15 JUMP JUMPDEST SWAP3 POP SWAP3 POP SWAP3 POP PUSH0 PUSH2 0x1D45 DUP5 DUP5 DUP5 PUSH2 0x1F2C JUMP JUMPDEST SWAP1 POP PUSH0 PUSH20 0xFFFFFFFFFFFFFFFFFFFFFFFFFFFFFFFFFFFFFFFF AND DUP2 PUSH20 0xFFFFFFFFFFFFFFFFFFFFFFFFFFFFFFFFFFFFFFFF AND SUB PUSH2 0x1DAC JUMPI PUSH1 0x40 MLOAD PUSH32 0xEA8E4EB500000000000000000000000000000000000000000000000000000000 DUP2 MSTORE PUSH1 0x4 ADD PUSH1 0x40 MLOAD DUP1 SWAP2 SUB SWAP1 REVERT JUMPDEST DUP1 PUSH20 0xFFFFFFFFFFFFFFFFFFFFFFFFFFFFFFFFFFFFFFFF AND CALLER PUSH20 0xFFFFFFFFFFFFFFFFFFFFFFFFFFFFFFFFFFFFFFFF AND EQ PUSH2 0x1E11 JUMPI PUSH1 0x40 MLOAD PUSH32 0xEA8E4EB500000000000000000000000000000000000000000000000000000000 DUP2 MSTORE PUSH1 0x4 ADD PUSH1 0x40 MLOAD DUP1 SWAP2 SUB SWAP1 REVERT JUMPDEST PUSH4 0x1E13380 TIMESTAMP PUSH2 0x1E21 SWAP2 SWAP1 PUSH2 0x5068 JUMP JUMPDEST DUP6 GT ISZERO PUSH2 0x1E5A JUMPI PUSH1 0x40 MLOAD PUSH32 0xC0A7BE800000000000000000000000000000000000000000000000000000000 DUP2 MSTORE PUSH1 0x4 ADD PUSH1 0x40 MLOAD DUP1 SWAP2 SUB SWAP1 REVERT JUMPDEST PUSH2 0x1E62 PUSH2 0x2E40 JUMP JUMPDEST DUP5 PUSH0 DUP2 SWAP1 SSTORE POP PUSH32 0xA7B24C66DD3269A292A60B3FACDBB8F3E7557D1E19E64D99E0D6EE7250BE63AD DUP6 PUSH1 0x40 MLOAD PUSH2 0x1E97 SWAP2 SWAP1 PUSH2 0x43BD JUMP JUMPDEST PUSH1 0x40 MLOAD DUP1 SWAP2 SUB SWAP1 LOG1 POP POP POP POP POP JUMP JUMPDEST PUSH1 0x1 PUSH1 0x20 MSTORE DUP2 PUSH0 MSTORE PUSH1 0x40 PUSH0 KECCAK256 PUSH1 0x20 MSTORE DUP1 PUSH0 MSTORE PUSH1 0x40 PUSH0 KECCAK256 PUSH0 SWAP2 POP SWAP2 POP SWAP1 SLOAD SWAP1 PUSH2 0x100 EXP SWAP1 DIV PUSH20 0xFFFFFFFFFFFFFFFFFFFFFFFFFFFFFFFFFFFFFFFF AND DUP2 JUMP JUMPDEST PUSH0 PUSH2 0x1EEC PUSH2 0x7F1 JUMP JUMPDEST PUSH4 0xF23A6E61 PUSH1 0xE0 SHL SWAP1 POP SWAP6 SWAP5 POP POP POP POP POP JUMP JUMPDEST PUSH0 DUP1 PUSH0 PUSH2 0x1F0A PUSH2 0x1F15 JUMP JUMPDEST SWAP3 POP SWAP3 POP SWAP3 POP SWAP1 SWAP2 SWAP3 JUMP JUMPDEST PUSH0 DUP1 PUSH0 PUSH2 0x1F21 ADDRESS PUSH2 0x2E89 JUMP JUMPDEST SWAP3 POP SWAP3 POP SWAP3 POP SWAP1 SWAP2 SWAP3 JUMP JUMPDEST PUSH0 DUP1 PUSH2 0x1F39 DUP6 DUP6 DUP6 PUSH2 0x2CF9 JUMP JUMPDEST SWAP1 POP PUSH2 0x1F47 DUP2 DUP7 DUP7 DUP7 PUSH2 0x2F09 JUMP JUMPDEST SWAP2 POP POP SWAP4 SWAP3 POP POP POP JUMP JUMPDEST PUSH0 PUSH2 0x1F8B PUSH32 0x97F795A08410E77DC9DBBABA3915F17C601E45642518DD578BD440D8775BFEE4 PUSH2 0x1F7F DUP5 PUSH2 0x2FF6 JUMP JUMPDEST DUP1 MLOAD SWAP1 PUSH1 0x20 ADD KECCAK256 PUSH2 0x3070 JUMP JUMPDEST SWAP1 POP SWAP2 SWAP1 POP JUMP JUMPDEST PUSH0 PUSH32 0x5194544700000000000000000000000000000000000000000000000000000000 PUSH28 0xFFFFFFFFFFFFFFFFFFFFFFFFFFFFFFFFFFFFFFFFFFFFFFFFFFFFFFFF NOT AND DUP3 PUSH28 0xFFFFFFFFFFFFFFFFFFFFFFFFFFFFFFFFFFFFFFFFFFFFFFFFFFFFFFFF NOT AND EQ DUP1 PUSH2 0x2004 JUMPI POP PUSH2 0x2003 DUP3 PUSH2 0x3084 JUMP JUMPDEST JUMPDEST SWAP1 POP SWAP2 SWAP1 POP JUMP JUMPDEST PUSH0 DUP1 PUSH0 PUSH2 0x2016 PUSH2 0x1F15 JUMP JUMPDEST SWAP3 POP SWAP3 POP SWAP3 POP PUSH0 PUSH2 0x2028 DUP5 DUP5 DUP5 PUSH2 0x1F2C JUMP JUMPDEST SWAP1 POP PUSH0 PUSH1 0x1 PUSH0 DUP4 PUSH20 0xFFFFFFFFFFFFFFFFFFFFFFFFFFFFFFFFFFFFFFFF AND PUSH20 0xFFFFFFFFFFFFFFFFFFFFFFFFFFFFFFFFFFFFFFFF AND DUP2 MSTORE PUSH1 0x20 ADD SWAP1 DUP2 MSTORE PUSH1 0x20 ADD PUSH0 KECCAK256 PUSH0 DUP1 CALLDATALOAD PUSH32 0xFFFFFFFF00000000000000000000000000000000000000000000000000000000 AND PUSH28 0xFFFFFFFFFFFFFFFFFFFFFFFFFFFFFFFFFFFFFFFFFFFFFFFFFFFFFFFF NOT AND PUSH28 0xFFFFFFFFFFFFFFFFFFFFFFFFFFFFFFFFFFFFFFFFFFFFFFFFFFFFFFFF NOT AND DUP2 MSTORE PUSH1 0x20 ADD SWAP1 DUP2 MSTORE PUSH1 0x20 ADD PUSH0 KECCAK256 PUSH0 SWAP1 SLOAD SWAP1 PUSH2 0x100 EXP SWAP1 DIV PUSH20 0xFFFFFFFFFFFFFFFFFFFFFFFFFFFFFFFFFFFFFFFF AND SWAP1 POP PUSH0 PUSH20 0xFFFFFFFFFFFFFFFFFFFFFFFFFFFFFFFFFFFFFFFF AND DUP2 PUSH20 0xFFFFFFFFFFFFFFFFFFFFFFFFFFFFFFFFFFFFFFFF AND EQ PUSH2 0x21AD JUMPI PUSH0 DUP1 DUP3 PUSH20 0xFFFFFFFFFFFFFFFFFFFFFFFFFFFFFFFFFFFFFFFF AND PUSH0 CALLDATASIZE PUSH1 0x40 MLOAD PUSH2 0x2156 SWAP3 SWAP2 SWAP1 PUSH2 0x527E JUMP JUMPDEST PUSH0 PUSH1 0x40 MLOAD DUP1 DUP4 SUB DUP2 DUP6 GAS STATICCALL SWAP2 POP POP RETURNDATASIZE DUP1 PUSH0 DUP2 EQ PUSH2 0x218E JUMPI PUSH1 0x40 MLOAD SWAP2 POP PUSH1 0x1F NOT PUSH1 0x3F RETURNDATASIZE ADD AND DUP3 ADD PUSH1 0x40 MSTORE RETURNDATASIZE DUP3 MSTORE RETURNDATASIZE PUSH0 PUSH1 0x20 DUP5 ADD RETURNDATACOPY PUSH2 0x2193 JUMP JUMPDEST PUSH1 0x60 SWAP2 POP JUMPDEST POP SWAP2 POP SWAP2 POP DUP2 PUSH2 0x21A5 JUMPI DUP1 MLOAD PUSH1 0x20 DUP3 ADD REVERT JUMPDEST DUP1 MLOAD PUSH1 0x20 DUP3 ADD RETURN JUMPDEST POP POP POP POP POP JUMP JUMPDEST PUSH2 0x21BC PUSH2 0x1BE4 JUMP JUMPDEST ISZERO PUSH2 0x21F3 JUMPI PUSH1 0x40 MLOAD PUSH32 0x6315BFBB00000000000000000000000000000000000000000000000000000000 DUP2 MSTORE PUSH1 0x4 ADD PUSH1 0x40 MLOAD DUP1 SWAP2 SUB SWAP1 REVERT JUMPDEST PUSH2 0x21FB PUSH2 0x30FD JUMP JUMPDEST JUMP JUMPDEST PUSH0 DUP1 DUP4 DUP4 PUSH1 0x40 DUP2 DUP2 LT PUSH2 0x2213 JUMPI PUSH2 0x2212 PUSH2 0x4CE0 JUMP JUMPDEST JUMPDEST SWAP1 POP ADD CALLDATALOAD PUSH1 0xF8 SHR PUSH1 0xF8 SHL PUSH1 0xF8 SHR SWAP1 POP PUSH0 DUP1 DUP3 PUSH1 0xFF AND SUB PUSH2 0x2340 JUMPI DUP5 DUP5 PUSH0 SWAP1 PUSH1 0x20 SWAP3 PUSH2 0x2240 SWAP4 SWAP3 SWAP2 SWAP1 PUSH2 0x529E JUMP JUMPDEST SWAP1 PUSH2 0x224B SWAP2 SWAP1 PUSH2 0x52EE JUMP JUMPDEST PUSH0 SHR SWAP1 POP PUSH2 0x2267 DUP2 PUSH1 0x40 MLOAD DUP1 PUSH1 0x20 ADD PUSH1 0x40 MSTORE DUP1 PUSH0 DUP2 MSTORE POP PUSH2 0x2B9C JUMP JUMPDEST ISZERO DUP1 ISZERO PUSH2 0x22A0 JUMPI POP ADDRESS PUSH20 0xFFFFFFFFFFFFFFFFFFFFFFFFFFFFFFFFFFFFFFFF AND DUP2 PUSH20 0xFFFFFFFFFFFFFFFFFFFFFFFFFFFFFFFFFFFFFFFF AND EQ ISZERO JUMPDEST ISZERO PUSH2 0x22AF JUMPI PUSH0 SWAP3 POP POP POP PUSH2 0x23E4 JUMP JUMPDEST CALLDATASIZE PUSH0 DUP7 DUP7 DUP9 DUP9 PUSH1 0x20 SWAP1 PUSH1 0x40 SWAP3 PUSH2 0x22C7 SWAP4 SWAP3 SWAP2 SWAP1 PUSH2 0x529E JUMP JUMPDEST SWAP1 PUSH2 0x22D2 SWAP2 SWAP1 PUSH2 0x52EE JUMP JUMPDEST PUSH0 SHR SWAP1 DUP1 SWAP3 PUSH2 0x22E3 SWAP4 SWAP3 SWAP2 SWAP1 PUSH2 0x529E JUMP JUMPDEST SWAP2 POP SWAP2 POP PUSH2 0x2335 DUP4 DUP10 DUP5 DUP5 DUP1 DUP1 PUSH1 0x1F ADD PUSH1 0x20 DUP1 SWAP2 DIV MUL PUSH1 0x20 ADD PUSH1 0x40 MLOAD SWAP1 DUP2 ADD PUSH1 0x40 MSTORE DUP1 SWAP4 SWAP3 SWAP2 SWAP1 DUP2 DUP2 MSTORE PUSH1 0x20 ADD DUP4 DUP4 DUP1 DUP3 DUP5 CALLDATACOPY PUSH0 DUP2 DUP5 ADD MSTORE PUSH1 0x1F NOT PUSH1 0x1F DUP3 ADD AND SWAP1 POP DUP1 DUP4 ADD SWAP3 POP POP POP POP POP POP POP PUSH2 0x313A JUMP JUMPDEST SWAP5 POP POP POP POP POP PUSH2 0x23E4 JUMP JUMPDEST PUSH0 PUSH2 0x238E DUP8 DUP8 DUP8 DUP1 DUP1 PUSH1 0x1F ADD PUSH1 0x20 DUP1 SWAP2 DIV MUL PUSH1 0x20 ADD PUSH1 0x40 MLOAD SWAP1 DUP2 ADD PUSH1 0x40 MSTORE DUP1 SWAP4 SWAP3 SWAP2 SWAP1 DUP2 DUP2 MSTORE PUSH1 0x20 ADD DUP4 DUP4 DUP1 DUP3 DUP5 CALLDATACOPY PUSH0 DUP2 DUP5 ADD MSTORE PUSH1 0x1F NOT PUSH1 0x1F DUP3 ADD AND SWAP1 POP DUP1 DUP4 ADD SWAP3 POP POP POP POP POP POP POP PUSH2 0x3259 JUMP JUMPDEST SWAP2 POP PUSH0 PUSH1 0x3 DUP2 GT ISZERO PUSH2 0x23A3 JUMPI PUSH2 0x23A2 PUSH2 0x534C JUMP JUMPDEST JUMPDEST DUP2 PUSH1 0x3 DUP2 GT ISZERO PUSH2 0x23B6 JUMPI PUSH2 0x23B5 PUSH2 0x534C JUMP JUMPDEST JUMPDEST EQ PUSH2 0x23C6 JUMPI PUSH0 SWAP4 POP POP POP POP PUSH2 0x23E4 JUMP JUMPDEST PUSH2 0x23DE DUP3 PUSH1 0x40 MLOAD DUP1 PUSH1 0x20 ADD PUSH1 0x40 MSTORE DUP1 PUSH0 DUP2 MSTORE POP PUSH2 0x2B9C JUMP JUMPDEST SWAP4 POP POP POP POP JUMPDEST SWAP4 SWAP3 POP POP POP JUMP JUMPDEST PUSH0 PUSH2 0x23F4 PUSH2 0x3283 JUMP JUMPDEST SWAP1 POP SWAP1 JUMP JUMPDEST PUSH0 DUP1 PUSH2 0x2408 DUP8 DUP8 DUP8 DUP8 DUP8 PUSH2 0x32C4 JUMP JUMPDEST DUP1 MLOAD SWAP1 PUSH1 0x20 ADD KECCAK256 SWAP1 POP PUSH2 0x241C DUP7 DUP3 DUP11 PUSH2 0x3332 JUMP JUMPDEST SWAP2 POP POP SWAP7 SWAP6 POP POP POP POP POP POP JUMP JUMPDEST PUSH0 PUSH2 0x2432 PUSH2 0x1BEE JUMP JUMPDEST PUSH20 0xFFFFFFFFFFFFFFFFFFFFFFFFFFFFFFFFFFFFFFFF AND DUP3 PUSH20 0xFFFFFFFFFFFFFFFFFFFFFFFFFFFFFFFFFFFFFFFF AND SUB PUSH2 0x246D JUMPI PUSH1 0x1 SWAP1 POP PUSH2 0x2641 JUMP JUMPDEST PUSH0 DUP1 PUSH0 PUSH2 0x2478 PUSH2 0x1F15 JUMP JUMPDEST SWAP3 POP SWAP3 POP SWAP3 POP CHAINID DUP4 EQ PUSH2 0x257D JUMPI ADDRESS PUSH20 0xFFFFFFFFFFFFFFFFFFFFFFFFFFFFFFFFFFFFFFFF AND PUSH2 0x24AC PUSH2 0x24A7 PUSH2 0x23EB JUMP JUMPDEST PUSH2 0x335C JUMP JUMPDEST PUSH20 0xFFFFFFFFFFFFFFFFFFFFFFFFFFFFFFFFFFFFFFFF AND SUB PUSH2 0x24D3 JUMPI PUSH1 0x1 SWAP4 POP POP POP POP PUSH2 0x2641 JUMP JUMPDEST PUSH32 0x0 PUSH20 0xFFFFFFFFFFFFFFFFFFFFFFFFFFFFFFFFFFFFFFFF AND PUSH4 0x672657CA DUP7 PUSH1 0x40 MLOAD DUP3 PUSH4 0xFFFFFFFF AND PUSH1 0xE0 SHL DUP2 MSTORE PUSH1 0x4 ADD PUSH2 0x252C SWAP2 SWAP1 PUSH2 0x3D06 JUMP JUMPDEST PUSH1 0x20 PUSH1 0x40 MLOAD DUP1 DUP4 SUB DUP2 DUP7 GAS STATICCALL ISZERO DUP1 ISZERO PUSH2 0x2547 JUMPI RETURNDATASIZE PUSH0 DUP1 RETURNDATACOPY RETURNDATASIZE PUSH0 REVERT JUMPDEST POP POP POP POP PUSH1 0x40 MLOAD RETURNDATASIZE PUSH1 0x1F NOT PUSH1 0x1F DUP3 ADD AND DUP3 ADD DUP1 PUSH1 0x40 MSTORE POP DUP2 ADD SWAP1 PUSH2 0x256B SWAP2 SWAP1 PUSH2 0x4E1F JUMP JUMPDEST ISZERO PUSH2 0x257C JUMPI PUSH1 0x1 SWAP4 POP POP POP POP PUSH2 0x2641 JUMP JUMPDEST JUMPDEST PUSH0 PUSH2 0x2589 DUP5 DUP5 DUP5 PUSH2 0x2CF9 JUMP JUMPDEST SWAP1 POP DUP1 PUSH20 0xFFFFFFFFFFFFFFFFFFFFFFFFFFFFFFFFFFFFFFFF AND DUP7 PUSH20 0xFFFFFFFFFFFFFFFFFFFFFFFFFFFFFFFFFFFFFFFF AND SUB PUSH2 0x25CB JUMPI PUSH1 0x1 SWAP5 POP POP POP POP POP PUSH2 0x2641 JUMP JUMPDEST PUSH0 PUSH2 0x25D8 DUP3 DUP7 DUP7 DUP7 PUSH2 0x2F09 JUMP JUMPDEST SWAP1 POP DUP1 PUSH20 0xFFFFFFFFFFFFFFFFFFFFFFFFFFFFFFFFFFFFFFFF AND DUP8 PUSH20 0xFFFFFFFFFFFFFFFFFFFFFFFFFFFFFFFFFFFFFFFF AND SUB PUSH2 0x261B JUMPI PUSH1 0x1 SWAP6 POP POP POP POP POP POP PUSH2 0x2641 JUMP JUMPDEST PUSH2 0x2625 DUP8 DUP3 PUSH2 0x337B JUMP JUMPDEST ISZERO PUSH2 0x2638 JUMPI PUSH1 0x1 SWAP6 POP POP POP POP POP POP PUSH2 0x2641 JUMP JUMPDEST PUSH0 SWAP6 POP POP POP POP POP POP JUMPDEST SWAP2 SWAP1 POP JUMP JUMPDEST PUSH2 0x264E PUSH2 0x1BE4 JUMP JUMPDEST ISZERO PUSH2 0x2685 JUMPI PUSH1 0x40 MLOAD PUSH32 0x6315BFBB00000000000000000000000000000000000000000000000000000000 DUP2 MSTORE PUSH1 0x4 ADD PUSH1 0x40 MLOAD DUP1 SWAP2 SUB SWAP1 REVERT JUMPDEST PUSH2 0x268D PUSH2 0x30FD JUMP JUMPDEST JUMP JUMPDEST PUSH1 0x60 PUSH0 PUSH1 0xFF AND DUP3 PUSH1 0xFF AND SUB PUSH2 0x26F3 JUMPI PUSH2 0x26EC DUP7 DUP7 DUP7 DUP7 DUP1 DUP1 PUSH1 0x1F ADD PUSH1 0x20 DUP1 SWAP2 DIV MUL PUSH1 0x20 ADD PUSH1 0x40 MLOAD SWAP1 DUP2 ADD PUSH1 0x40 MSTORE DUP1 SWAP4 SWAP3 SWAP2 SWAP1 DUP2 DUP2 MSTORE PUSH1 0x20 ADD DUP4 DUP4 DUP1 DUP3 DUP5 CALLDATACOPY PUSH0 DUP2 DUP5 ADD MSTORE PUSH1 0x1F NOT PUSH1 0x1F DUP3 ADD AND SWAP1 POP DUP1 DUP4 ADD SWAP3 POP POP POP POP POP POP POP PUSH2 0x2DBA JUMP JUMPDEST SWAP1 POP PUSH2 0x289B JUMP JUMPDEST PUSH1 0x1 PUSH1 0xFF AND DUP3 PUSH1 0xFF AND SUB PUSH2 0x276B JUMPI PUSH0 PUSH2 0x270B ADDRESS PUSH2 0x1F51 JUMP JUMPDEST SWAP1 POP PUSH0 DUP2 PUSH20 0xFFFFFFFFFFFFFFFFFFFFFFFFFFFFFFFFFFFFFFFF AND EXTCODESIZE SUB PUSH2 0x2735 JUMPI PUSH2 0x2734 ADDRESS PUSH2 0x2CC2 JUMP JUMPDEST JUMPDEST PUSH2 0x2763 DUP2 DUP8 DUP10 DUP9 DUP9 PUSH1 0x40 MLOAD PUSH1 0x20 ADD PUSH2 0x274F SWAP4 SWAP3 SWAP2 SWAP1 PUSH2 0x5379 JUMP JUMPDEST PUSH1 0x40 MLOAD PUSH1 0x20 DUP2 DUP4 SUB SUB DUP2 MSTORE SWAP1 PUSH1 0x40 MSTORE PUSH2 0x2DBA JUMP JUMPDEST SWAP2 POP POP PUSH2 0x289B JUMP JUMPDEST PUSH1 0x2 PUSH1 0xFF AND DUP3 PUSH1 0xFF AND SUB PUSH2 0x27EC JUMPI PUSH2 0x27C6 DUP6 DUP6 DUP6 DUP1 DUP1 PUSH1 0x1F ADD PUSH1 0x20 DUP1 SWAP2 DIV MUL PUSH1 0x20 ADD PUSH1 0x40 MLOAD SWAP1 DUP2 ADD PUSH1 0x40 MSTORE DUP1 SWAP4 SWAP3 SWAP2 SWAP1 DUP2 DUP2 MSTORE PUSH1 0x20 ADD DUP4 DUP4 DUP1 DUP3 DUP5 CALLDATACOPY PUSH0 DUP2 DUP5 ADD MSTORE PUSH1 0x1F NOT PUSH1 0x1F DUP3 ADD AND SWAP1 POP DUP1 DUP4 ADD SWAP3 POP POP POP POP POP POP POP PUSH2 0x2B21 JUMP JUMPDEST PUSH1 0x40 MLOAD PUSH1 0x20 ADD PUSH2 0x27D6 SWAP2 SWAP1 PUSH2 0x53A2 JUMP JUMPDEST PUSH1 0x40 MLOAD PUSH1 0x20 DUP2 DUP4 SUB SUB DUP2 MSTORE SWAP1 PUSH1 0x40 MSTORE SWAP1 POP PUSH2 0x289B JUMP JUMPDEST PUSH1 0x3 PUSH1 0xFF AND DUP3 PUSH1 0xFF AND SUB PUSH2 0x2869 JUMPI PUSH0 DUP5 DUP5 PUSH0 SWAP1 PUSH1 0x20 SWAP3 PUSH2 0x280E SWAP4 SWAP3 SWAP2 SWAP1 PUSH2 0x529E JUMP JUMPDEST SWAP1 PUSH2 0x2819 SWAP2 SWAP1 PUSH2 0x52EE JUMP JUMPDEST SWAP1 POP CALLDATASIZE PUSH0 DUP7 DUP7 PUSH1 0x20 SWAP1 DUP1 SWAP3 PUSH2 0x2830 SWAP4 SWAP3 SWAP2 SWAP1 PUSH2 0x529E JUMP JUMPDEST SWAP2 POP SWAP2 POP PUSH2 0x2840 DUP9 DUP5 DUP5 DUP5 PUSH2 0x2913 JUMP JUMPDEST PUSH1 0x40 MLOAD PUSH1 0x20 ADD PUSH2 0x2850 SWAP2 SWAP1 PUSH2 0x53A2 JUMP JUMPDEST PUSH1 0x40 MLOAD PUSH1 0x20 DUP2 DUP4 SUB SUB DUP2 MSTORE SWAP1 PUSH1 0x40 MSTORE SWAP4 POP POP POP POP PUSH2 0x289B JUMP JUMPDEST PUSH1 0x40 MLOAD PUSH32 0x398D4D3200000000000000000000000000000000000000000000000000000000 DUP2 MSTORE PUSH1 0x4 ADD PUSH1 0x40 MLOAD DUP1 SWAP2 SUB SWAP1 REVERT JUMPDEST SWAP6 SWAP5 POP POP POP POP POP JUMP JUMPDEST PUSH2 0x28AD ADDRESS PUSH2 0x1F51 JUMP JUMPDEST PUSH20 0xFFFFFFFFFFFFFFFFFFFFFFFFFFFFFFFFFFFFFFFF AND CALLER PUSH20 0xFFFFFFFFFFFFFFFFFFFFFFFFFFFFFFFFFFFFFFFF AND EQ PUSH2 0x2911 JUMPI PUSH1 0x40 MLOAD PUSH32 0xEA8E4EB500000000000000000000000000000000000000000000000000000000 DUP2 MSTORE PUSH1 0x4 ADD PUSH1 0x40 MLOAD DUP1 SWAP2 SUB SWAP1 REVERT JUMPDEST JUMP JUMPDEST PUSH0 DUP1 DUP4 DUP4 DUP1 DUP1 PUSH1 0x1F ADD PUSH1 0x20 DUP1 SWAP2 DIV MUL PUSH1 0x20 ADD PUSH1 0x40 MLOAD SWAP1 DUP2 ADD PUSH1 0x40 MSTORE DUP1 SWAP4 SWAP3 SWAP2 SWAP1 DUP2 DUP2 MSTORE PUSH1 0x20 ADD DUP4 DUP4 DUP1 DUP3 DUP5 CALLDATACOPY PUSH0 DUP2 DUP5 ADD MSTORE PUSH1 0x1F NOT PUSH1 0x1F DUP3 ADD AND SWAP1 POP DUP1 DUP4 ADD SWAP3 POP POP POP POP POP POP POP SWAP1 POP DUP5 DUP2 MLOAD PUSH1 0x20 DUP4 ADD DUP9 CREATE2 SWAP2 POP PUSH0 PUSH20 0xFFFFFFFFFFFFFFFFFFFFFFFFFFFFFFFFFFFFFFFF AND DUP3 PUSH20 0xFFFFFFFFFFFFFFFFFFFFFFFFFFFFFFFFFFFFFFFF AND SUB PUSH2 0x29CB JUMPI PUSH1 0x40 MLOAD PUSH32 0xA28C247300000000000000000000000000000000000000000000000000000000 DUP2 MSTORE PUSH1 0x4 ADD PUSH1 0x40 MLOAD DUP1 SWAP2 SUB SWAP1 REVERT JUMPDEST POP SWAP5 SWAP4 POP POP POP POP JUMP JUMPDEST PUSH2 0x29DC PUSH2 0x1BEE JUMP JUMPDEST PUSH20 0xFFFFFFFFFFFFFFFFFFFFFFFFFFFFFFFFFFFFFFFF AND CALLER PUSH20 0xFFFFFFFFFFFFFFFFFFFFFFFFFFFFFFFFFFFFFFFF AND EQ PUSH2 0x2A49 JUMPI PUSH1 0x40 MLOAD PUSH32 0x8C379A000000000000000000000000000000000000000000000000000000000 DUP2 MSTORE PUSH1 0x4 ADD PUSH2 0x2A40 SWAP1 PUSH2 0x5406 JUMP JUMPDEST PUSH1 0x40 MLOAD DUP1 SWAP2 SUB SWAP1 REVERT JUMPDEST JUMP JUMPDEST PUSH0 PUSH2 0x2A6F PUSH2 0x2A59 DUP5 DUP5 PUSH2 0x3409 JUMP JUMPDEST DUP5 DUP1 PUSH2 0x140 ADD SWAP1 PUSH2 0x2A6A SWAP2 SWAP1 PUSH2 0x4EBC JUMP JUMPDEST PUSH2 0x21FD JUMP JUMPDEST ISZERO PUSH2 0x2A7C JUMPI PUSH0 SWAP1 POP PUSH2 0x2A81 JUMP JUMPDEST PUSH1 0x1 SWAP1 POP JUMPDEST SWAP3 SWAP2 POP POP JUMP JUMPDEST POP JUMP JUMPDEST PUSH0 DUP2 EQ PUSH2 0x2B1E JUMPI PUSH0 CALLER PUSH20 0xFFFFFFFFFFFFFFFFFFFFFFFFFFFFFFFFFFFFFFFF AND DUP3 PUSH32 0xFFFFFFFFFFFFFFFFFFFFFFFFFFFFFFFFFFFFFFFFFFFFFFFFFFFFFFFFFFFFFFFF SWAP1 PUSH1 0x40 MLOAD PUSH2 0x2AD8 SWAP1 PUSH2 0x5447 JUMP JUMPDEST PUSH0 PUSH1 0x40 MLOAD DUP1 DUP4 SUB DUP2 DUP6 DUP9 DUP9 CALL SWAP4 POP POP POP POP RETURNDATASIZE DUP1 PUSH0 DUP2 EQ PUSH2 0x2B13 JUMPI PUSH1 0x40 MLOAD SWAP2 POP PUSH1 0x1F NOT PUSH1 0x3F RETURNDATASIZE ADD AND DUP3 ADD PUSH1 0x40 MSTORE RETURNDATASIZE DUP3 MSTORE RETURNDATASIZE PUSH0 PUSH1 0x20 DUP5 ADD RETURNDATACOPY PUSH2 0x2B18 JUMP JUMPDEST PUSH1 0x60 SWAP2 POP JUMPDEST POP POP SWAP1 POP POP JUMPDEST POP JUMP JUMPDEST PUSH0 DUP1 DUP3 SWAP1 POP DUP1 MLOAD PUSH1 0x20 DUP3 ADD DUP6 CREATE SWAP2 POP PUSH0 PUSH20 0xFFFFFFFFFFFFFFFFFFFFFFFFFFFFFFFFFFFFFFFF AND DUP3 PUSH20 0xFFFFFFFFFFFFFFFFFFFFFFFFFFFFFFFFFFFFFFFF AND SUB PUSH2 0x2B95 JUMPI PUSH1 0x40 MLOAD PUSH32 0xA28C247300000000000000000000000000000000000000000000000000000000 DUP2 MSTORE PUSH1 0x4 ADD PUSH1 0x40 MLOAD DUP1 SWAP2 SUB SWAP1 REVERT JUMPDEST POP SWAP3 SWAP2 POP POP JUMP JUMPDEST PUSH0 DUP1 PUSH0 DUP1 PUSH2 0x2BA8 PUSH2 0x1F15 JUMP JUMPDEST SWAP3 POP SWAP3 POP SWAP3 POP PUSH0 PUSH2 0x2BBA DUP5 DUP5 DUP5 PUSH2 0x2CF9 JUMP JUMPDEST SWAP1 POP DUP1 PUSH20 0xFFFFFFFFFFFFFFFFFFFFFFFFFFFFFFFFFFFFFFFF AND DUP8 PUSH20 0xFFFFFFFFFFFFFFFFFFFFFFFFFFFFFFFFFFFFFFFF AND SUB PUSH2 0x2BFC JUMPI PUSH1 0x1 SWAP5 POP POP POP POP POP PUSH2 0x2C5E JUMP JUMPDEST PUSH0 PUSH2 0x2C09 DUP3 DUP7 DUP7 DUP7 PUSH2 0x2F09 JUMP JUMPDEST SWAP1 POP DUP1 PUSH20 0xFFFFFFFFFFFFFFFFFFFFFFFFFFFFFFFFFFFFFFFF AND DUP9 PUSH20 0xFFFFFFFFFFFFFFFFFFFFFFFFFFFFFFFFFFFFFFFF AND SUB PUSH2 0x2C4C JUMPI PUSH1 0x1 SWAP6 POP POP POP POP POP POP PUSH2 0x2C5E JUMP JUMPDEST PUSH2 0x2C56 DUP9 DUP3 PUSH2 0x337B JUMP JUMPDEST SWAP6 POP POP POP POP POP POP JUMPDEST SWAP3 SWAP2 POP POP JUMP JUMPDEST PUSH0 DUP2 DUP4 PUSH2 0x2C71 SWAP2 SWAP1 PUSH2 0x545B JUMP JUMPDEST SWAP1 POP SWAP3 SWAP2 POP POP JUMP JUMPDEST PUSH2 0x2C81 PUSH2 0x1BE4 JUMP JUMPDEST ISZERO PUSH2 0x2CB8 JUMPI PUSH1 0x40 MLOAD PUSH32 0x6315BFBB00000000000000000000000000000000000000000000000000000000 DUP2 MSTORE PUSH1 0x4 ADD PUSH1 0x40 MLOAD DUP1 SWAP2 SUB SWAP1 REVERT JUMPDEST PUSH2 0x2CC0 PUSH2 0x30FD JUMP JUMPDEST JUMP JUMPDEST PUSH2 0x2CF5 PUSH0 PUSH32 0x97F795A08410E77DC9DBBABA3915F17C601E45642518DD578BD440D8775BFEE4 PUSH2 0x2CF0 DUP5 PUSH2 0x2FF6 JUMP JUMPDEST PUSH2 0x341B JUMP JUMPDEST POP POP JUMP JUMPDEST PUSH0 CHAINID DUP5 EQ PUSH2 0x2D09 JUMPI PUSH0 SWAP1 POP PUSH2 0x2DB3 JUMP JUMPDEST PUSH0 DUP4 PUSH20 0xFFFFFFFFFFFFFFFFFFFFFFFFFFFFFFFFFFFFFFFF AND EXTCODESIZE SUB PUSH2 0x2D2F JUMPI PUSH0 SWAP1 POP PUSH2 0x2DB3 JUMP JUMPDEST DUP3 PUSH20 0xFFFFFFFFFFFFFFFFFFFFFFFFFFFFFFFFFFFFFFFF AND PUSH4 0x6352211E DUP4 PUSH1 0x40 MLOAD DUP3 PUSH4 0xFFFFFFFF AND PUSH1 0xE0 SHL DUP2 MSTORE PUSH1 0x4 ADD PUSH2 0x2D68 SWAP2 SWAP1 PUSH2 0x43BD JUMP JUMPDEST PUSH1 0x20 PUSH1 0x40 MLOAD DUP1 DUP4 SUB DUP2 DUP7 GAS STATICCALL SWAP3 POP POP POP DUP1 ISZERO PUSH2 0x2DA2 JUMPI POP PUSH1 0x40 MLOAD RETURNDATASIZE PUSH1 0x1F NOT PUSH1 0x1F DUP3 ADD AND DUP3 ADD DUP1 PUSH1 0x40 MSTORE POP DUP2 ADD SWAP1 PUSH2 0x2D9F SWAP2 SWAP1 PUSH2 0x4E5E JUMP JUMPDEST PUSH1 0x1 JUMPDEST PUSH2 0x2DAE JUMPI PUSH0 SWAP1 POP PUSH2 0x2DB3 JUMP JUMPDEST DUP1 SWAP2 POP POP JUMPDEST SWAP4 SWAP3 POP POP POP JUMP JUMPDEST PUSH1 0x60 PUSH0 DUP5 PUSH20 0xFFFFFFFFFFFFFFFFFFFFFFFFFFFFFFFFFFFFFFFF AND DUP5 DUP5 PUSH1 0x40 MLOAD PUSH2 0x2DE3 SWAP2 SWAP1 PUSH2 0x4CCA JUMP JUMPDEST PUSH0 PUSH1 0x40 MLOAD DUP1 DUP4 SUB DUP2 DUP6 DUP8 GAS CALL SWAP3 POP POP POP RETURNDATASIZE DUP1 PUSH0 DUP2 EQ PUSH2 0x2E1D JUMPI PUSH1 0x40 MLOAD SWAP2 POP PUSH1 0x1F NOT PUSH1 0x3F RETURNDATASIZE ADD AND DUP3 ADD PUSH1 0x40 MSTORE RETURNDATASIZE DUP3 MSTORE RETURNDATASIZE PUSH0 PUSH1 0x20 DUP5 ADD RETURNDATACOPY PUSH2 0x2E22 JUMP JUMPDEST PUSH1 0x60 SWAP2 POP JUMPDEST POP DUP1 SWAP4 POP DUP2 SWAP3 POP POP POP DUP1 PUSH2 0x2E38 JUMPI DUP2 MLOAD PUSH1 0x20 DUP4 ADD REVERT JUMPDEST POP SWAP4 SWAP3 POP POP POP JUMP JUMPDEST PUSH2 0x2E48 PUSH2 0x1BE4 JUMP JUMPDEST ISZERO PUSH2 0x2E7F JUMPI PUSH1 0x40 MLOAD PUSH32 0x6315BFBB00000000000000000000000000000000000000000000000000000000 DUP2 MSTORE PUSH1 0x4 ADD PUSH1 0x40 MLOAD DUP1 SWAP2 SUB SWAP1 REVERT JUMPDEST PUSH2 0x2E87 PUSH2 0x30FD JUMP JUMPDEST JUMP JUMPDEST PUSH0 DUP1 PUSH0 DUP1 PUSH1 0x60 PUSH8 0xFFFFFFFFFFFFFFFF DUP2 GT ISZERO PUSH2 0x2EA8 JUMPI PUSH2 0x2EA7 PUSH2 0x3D90 JUMP JUMPDEST JUMPDEST PUSH1 0x40 MLOAD SWAP1 DUP1 DUP3 MSTORE DUP1 PUSH1 0x1F ADD PUSH1 0x1F NOT AND PUSH1 0x20 ADD DUP3 ADD PUSH1 0x40 MSTORE DUP1 ISZERO PUSH2 0x2EDA JUMPI DUP2 PUSH1 0x20 ADD PUSH1 0x1 DUP3 MUL DUP1 CALLDATASIZE DUP4 CALLDATACOPY DUP1 DUP3 ADD SWAP2 POP POP SWAP1 POP JUMPDEST POP SWAP1 POP PUSH1 0x60 PUSH1 0x4D PUSH1 0x20 DUP4 ADD DUP8 EXTCODECOPY DUP1 DUP1 PUSH1 0x20 ADD SWAP1 MLOAD DUP2 ADD SWAP1 PUSH2 0x2EFB SWAP2 SWAP1 PUSH2 0x54C9 JUMP JUMPDEST SWAP4 POP SWAP4 POP SWAP4 POP POP SWAP2 SWAP4 SWAP1 SWAP3 POP JUMP JUMPDEST PUSH0 DUP1 DUP6 SWAP1 POP JUMPDEST PUSH2 0x2F5A DUP2 PUSH32 0x0 PUSH32 0x0 PUSH2 0x3514 JUMP JUMPDEST ISZERO PUSH2 0x2FEA JUMPI DUP1 PUSH20 0xFFFFFFFFFFFFFFFFFFFFFFFFFFFFFFFFFFFFFFFF AND PUSH4 0xFC0C546A PUSH1 0x40 MLOAD DUP2 PUSH4 0xFFFFFFFF AND PUSH1 0xE0 SHL DUP2 MSTORE PUSH1 0x4 ADD PUSH1 0x60 PUSH1 0x40 MLOAD DUP1 DUP4 SUB DUP2 DUP7 GAS STATICCALL ISZERO DUP1 ISZERO PUSH2 0x2FA8 JUMPI RETURNDATASIZE PUSH0 DUP1 RETURNDATACOPY RETURNDATASIZE PUSH0 REVERT JUMPDEST POP POP POP POP PUSH1 0x40 MLOAD RETURNDATASIZE PUSH1 0x1F NOT PUSH1 0x1F DUP3 ADD AND DUP3 ADD DUP1 PUSH1 0x40 MSTORE POP DUP2 ADD SWAP1 PUSH2 0x2FCC SWAP2 SWAP1 PUSH2 0x5519 JUMP JUMPDEST DUP1 SWAP6 POP DUP2 SWAP7 POP DUP3 SWAP8 POP POP POP POP PUSH2 0x2FE3 DUP6 DUP6 DUP6 PUSH2 0x2CF9 JUMP JUMPDEST SWAP1 POP PUSH2 0x2F0F JUMP JUMPDEST DUP1 SWAP2 POP POP SWAP5 SWAP4 POP POP POP POP JUMP JUMPDEST PUSH1 0x60 PUSH1 0x40 MLOAD DUP1 PUSH1 0x40 ADD PUSH1 0x40 MSTORE DUP1 PUSH1 0xE DUP2 MSTORE PUSH1 0x20 ADD PUSH32 0x604380600D600039806000F3FE73000000000000000000000000000000000000 DUP2 MSTORE POP DUP3 PUSH1 0x40 MLOAD DUP1 PUSH1 0x60 ADD PUSH1 0x40 MSTORE DUP1 PUSH1 0x2E DUP2 MSTORE PUSH1 0x20 ADD PUSH2 0x57DD PUSH1 0x2E SWAP2 CODECOPY PUSH1 0x40 MLOAD PUSH1 0x20 ADD PUSH2 0x305A SWAP4 SWAP3 SWAP2 SWAP1 PUSH2 0x5569 JUMP JUMPDEST PUSH1 0x40 MLOAD PUSH1 0x20 DUP2 DUP4 SUB SUB DUP2 MSTORE SWAP1 PUSH1 0x40 MSTORE SWAP1 POP SWAP2 SWAP1 POP JUMP JUMPDEST PUSH0 PUSH2 0x307C DUP4 DUP4 ADDRESS PUSH2 0x3332 JUMP JUMPDEST SWAP1 POP SWAP3 SWAP2 POP POP JUMP JUMPDEST PUSH0 PUSH32 0x6FAFF5F100000000000000000000000000000000000000000000000000000000 PUSH28 0xFFFFFFFFFFFFFFFFFFFFFFFFFFFFFFFFFFFFFFFFFFFFFFFFFFFFFFFF NOT AND DUP3 PUSH28 0xFFFFFFFFFFFFFFFFFFFFFFFFFFFFFFFFFFFFFFFFFFFFFFFFFFFFFFFF NOT AND EQ DUP1 PUSH2 0x30F6 JUMPI POP PUSH2 0x30F5 DUP3 PUSH2 0x360B JUMP JUMPDEST JUMPDEST SWAP1 POP SWAP2 SWAP1 POP JUMP JUMPDEST PUSH1 0x3 SLOAD PUSH2 0x3108 PUSH2 0x3684 JUMP JUMPDEST PUSH1 0x40 MLOAD PUSH1 0x20 ADD PUSH2 0x311A SWAP4 SWAP3 SWAP2 SWAP1 PUSH2 0x55C9 JUMP JUMPDEST PUSH1 0x40 MLOAD PUSH1 0x20 DUP2 DUP4 SUB SUB DUP2 MSTORE SWAP1 PUSH1 0x40 MSTORE DUP1 MLOAD SWAP1 PUSH1 0x20 ADD KECCAK256 PUSH0 SHR PUSH1 0x3 DUP2 SWAP1 SSTORE POP JUMP JUMPDEST PUSH0 DUP1 PUSH0 DUP6 PUSH20 0xFFFFFFFFFFFFFFFFFFFFFFFFFFFFFFFFFFFFFFFF AND DUP6 DUP6 PUSH1 0x40 MLOAD PUSH1 0x24 ADD PUSH2 0x3167 SWAP3 SWAP2 SWAP1 PUSH2 0x55F9 JUMP JUMPDEST PUSH1 0x40 MLOAD PUSH1 0x20 DUP2 DUP4 SUB SUB DUP2 MSTORE SWAP1 PUSH1 0x40 MSTORE PUSH4 0x1626BA7E PUSH1 0xE0 SHL PUSH1 0x20 DUP3 ADD DUP1 MLOAD PUSH28 0xFFFFFFFFFFFFFFFFFFFFFFFFFFFFFFFFFFFFFFFFFFFFFFFFFFFFFFFF DUP4 DUP2 DUP4 AND OR DUP4 MSTORE POP POP POP POP PUSH1 0x40 MLOAD PUSH2 0x31B9 SWAP2 SWAP1 PUSH2 0x4CCA JUMP JUMPDEST PUSH0 PUSH1 0x40 MLOAD DUP1 DUP4 SUB DUP2 DUP6 GAS STATICCALL SWAP2 POP POP RETURNDATASIZE DUP1 PUSH0 DUP2 EQ PUSH2 0x31F1 JUMPI PUSH1 0x40 MLOAD SWAP2 POP PUSH1 0x1F NOT PUSH1 0x3F RETURNDATASIZE ADD AND DUP3 ADD PUSH1 0x40 MSTORE RETURNDATASIZE DUP3 MSTORE RETURNDATASIZE PUSH0 PUSH1 0x20 DUP5 ADD RETURNDATACOPY PUSH2 0x31F6 JUMP JUMPDEST PUSH1 0x60 SWAP2 POP JUMPDEST POP SWAP2 POP SWAP2 POP DUP2 DUP1 ISZERO PUSH2 0x320A JUMPI POP PUSH1 0x20 DUP2 MLOAD LT ISZERO JUMPDEST DUP1 ISZERO PUSH2 0x324E JUMPI POP PUSH4 0x1626BA7E PUSH1 0xE0 SHL PUSH28 0xFFFFFFFFFFFFFFFFFFFFFFFFFFFFFFFFFFFFFFFFFFFFFFFFFFFFFFFF NOT AND DUP2 DUP1 PUSH1 0x20 ADD SWAP1 MLOAD DUP2 ADD SWAP1 PUSH2 0x324C SWAP2 SWAP1 PUSH2 0x563B JUMP JUMPDEST EQ JUMPDEST SWAP3 POP POP POP SWAP4 SWAP3 POP POP POP JUMP JUMPDEST PUSH0 DUP1 PUSH0 DUP1 PUSH2 0x3267 DUP7 DUP7 PUSH2 0x3696 JUMP JUMPDEST SWAP3 POP SWAP3 POP SWAP3 POP PUSH2 0x3277 DUP3 DUP3 PUSH2 0x36EB JUMP JUMPDEST DUP3 SWAP4 POP POP POP POP SWAP3 SWAP2 POP POP JUMP JUMPDEST PUSH0 PUSH2 0x328D CALLER PUSH2 0x1483 JUMP JUMPDEST DUP1 ISZERO PUSH2 0x329D JUMPI POP PUSH1 0x14 PUSH0 CALLDATASIZE SWAP1 POP LT ISZERO JUMPDEST ISZERO PUSH2 0x32B1 JUMPI PUSH1 0x14 CALLDATASIZE SUB CALLDATALOAD PUSH1 0x60 SHR SWAP1 POP PUSH2 0x32C0 JUMP JUMPDEST PUSH2 0x32B9 PUSH2 0x384D JUMP JUMPDEST SWAP1 POP PUSH2 0x32C1 JUMP JUMPDEST JUMPDEST SWAP1 JUMP JUMPDEST PUSH1 0x60 PUSH1 0x40 MLOAD SWAP1 POP DUP2 PUSH1 0xB7 DUP3 ADD MSTORE DUP3 PUSH1 0x60 SHL PUSH1 0x60 SHR PUSH1 0x97 DUP3 ADD MSTORE DUP4 PUSH1 0x77 DUP3 ADD MSTORE DUP5 PUSH1 0x57 DUP3 ADD MSTORE PUSH15 0x5AF43D82803E903D91602B57FD5BF3 PUSH1 0x37 DUP3 ADD MSTORE DUP6 PUSH1 0x28 DUP3 ADD MSTORE PUSH20 0x3D60AD80600A3D3981F3363D3D373D3D3D363D73 PUSH1 0x14 DUP3 ADD MSTORE PUSH1 0xB7 DUP2 MSTORE PUSH1 0xD7 DUP2 ADD PUSH1 0x40 MSTORE SWAP6 SWAP5 POP POP POP POP POP JUMP JUMPDEST PUSH0 PUSH1 0x40 MLOAD DUP4 PUSH1 0x40 DUP3 ADD MSTORE DUP5 PUSH1 0x20 DUP3 ADD MSTORE DUP3 DUP2 MSTORE PUSH1 0xB DUP2 ADD PUSH1 0xFF DUP2 MSTORE8 PUSH1 0x55 DUP2 KECCAK256 SWAP3 POP POP POP SWAP4 SWAP3 POP POP POP JUMP JUMPDEST PUSH0 PUSH20 0x1111000000000000000000000000000000001111 DUP3 SUB SWAP1 POP SWAP2 SWAP1 POP JUMP JUMPDEST PUSH0 PUSH1 0x2 PUSH0 DUP4 PUSH20 0xFFFFFFFFFFFFFFFFFFFFFFFFFFFFFFFFFFFFFFFF AND PUSH20 0xFFFFFFFFFFFFFFFFFFFFFFFFFFFFFFFFFFFFFFFF AND DUP2 MSTORE PUSH1 0x20 ADD SWAP1 DUP2 MSTORE PUSH1 0x20 ADD PUSH0 KECCAK256 PUSH0 DUP5 PUSH20 0xFFFFFFFFFFFFFFFFFFFFFFFFFFFFFFFFFFFFFFFF AND PUSH20 0xFFFFFFFFFFFFFFFFFFFFFFFFFFFFFFFFFFFFFFFF AND DUP2 MSTORE PUSH1 0x20 ADD SWAP1 DUP2 MSTORE PUSH1 0x20 ADD PUSH0 KECCAK256 PUSH0 SWAP1 SLOAD SWAP1 PUSH2 0x100 EXP SWAP1 DIV PUSH1 0xFF AND SWAP1 POP SWAP3 SWAP2 POP POP JUMP JUMPDEST PUSH0 PUSH2 0x3413 DUP3 PUSH2 0x3854 JUMP JUMPDEST SWAP1 POP SWAP3 SWAP2 POP POP JUMP JUMPDEST PUSH0 DUP4 SELFBALANCE LT ISZERO PUSH2 0x3463 JUMPI SELFBALANCE DUP5 PUSH1 0x40 MLOAD PUSH32 0xE4BBECAC00000000000000000000000000000000000000000000000000000000 DUP2 MSTORE PUSH1 0x4 ADD PUSH2 0x345A SWAP3 SWAP2 SWAP1 PUSH2 0x5666 JUMP JUMPDEST PUSH1 0x40 MLOAD DUP1 SWAP2 SUB SWAP1 REVERT JUMPDEST PUSH0 DUP3 MLOAD SUB PUSH2 0x349D JUMPI PUSH1 0x40 MLOAD PUSH32 0x4CA249DC00000000000000000000000000000000000000000000000000000000 DUP2 MSTORE PUSH1 0x4 ADD PUSH1 0x40 MLOAD DUP1 SWAP2 SUB SWAP1 REVERT JUMPDEST DUP3 DUP3 MLOAD PUSH1 0x20 DUP5 ADD DUP7 CREATE2 SWAP1 POP PUSH0 PUSH20 0xFFFFFFFFFFFFFFFFFFFFFFFFFFFFFFFFFFFFFFFF AND DUP2 PUSH20 0xFFFFFFFFFFFFFFFFFFFFFFFFFFFFFFFFFFFFFFFF AND SUB PUSH2 0x350D JUMPI PUSH1 0x40 MLOAD PUSH32 0x741752C200000000000000000000000000000000000000000000000000000000 DUP2 MSTORE PUSH1 0x4 ADD PUSH1 0x40 MLOAD DUP1 SWAP2 SUB SWAP1 REVERT JUMPDEST SWAP4 SWAP3 POP POP POP JUMP JUMPDEST PUSH0 PUSH1 0xAD DUP5 PUSH20 0xFFFFFFFFFFFFFFFFFFFFFFFFFFFFFFFFFFFFFFFF AND EXTCODESIZE EQ PUSH2 0x353C JUMPI PUSH0 SWAP1 POP PUSH2 0x3604 JUMP JUMPDEST PUSH0 PUSH2 0x3546 DUP6 PUSH2 0x3883 JUMP JUMPDEST SWAP1 POP PUSH0 DUP2 PUSH20 0xFFFFFFFFFFFFFFFFFFFFFFFFFFFFFFFFFFFFFFFF AND EXTCODESIZE SUB PUSH2 0x356F JUMPI PUSH0 SWAP2 POP POP PUSH2 0x3604 JUMP JUMPDEST DUP4 PUSH20 0xFFFFFFFFFFFFFFFFFFFFFFFFFFFFFFFFFFFFFFFF AND DUP2 PUSH20 0xFFFFFFFFFFFFFFFFFFFFFFFFFFFFFFFFFFFFFFFF AND EQ PUSH2 0x35AB JUMPI PUSH0 SWAP2 POP POP PUSH2 0x3604 JUMP JUMPDEST PUSH0 DUP1 PUSH0 DUP1 PUSH2 0x35B8 DUP10 PUSH2 0x3895 JUMP JUMPDEST SWAP4 POP SWAP4 POP SWAP4 POP SWAP4 POP PUSH2 0x35CE DUP8 DUP7 DUP7 DUP7 DUP7 DUP7 PUSH2 0x23F9 JUMP JUMPDEST PUSH20 0xFFFFFFFFFFFFFFFFFFFFFFFFFFFFFFFFFFFFFFFF AND DUP10 PUSH20 0xFFFFFFFFFFFFFFFFFFFFFFFFFFFFFFFFFFFFFFFF AND EQ SWAP6 POP POP POP POP POP POP JUMPDEST SWAP4 SWAP3 POP POP POP JUMP JUMPDEST PUSH0 PUSH32 0x4E2312E000000000000000000000000000000000000000000000000000000000 PUSH28 0xFFFFFFFFFFFFFFFFFFFFFFFFFFFFFFFFFFFFFFFFFFFFFFFFFFFFFFFF NOT AND DUP3 PUSH28 0xFFFFFFFFFFFFFFFFFFFFFFFFFFFFFFFFFFFFFFFFFFFFFFFFFFFFFFFF NOT AND EQ DUP1 PUSH2 0x367D JUMPI POP PUSH2 0x367C DUP3 PUSH2 0x3918 JUMP JUMPDEST JUMPDEST SWAP1 POP SWAP2 SWAP1 POP JUMP JUMPDEST CALLDATASIZE PUSH0 PUSH2 0x368E PUSH2 0x3981 JUMP JUMPDEST SWAP2 POP SWAP2 POP SWAP1 SWAP2 JUMP JUMPDEST PUSH0 DUP1 PUSH0 PUSH1 0x41 DUP5 MLOAD SUB PUSH2 0x36D6 JUMPI PUSH0 DUP1 PUSH0 PUSH1 0x20 DUP8 ADD MLOAD SWAP3 POP PUSH1 0x40 DUP8 ADD MLOAD SWAP2 POP PUSH1 0x60 DUP8 ADD MLOAD PUSH0 BYTE SWAP1 POP PUSH2 0x36C8 DUP9 DUP3 DUP6 DUP6 PUSH2 0x39DC JUMP JUMPDEST SWAP6 POP SWAP6 POP SWAP6 POP POP POP POP PUSH2 0x36E4 JUMP JUMPDEST PUSH0 PUSH1 0x2 DUP6 MLOAD PUSH0 SHL SWAP3 POP SWAP3 POP SWAP3 POP JUMPDEST SWAP3 POP SWAP3 POP SWAP3 JUMP JUMPDEST PUSH0 PUSH1 0x3 DUP2 GT ISZERO PUSH2 0x36FE JUMPI PUSH2 0x36FD PUSH2 0x534C JUMP JUMPDEST JUMPDEST DUP3 PUSH1 0x3 DUP2 GT ISZERO PUSH2 0x3711 JUMPI PUSH2 0x3710 PUSH2 0x534C JUMP JUMPDEST JUMPDEST SUB ISZERO PUSH2 0x3849 JUMPI PUSH1 0x1 PUSH1 0x3 DUP2 GT ISZERO PUSH2 0x372B JUMPI PUSH2 0x372A PUSH2 0x534C JUMP JUMPDEST JUMPDEST DUP3 PUSH1 0x3 DUP2 GT ISZERO PUSH2 0x373E JUMPI PUSH2 0x373D PUSH2 0x534C JUMP JUMPDEST JUMPDEST SUB PUSH2 0x3775 JUMPI PUSH1 0x40 MLOAD PUSH32 0xF645EEDF00000000000000000000000000000000000000000000000000000000 DUP2 MSTORE PUSH1 0x4 ADD PUSH1 0x40 MLOAD DUP1 SWAP2 SUB SWAP1 REVERT JUMPDEST PUSH1 0x2 PUSH1 0x3 DUP2 GT ISZERO PUSH2 0x3789 JUMPI PUSH2 0x3788 PUSH2 0x534C JUMP JUMPDEST JUMPDEST DUP3 PUSH1 0x3 DUP2 GT ISZERO PUSH2 0x379C JUMPI PUSH2 0x379B PUSH2 0x534C JUMP JUMPDEST JUMPDEST SUB PUSH2 0x37E0 JUMPI DUP1 PUSH0 SHR PUSH1 0x40 MLOAD PUSH32 0xFCE698F700000000000000000000000000000000000000000000000000000000 DUP2 MSTORE PUSH1 0x4 ADD PUSH2 0x37D7 SWAP2 SWAP1 PUSH2 0x43BD JUMP JUMPDEST PUSH1 0x40 MLOAD DUP1 SWAP2 SUB SWAP1 REVERT JUMPDEST PUSH1 0x3 DUP1 DUP2 GT ISZERO PUSH2 0x37F3 JUMPI PUSH2 0x37F2 PUSH2 0x534C JUMP JUMPDEST JUMPDEST DUP3 PUSH1 0x3 DUP2 GT ISZERO PUSH2 0x3806 JUMPI PUSH2 0x3805 PUSH2 0x534C JUMP JUMPDEST JUMPDEST SUB PUSH2 0x3848 JUMPI DUP1 PUSH1 0x40 MLOAD PUSH32 0xD78BCE0C00000000000000000000000000000000000000000000000000000000 DUP2 MSTORE PUSH1 0x4 ADD PUSH2 0x383F SWAP2 SWAP1 PUSH2 0x407B JUMP JUMPDEST PUSH1 0x40 MLOAD DUP1 SWAP2 SUB SWAP1 REVERT JUMPDEST JUMPDEST POP POP JUMP JUMPDEST PUSH0 CALLER SWAP1 POP SWAP1 JUMP JUMPDEST PUSH0 DUP2 PUSH1 0x40 MLOAD PUSH1 0x20 ADD PUSH2 0x3866 SWAP2 SWAP1 PUSH2 0x5701 JUMP JUMPDEST PUSH1 0x40 MLOAD PUSH1 0x20 DUP2 DUP4 SUB SUB DUP2 MSTORE SWAP1 PUSH1 0x40 MSTORE DUP1 MLOAD SWAP1 PUSH1 0x20 ADD KECCAK256 SWAP1 POP SWAP2 SWAP1 POP JUMP JUMPDEST PUSH0 PUSH1 0x14 PUSH1 0xA PUSH1 0xC DUP5 EXTCODECOPY PUSH0 MLOAD SWAP1 POP SWAP2 SWAP1 POP JUMP JUMPDEST PUSH0 DUP1 PUSH0 DUP1 PUSH0 PUSH1 0x80 PUSH8 0xFFFFFFFFFFFFFFFF DUP2 GT ISZERO PUSH2 0x38B5 JUMPI PUSH2 0x38B4 PUSH2 0x3D90 JUMP JUMPDEST JUMPDEST PUSH1 0x40 MLOAD SWAP1 DUP1 DUP3 MSTORE DUP1 PUSH1 0x1F ADD PUSH1 0x1F NOT AND PUSH1 0x20 ADD DUP3 ADD PUSH1 0x40 MSTORE DUP1 ISZERO PUSH2 0x38E7 JUMPI DUP2 PUSH1 0x20 ADD PUSH1 0x1 DUP3 MUL DUP1 CALLDATASIZE DUP4 CALLDATACOPY DUP1 DUP3 ADD SWAP2 POP POP SWAP1 POP JUMPDEST POP SWAP1 POP PUSH1 0x80 PUSH1 0x2D PUSH1 0x20 DUP4 ADD DUP9 EXTCODECOPY DUP1 DUP1 PUSH1 0x20 ADD SWAP1 MLOAD DUP2 ADD SWAP1 PUSH2 0x3908 SWAP2 SWAP1 PUSH2 0x5726 JUMP JUMPDEST SWAP5 POP SWAP5 POP SWAP5 POP SWAP5 POP POP SWAP2 SWAP4 POP SWAP2 SWAP4 JUMP JUMPDEST PUSH0 PUSH32 0x1FFC9A700000000000000000000000000000000000000000000000000000000 PUSH28 0xFFFFFFFFFFFFFFFFFFFFFFFFFFFFFFFFFFFFFFFFFFFFFFFFFFFFFFFF NOT AND DUP3 PUSH28 0xFFFFFFFFFFFFFFFFFFFFFFFFFFFFFFFFFFFFFFFFFFFFFFFFFFFFFFFF NOT AND EQ SWAP1 POP SWAP2 SWAP1 POP JUMP JUMPDEST CALLDATASIZE PUSH0 PUSH2 0x398C CALLER PUSH2 0x1483 JUMP JUMPDEST DUP1 ISZERO PUSH2 0x399C JUMPI POP PUSH1 0x14 PUSH0 CALLDATASIZE SWAP1 POP LT ISZERO JUMPDEST ISZERO PUSH2 0x39CB JUMPI PUSH0 CALLDATASIZE PUSH0 SWAP1 PUSH1 0x14 PUSH0 CALLDATASIZE SWAP1 POP PUSH2 0x39B5 SWAP2 SWAP1 PUSH2 0x545B JUMP JUMPDEST SWAP3 PUSH2 0x39C2 SWAP4 SWAP3 SWAP2 SWAP1 PUSH2 0x529E JUMP JUMPDEST SWAP2 POP SWAP2 POP PUSH2 0x39D8 JUMP JUMPDEST PUSH2 0x39D3 PUSH2 0x3AC3 JUMP JUMPDEST SWAP2 POP SWAP2 POP JUMPDEST SWAP1 SWAP2 JUMP JUMPDEST PUSH0 DUP1 PUSH0 PUSH32 0x7FFFFFFFFFFFFFFFFFFFFFFFFFFFFFFF5D576E7357A4501DDFE92F46681B20A0 DUP5 PUSH0 SHR GT ISZERO PUSH2 0x3A18 JUMPI PUSH0 PUSH1 0x3 DUP6 SWAP3 POP SWAP3 POP SWAP3 POP PUSH2 0x3AB9 JUMP JUMPDEST PUSH0 PUSH1 0x1 DUP9 DUP9 DUP9 DUP9 PUSH1 0x40 MLOAD PUSH0 DUP2 MSTORE PUSH1 0x20 ADD PUSH1 0x40 MSTORE PUSH1 0x40 MLOAD PUSH2 0x3A3B SWAP5 SWAP4 SWAP3 SWAP2 SWAP1 PUSH2 0x5799 JUMP JUMPDEST PUSH1 0x20 PUSH1 0x40 MLOAD PUSH1 0x20 DUP2 SUB SWAP1 DUP1 DUP5 SUB SWAP1 DUP6 GAS STATICCALL ISZERO DUP1 ISZERO PUSH2 0x3A5B JUMPI RETURNDATASIZE PUSH0 DUP1 RETURNDATACOPY RETURNDATASIZE PUSH0 REVERT JUMPDEST POP POP POP PUSH1 0x20 PUSH1 0x40 MLOAD SUB MLOAD SWAP1 POP PUSH0 PUSH20 0xFFFFFFFFFFFFFFFFFFFFFFFFFFFFFFFFFFFFFFFF AND DUP2 PUSH20 0xFFFFFFFFFFFFFFFFFFFFFFFFFFFFFFFFFFFFFFFF AND SUB PUSH2 0x3AAC JUMPI PUSH0 PUSH1 0x1 PUSH0 DUP1 SHL SWAP4 POP SWAP4 POP SWAP4 POP POP PUSH2 0x3AB9 JUMP JUMPDEST DUP1 PUSH0 DUP1 PUSH0 SHL SWAP4 POP SWAP4 POP SWAP4 POP POP JUMPDEST SWAP5 POP SWAP5 POP SWAP5 SWAP2 POP POP JUMP JUMPDEST CALLDATASIZE PUSH0 DUP1 CALLDATASIZE SWAP2 POP SWAP2 POP SWAP1 SWAP2 JUMP JUMPDEST PUSH0 PUSH1 0x40 MLOAD SWAP1 POP SWAP1 JUMP JUMPDEST PUSH0 DUP1 REVERT JUMPDEST PUSH0 DUP1 REVERT JUMPDEST PUSH0 PUSH32 0xFFFFFFFF00000000000000000000000000000000000000000000000000000000 DUP3 AND SWAP1 POP SWAP2 SWAP1 POP JUMP JUMPDEST PUSH2 0x3B14 DUP2 PUSH2 0x3AE0 JUMP JUMPDEST DUP2 EQ PUSH2 0x3B1E JUMPI PUSH0 DUP1 REVERT JUMPDEST POP JUMP JUMPDEST PUSH0 DUP2 CALLDATALOAD SWAP1 POP PUSH2 0x3B2F DUP2 PUSH2 0x3B0B JUMP JUMPDEST SWAP3 SWAP2 POP POP JUMP JUMPDEST PUSH0 PUSH1 0x20 DUP3 DUP5 SUB SLT ISZERO PUSH2 0x3B4A JUMPI PUSH2 0x3B49 PUSH2 0x3AD8 JUMP JUMPDEST JUMPDEST PUSH0 PUSH2 0x3B57 DUP5 DUP3 DUP6 ADD PUSH2 0x3B21 JUMP JUMPDEST SWAP2 POP POP SWAP3 SWAP2 POP POP JUMP JUMPDEST PUSH0 DUP2 ISZERO ISZERO SWAP1 POP SWAP2 SWAP1 POP JUMP JUMPDEST PUSH2 0x3B74 DUP2 PUSH2 0x3B60 JUMP JUMPDEST DUP3 MSTORE POP POP JUMP JUMPDEST PUSH0 PUSH1 0x20 DUP3 ADD SWAP1 POP PUSH2 0x3B8D PUSH0 DUP4 ADD DUP5 PUSH2 0x3B6B JUMP JUMPDEST SWAP3 SWAP2 POP POP JUMP JUMPDEST PUSH0 DUP1 REVERT JUMPDEST PUSH0 DUP1 REVERT JUMPDEST PUSH0 DUP1 REVERT JUMPDEST PUSH0 DUP1 DUP4 PUSH1 0x1F DUP5 ADD SLT PUSH2 0x3BB4 JUMPI PUSH2 0x3BB3 PUSH2 0x3B93 JUMP JUMPDEST JUMPDEST DUP3 CALLDATALOAD SWAP1 POP PUSH8 0xFFFFFFFFFFFFFFFF DUP2 GT ISZERO PUSH2 0x3BD1 JUMPI PUSH2 0x3BD0 PUSH2 0x3B97 JUMP JUMPDEST JUMPDEST PUSH1 0x20 DUP4 ADD SWAP2 POP DUP4 PUSH1 0x20 DUP3 MUL DUP4 ADD GT ISZERO PUSH2 0x3BED JUMPI PUSH2 0x3BEC PUSH2 0x3B9B JUMP JUMPDEST JUMPDEST SWAP3 POP SWAP3 SWAP1 POP JUMP JUMPDEST PUSH0 DUP1 DUP4 PUSH1 0x1F DUP5 ADD SLT PUSH2 0x3C09 JUMPI PUSH2 0x3C08 PUSH2 0x3B93 JUMP JUMPDEST JUMPDEST DUP3 CALLDATALOAD SWAP1 POP PUSH8 0xFFFFFFFFFFFFFFFF DUP2 GT ISZERO PUSH2 0x3C26 JUMPI PUSH2 0x3C25 PUSH2 0x3B97 JUMP JUMPDEST JUMPDEST PUSH1 0x20 DUP4 ADD SWAP2 POP DUP4 PUSH1 0x20 DUP3 MUL DUP4 ADD GT ISZERO PUSH2 0x3C42 JUMPI PUSH2 0x3C41 PUSH2 0x3B9B JUMP JUMPDEST JUMPDEST SWAP3 POP SWAP3 SWAP1 POP JUMP JUMPDEST PUSH0 DUP1 PUSH0 DUP1 PUSH1 0x40 DUP6 DUP8 SUB SLT ISZERO PUSH2 0x3C61 JUMPI PUSH2 0x3C60 PUSH2 0x3AD8 JUMP JUMPDEST JUMPDEST PUSH0 DUP6 ADD CALLDATALOAD PUSH8 0xFFFFFFFFFFFFFFFF DUP2 GT ISZERO PUSH2 0x3C7E JUMPI PUSH2 0x3C7D PUSH2 0x3ADC JUMP JUMPDEST JUMPDEST PUSH2 0x3C8A DUP8 DUP3 DUP9 ADD PUSH2 0x3B9F JUMP JUMPDEST SWAP5 POP SWAP5 POP POP PUSH1 0x20 DUP6 ADD CALLDATALOAD PUSH8 0xFFFFFFFFFFFFFFFF DUP2 GT ISZERO PUSH2 0x3CAD JUMPI PUSH2 0x3CAC PUSH2 0x3ADC JUMP JUMPDEST JUMPDEST PUSH2 0x3CB9 DUP8 DUP3 DUP9 ADD PUSH2 0x3BF4 JUMP JUMPDEST SWAP3 POP SWAP3 POP POP SWAP3 SWAP6 SWAP2 SWAP5 POP SWAP3 POP JUMP JUMPDEST PUSH0 PUSH20 0xFFFFFFFFFFFFFFFFFFFFFFFFFFFFFFFFFFFFFFFF DUP3 AND SWAP1 POP SWAP2 SWAP1 POP JUMP JUMPDEST PUSH0 PUSH2 0x3CF0 DUP3 PUSH2 0x3CC7 JUMP JUMPDEST SWAP1 POP SWAP2 SWAP1 POP JUMP JUMPDEST PUSH2 0x3D00 DUP2 PUSH2 0x3CE6 JUMP JUMPDEST DUP3 MSTORE POP POP JUMP JUMPDEST PUSH0 PUSH1 0x20 DUP3 ADD SWAP1 POP PUSH2 0x3D19 PUSH0 DUP4 ADD DUP5 PUSH2 0x3CF7 JUMP JUMPDEST SWAP3 SWAP2 POP POP JUMP JUMPDEST PUSH2 0x3D28 DUP2 PUSH2 0x3CE6 JUMP JUMPDEST DUP2 EQ PUSH2 0x3D32 JUMPI PUSH0 DUP1 REVERT JUMPDEST POP JUMP JUMPDEST PUSH0 DUP2 CALLDATALOAD SWAP1 POP PUSH2 0x3D43 DUP2 PUSH2 0x3D1F JUMP JUMPDEST SWAP3 SWAP2 POP POP JUMP JUMPDEST PUSH0 DUP2 SWAP1 POP SWAP2 SWAP1 POP JUMP JUMPDEST PUSH2 0x3D5B DUP2 PUSH2 0x3D49 JUMP JUMPDEST DUP2 EQ PUSH2 0x3D65 JUMPI PUSH0 DUP1 REVERT JUMPDEST POP JUMP JUMPDEST PUSH0 DUP2 CALLDATALOAD SWAP1 POP PUSH2 0x3D76 DUP2 PUSH2 0x3D52 JUMP JUMPDEST SWAP3 SWAP2 POP POP JUMP JUMPDEST PUSH0 DUP1 REVERT JUMPDEST PUSH0 PUSH1 0x1F NOT PUSH1 0x1F DUP4 ADD AND SWAP1 POP SWAP2 SWAP1 POP JUMP JUMPDEST PUSH32 0x4E487B7100000000000000000000000000000000000000000000000000000000 PUSH0 MSTORE PUSH1 0x41 PUSH1 0x4 MSTORE PUSH1 0x24 PUSH0 REVERT JUMPDEST PUSH2 0x3DC6 DUP3 PUSH2 0x3D80 JUMP JUMPDEST DUP2 ADD DUP2 DUP2 LT PUSH8 0xFFFFFFFFFFFFFFFF DUP3 GT OR ISZERO PUSH2 0x3DE5 JUMPI PUSH2 0x3DE4 PUSH2 0x3D90 JUMP JUMPDEST JUMPDEST DUP1 PUSH1 0x40 MSTORE POP POP POP JUMP JUMPDEST PUSH0 PUSH2 0x3DF7 PUSH2 0x3ACF JUMP JUMPDEST SWAP1 POP PUSH2 0x3E03 DUP3 DUP3 PUSH2 0x3DBD JUMP JUMPDEST SWAP2 SWAP1 POP JUMP JUMPDEST PUSH0 PUSH8 0xFFFFFFFFFFFFFFFF DUP3 GT ISZERO PUSH2 0x3E22 JUMPI PUSH2 0x3E21 PUSH2 0x3D90 JUMP JUMPDEST JUMPDEST PUSH2 0x3E2B DUP3 PUSH2 0x3D80 JUMP JUMPDEST SWAP1 POP PUSH1 0x20 DUP2 ADD SWAP1 POP SWAP2 SWAP1 POP JUMP JUMPDEST DUP3 DUP2 DUP4 CALLDATACOPY PUSH0 DUP4 DUP4 ADD MSTORE POP POP POP JUMP JUMPDEST PUSH0 PUSH2 0x3E58 PUSH2 0x3E53 DUP5 PUSH2 0x3E08 JUMP JUMPDEST PUSH2 0x3DEE JUMP JUMPDEST SWAP1 POP DUP3 DUP2 MSTORE PUSH1 0x20 DUP2 ADD DUP5 DUP5 DUP5 ADD GT ISZERO PUSH2 0x3E74 JUMPI PUSH2 0x3E73 PUSH2 0x3D7C JUMP JUMPDEST JUMPDEST PUSH2 0x3E7F DUP5 DUP3 DUP6 PUSH2 0x3E38 JUMP JUMPDEST POP SWAP4 SWAP3 POP POP POP JUMP JUMPDEST PUSH0 DUP3 PUSH1 0x1F DUP4 ADD SLT PUSH2 0x3E9B JUMPI PUSH2 0x3E9A PUSH2 0x3B93 JUMP JUMPDEST JUMPDEST DUP2 CALLDATALOAD PUSH2 0x3EAB DUP5 DUP3 PUSH1 0x20 DUP7 ADD PUSH2 0x3E46 JUMP JUMPDEST SWAP2 POP POP SWAP3 SWAP2 POP POP JUMP JUMPDEST PUSH0 DUP1 PUSH0 DUP1 PUSH1 0x80 DUP6 DUP8 SUB SLT ISZERO PUSH2 0x3ECC JUMPI PUSH2 0x3ECB PUSH2 0x3AD8 JUMP JUMPDEST JUMPDEST PUSH0 PUSH2 0x3ED9 DUP8 DUP3 DUP9 ADD PUSH2 0x3D35 JUMP JUMPDEST SWAP5 POP POP PUSH1 0x20 PUSH2 0x3EEA DUP8 DUP3 DUP9 ADD PUSH2 0x3D35 JUMP JUMPDEST SWAP4 POP POP PUSH1 0x40 PUSH2 0x3EFB DUP8 DUP3 DUP9 ADD PUSH2 0x3D68 JUMP JUMPDEST SWAP3 POP POP PUSH1 0x60 DUP6 ADD CALLDATALOAD PUSH8 0xFFFFFFFFFFFFFFFF DUP2 GT ISZERO PUSH2 0x3F1C JUMPI PUSH2 0x3F1B PUSH2 0x3ADC JUMP JUMPDEST JUMPDEST PUSH2 0x3F28 DUP8 DUP3 DUP9 ADD PUSH2 0x3E87 JUMP JUMPDEST SWAP2 POP POP SWAP3 SWAP6 SWAP2 SWAP5 POP SWAP3 POP JUMP JUMPDEST PUSH2 0x3F3D DUP2 PUSH2 0x3AE0 JUMP JUMPDEST DUP3 MSTORE POP POP JUMP JUMPDEST PUSH0 PUSH1 0x20 DUP3 ADD SWAP1 POP PUSH2 0x3F56 PUSH0 DUP4 ADD DUP5 PUSH2 0x3F34 JUMP JUMPDEST SWAP3 SWAP2 POP POP JUMP JUMPDEST PUSH0 DUP2 SWAP1 POP SWAP2 SWAP1 POP JUMP JUMPDEST PUSH2 0x3F6E DUP2 PUSH2 0x3F5C JUMP JUMPDEST DUP2 EQ PUSH2 0x3F78 JUMPI PUSH0 DUP1 REVERT JUMPDEST POP JUMP JUMPDEST PUSH0 DUP2 CALLDATALOAD SWAP1 POP PUSH2 0x3F89 DUP2 PUSH2 0x3F65 JUMP JUMPDEST SWAP3 SWAP2 POP POP JUMP JUMPDEST PUSH0 DUP1 DUP4 PUSH1 0x1F DUP5 ADD SLT PUSH2 0x3FA4 JUMPI PUSH2 0x3FA3 PUSH2 0x3B93 JUMP JUMPDEST JUMPDEST DUP3 CALLDATALOAD SWAP1 POP PUSH8 0xFFFFFFFFFFFFFFFF DUP2 GT ISZERO PUSH2 0x3FC1 JUMPI PUSH2 0x3FC0 PUSH2 0x3B97 JUMP JUMPDEST JUMPDEST PUSH1 0x20 DUP4 ADD SWAP2 POP DUP4 PUSH1 0x1 DUP3 MUL DUP4 ADD GT ISZERO PUSH2 0x3FDD JUMPI PUSH2 0x3FDC PUSH2 0x3B9B JUMP JUMPDEST JUMPDEST SWAP3 POP SWAP3 SWAP1 POP JUMP JUMPDEST PUSH0 DUP1 PUSH0 PUSH1 0x40 DUP5 DUP7 SUB SLT ISZERO PUSH2 0x3FFB JUMPI PUSH2 0x3FFA PUSH2 0x3AD8 JUMP JUMPDEST JUMPDEST PUSH0 PUSH2 0x4008 DUP7 DUP3 DUP8 ADD PUSH2 0x3F7B JUMP JUMPDEST SWAP4 POP POP PUSH1 0x20 DUP5 ADD CALLDATALOAD PUSH8 0xFFFFFFFFFFFFFFFF DUP2 GT ISZERO PUSH2 0x4029 JUMPI PUSH2 0x4028 PUSH2 0x3ADC JUMP JUMPDEST JUMPDEST PUSH2 0x4035 DUP7 DUP3 DUP8 ADD PUSH2 0x3F8F JUMP JUMPDEST SWAP3 POP SWAP3 POP POP SWAP3 POP SWAP3 POP SWAP3 JUMP JUMPDEST PUSH0 PUSH1 0x20 DUP3 DUP5 SUB SLT ISZERO PUSH2 0x4056 JUMPI PUSH2 0x4055 PUSH2 0x3AD8 JUMP JUMPDEST JUMPDEST PUSH0 PUSH2 0x4063 DUP5 DUP3 DUP6 ADD PUSH2 0x3F7B JUMP JUMPDEST SWAP2 POP POP SWAP3 SWAP2 POP POP JUMP JUMPDEST PUSH2 0x4075 DUP2 PUSH2 0x3F5C JUMP JUMPDEST DUP3 MSTORE POP POP JUMP JUMPDEST PUSH0 PUSH1 0x20 DUP3 ADD SWAP1 POP PUSH2 0x408E PUSH0 DUP4 ADD DUP5 PUSH2 0x406C JUMP JUMPDEST SWAP3 SWAP2 POP POP JUMP JUMPDEST PUSH0 DUP1 PUSH1 0x40 DUP4 DUP6 SUB SLT ISZERO PUSH2 0x40AA JUMPI PUSH2 0x40A9 PUSH2 0x3AD8 JUMP JUMPDEST JUMPDEST PUSH0 PUSH2 0x40B7 DUP6 DUP3 DUP7 ADD PUSH2 0x3D35 JUMP JUMPDEST SWAP3 POP POP PUSH1 0x20 PUSH2 0x40C8 DUP6 DUP3 DUP7 ADD PUSH2 0x3D35 JUMP JUMPDEST SWAP2 POP POP SWAP3 POP SWAP3 SWAP1 POP JUMP JUMPDEST PUSH0 PUSH1 0xFF DUP3 AND SWAP1 POP SWAP2 SWAP1 POP JUMP JUMPDEST PUSH2 0x40E7 DUP2 PUSH2 0x40D2 JUMP JUMPDEST DUP2 EQ PUSH2 0x40F1 JUMPI PUSH0 DUP1 REVERT JUMPDEST POP JUMP JUMPDEST PUSH0 DUP2 CALLDATALOAD SWAP1 POP PUSH2 0x4102 DUP2 PUSH2 0x40DE JUMP JUMPDEST SWAP3 SWAP2 POP POP JUMP JUMPDEST PUSH0 DUP1 DUP4 PUSH1 0x1F DUP5 ADD SLT PUSH2 0x411D JUMPI PUSH2 0x411C PUSH2 0x3B93 JUMP JUMPDEST JUMPDEST DUP3 CALLDATALOAD SWAP1 POP PUSH8 0xFFFFFFFFFFFFFFFF DUP2 GT ISZERO PUSH2 0x413A JUMPI PUSH2 0x4139 PUSH2 0x3B97 JUMP JUMPDEST JUMPDEST PUSH1 0x20 DUP4 ADD SWAP2 POP DUP4 PUSH1 0x60 DUP3 MUL DUP4 ADD GT ISZERO PUSH2 0x4156 JUMPI PUSH2 0x4155 PUSH2 0x3B9B JUMP JUMPDEST JUMPDEST SWAP3 POP SWAP3 SWAP1 POP JUMP JUMPDEST PUSH0 DUP1 PUSH0 DUP1 PUSH0 DUP1 PUSH0 PUSH1 0xA0 DUP9 DUP11 SUB SLT ISZERO PUSH2 0x4178 JUMPI PUSH2 0x4177 PUSH2 0x3AD8 JUMP JUMPDEST JUMPDEST PUSH0 PUSH2 0x4185 DUP11 DUP3 DUP12 ADD PUSH2 0x3D35 JUMP JUMPDEST SWAP8 POP POP PUSH1 0x20 PUSH2 0x4196 DUP11 DUP3 DUP12 ADD PUSH2 0x3D68 JUMP JUMPDEST SWAP7 POP POP PUSH1 0x40 DUP9 ADD CALLDATALOAD PUSH8 0xFFFFFFFFFFFFFFFF DUP2 GT ISZERO PUSH2 0x41B7 JUMPI PUSH2 0x41B6 PUSH2 0x3ADC JUMP JUMPDEST JUMPDEST PUSH2 0x41C3 DUP11 DUP3 DUP12 ADD PUSH2 0x3F8F JUMP JUMPDEST SWAP6 POP SWAP6 POP POP PUSH1 0x60 PUSH2 0x41D6 DUP11 DUP3 DUP12 ADD PUSH2 0x40F4 JUMP JUMPDEST SWAP4 POP POP PUSH1 0x80 DUP9 ADD CALLDATALOAD PUSH8 0xFFFFFFFFFFFFFFFF DUP2 GT ISZERO PUSH2 0x41F7 JUMPI PUSH2 0x41F6 PUSH2 0x3ADC JUMP JUMPDEST JUMPDEST PUSH2 0x4203 DUP11 DUP3 DUP12 ADD PUSH2 0x4108 JUMP JUMPDEST SWAP3 POP SWAP3 POP POP SWAP3 SWAP6 SWAP9 SWAP2 SWAP5 SWAP8 POP SWAP3 SWAP6 POP JUMP JUMPDEST PUSH0 DUP2 MLOAD SWAP1 POP SWAP2 SWAP1 POP JUMP JUMPDEST PUSH0 DUP3 DUP3 MSTORE PUSH1 0x20 DUP3 ADD SWAP1 POP SWAP3 SWAP2 POP POP JUMP JUMPDEST PUSH0 JUMPDEST DUP4 DUP2 LT ISZERO PUSH2 0x424B JUMPI DUP1 DUP3 ADD MLOAD DUP2 DUP5 ADD MSTORE PUSH1 0x20 DUP2 ADD SWAP1 POP PUSH2 0x4230 JUMP JUMPDEST PUSH0 DUP5 DUP5 ADD MSTORE POP POP POP POP JUMP JUMPDEST PUSH0 PUSH2 0x4260 DUP3 PUSH2 0x4214 JUMP JUMPDEST PUSH2 0x426A DUP2 DUP6 PUSH2 0x421E JUMP JUMPDEST SWAP4 POP PUSH2 0x427A DUP2 DUP6 PUSH1 0x20 DUP7 ADD PUSH2 0x422E JUMP JUMPDEST PUSH2 0x4283 DUP2 PUSH2 0x3D80 JUMP JUMPDEST DUP5 ADD SWAP2 POP POP SWAP3 SWAP2 POP POP JUMP JUMPDEST PUSH0 PUSH1 0x20 DUP3 ADD SWAP1 POP DUP2 DUP2 SUB PUSH0 DUP4 ADD MSTORE PUSH2 0x42A6 DUP2 DUP5 PUSH2 0x4256 JUMP JUMPDEST SWAP1 POP SWAP3 SWAP2 POP POP JUMP JUMPDEST PUSH0 DUP1 PUSH0 DUP1 PUSH1 0x60 DUP6 DUP8 SUB SLT ISZERO PUSH2 0x42C6 JUMPI PUSH2 0x42C5 PUSH2 0x3AD8 JUMP JUMPDEST JUMPDEST PUSH0 PUSH2 0x42D3 DUP8 DUP3 DUP9 ADD PUSH2 0x3D68 JUMP JUMPDEST SWAP5 POP POP PUSH1 0x20 PUSH2 0x42E4 DUP8 DUP3 DUP9 ADD PUSH2 0x3F7B JUMP JUMPDEST SWAP4 POP POP PUSH1 0x40 DUP6 ADD CALLDATALOAD PUSH8 0xFFFFFFFFFFFFFFFF DUP2 GT ISZERO PUSH2 0x4305 JUMPI PUSH2 0x4304 PUSH2 0x3ADC JUMP JUMPDEST JUMPDEST PUSH2 0x4311 DUP8 DUP3 DUP9 ADD PUSH2 0x3F8F JUMP JUMPDEST SWAP3 POP SWAP3 POP POP SWAP3 SWAP6 SWAP2 SWAP5 POP SWAP3 POP JUMP JUMPDEST PUSH0 DUP1 REVERT JUMPDEST PUSH0 PUSH2 0x160 DUP3 DUP5 SUB SLT ISZERO PUSH2 0x4339 JUMPI PUSH2 0x4338 PUSH2 0x431F JUMP JUMPDEST JUMPDEST DUP2 SWAP1 POP SWAP3 SWAP2 POP POP JUMP JUMPDEST PUSH0 DUP1 PUSH0 PUSH1 0x60 DUP5 DUP7 SUB SLT ISZERO PUSH2 0x4359 JUMPI PUSH2 0x4358 PUSH2 0x3AD8 JUMP JUMPDEST JUMPDEST PUSH0 DUP5 ADD CALLDATALOAD PUSH8 0xFFFFFFFFFFFFFFFF DUP2 GT ISZERO PUSH2 0x4376 JUMPI PUSH2 0x4375 PUSH2 0x3ADC JUMP JUMPDEST JUMPDEST PUSH2 0x4382 DUP7 DUP3 DUP8 ADD PUSH2 0x4323 JUMP JUMPDEST SWAP4 POP POP PUSH1 0x20 PUSH2 0x4393 DUP7 DUP3 DUP8 ADD PUSH2 0x3F7B JUMP JUMPDEST SWAP3 POP POP PUSH1 0x40 PUSH2 0x43A4 DUP7 DUP3 DUP8 ADD PUSH2 0x3D68 JUMP JUMPDEST SWAP2 POP POP SWAP3 POP SWAP3 POP SWAP3 JUMP JUMPDEST PUSH2 0x43B7 DUP2 PUSH2 0x3D49 JUMP JUMPDEST DUP3 MSTORE POP POP JUMP JUMPDEST PUSH0 PUSH1 0x20 DUP3 ADD SWAP1 POP PUSH2 0x43D0 PUSH0 DUP4 ADD DUP5 PUSH2 0x43AE JUMP JUMPDEST SWAP3 SWAP2 POP POP JUMP JUMPDEST PUSH0 DUP1 DUP4 PUSH1 0x1F DUP5 ADD SLT PUSH2 0x43EB JUMPI PUSH2 0x43EA PUSH2 0x3B93 JUMP JUMPDEST JUMPDEST DUP3 CALLDATALOAD SWAP1 POP PUSH8 0xFFFFFFFFFFFFFFFF DUP2 GT ISZERO PUSH2 0x4408 JUMPI PUSH2 0x4407 PUSH2 0x3B97 JUMP JUMPDEST JUMPDEST PUSH1 0x20 DUP4 ADD SWAP2 POP DUP4 PUSH1 0x20 DUP3 MUL DUP4 ADD GT ISZERO PUSH2 0x4424 JUMPI PUSH2 0x4423 PUSH2 0x3B9B JUMP JUMPDEST JUMPDEST SWAP3 POP SWAP3 SWAP1 POP JUMP JUMPDEST PUSH0 DUP1 PUSH1 0x20 DUP4 DUP6 SUB SLT ISZERO PUSH2 0x4441 JUMPI PUSH2 0x4440 PUSH2 0x3AD8 JUMP JUMPDEST JUMPDEST PUSH0 DUP4 ADD CALLDATALOAD PUSH8 0xFFFFFFFFFFFFFFFF DUP2 GT ISZERO PUSH2 0x445E JUMPI PUSH2 0x445D PUSH2 0x3ADC JUMP JUMPDEST JUMPDEST PUSH2 0x446A DUP6 DUP3 DUP7 ADD PUSH2 0x43D6 JUMP JUMPDEST SWAP3 POP SWAP3 POP POP SWAP3 POP SWAP3 SWAP1 POP JUMP JUMPDEST PUSH0 DUP2 MLOAD SWAP1 POP SWAP2 SWAP1 POP JUMP JUMPDEST PUSH0 DUP3 DUP3 MSTORE PUSH1 0x20 DUP3 ADD SWAP1 POP SWAP3 SWAP2 POP POP JUMP JUMPDEST PUSH0 DUP2 SWAP1 POP PUSH1 0x20 DUP3 ADD SWAP1 POP SWAP2 SWAP1 POP JUMP JUMPDEST PUSH0 DUP3 DUP3 MSTORE PUSH1 0x20 DUP3 ADD SWAP1 POP SWAP3 SWAP2 POP POP JUMP JUMPDEST PUSH0 PUSH2 0x44B9 DUP3 PUSH2 0x4214 JUMP JUMPDEST PUSH2 0x44C3 DUP2 DUP6 PUSH2 0x449F JUMP JUMPDEST SWAP4 POP PUSH2 0x44D3 DUP2 DUP6 PUSH1 0x20 DUP7 ADD PUSH2 0x422E JUMP JUMPDEST PUSH2 0x44DC DUP2 PUSH2 0x3D80 JUMP JUMPDEST DUP5 ADD SWAP2 POP POP SWAP3 SWAP2 POP POP JUMP JUMPDEST PUSH0 PUSH2 0x44F2 DUP4 DUP4 PUSH2 0x44AF JUMP JUMPDEST SWAP1 POP SWAP3 SWAP2 POP POP JUMP JUMPDEST PUSH0 PUSH1 0x20 DUP3 ADD SWAP1 POP SWAP2 SWAP1 POP JUMP JUMPDEST PUSH0 PUSH2 0x4510 DUP3 PUSH2 0x4476 JUMP JUMPDEST PUSH2 0x451A DUP2 DUP6 PUSH2 0x4480 JUMP JUMPDEST SWAP4 POP DUP4 PUSH1 0x20 DUP3 MUL DUP6 ADD PUSH2 0x452C DUP6 PUSH2 0x4490 JUMP JUMPDEST DUP1 PUSH0 JUMPDEST DUP6 DUP2 LT ISZERO PUSH2 0x4567 JUMPI DUP5 DUP5 SUB DUP10 MSTORE DUP2 MLOAD PUSH2 0x4548 DUP6 DUP3 PUSH2 0x44E7 JUMP JUMPDEST SWAP5 POP PUSH2 0x4553 DUP4 PUSH2 0x44FA JUMP JUMPDEST SWAP3 POP PUSH1 0x20 DUP11 ADD SWAP10 POP POP PUSH1 0x1 DUP2 ADD SWAP1 POP PUSH2 0x452F JUMP JUMPDEST POP DUP3 SWAP8 POP DUP8 SWAP6 POP POP POP POP POP POP SWAP3 SWAP2 POP POP JUMP JUMPDEST PUSH0 PUSH1 0x20 DUP3 ADD SWAP1 POP DUP2 DUP2 SUB PUSH0 DUP4 ADD MSTORE PUSH2 0x4591 DUP2 DUP5 PUSH2 0x4506 JUMP JUMPDEST SWAP1 POP SWAP3 SWAP2 POP POP JUMP JUMPDEST PUSH0 DUP1 PUSH0 PUSH1 0x40 DUP5 DUP7 SUB SLT ISZERO PUSH2 0x45B0 JUMPI PUSH2 0x45AF PUSH2 0x3AD8 JUMP JUMPDEST JUMPDEST PUSH0 PUSH2 0x45BD DUP7 DUP3 DUP8 ADD PUSH2 0x3D68 JUMP JUMPDEST SWAP4 POP POP PUSH1 0x20 DUP5 ADD CALLDATALOAD PUSH8 0xFFFFFFFFFFFFFFFF DUP2 GT ISZERO PUSH2 0x45DE JUMPI PUSH2 0x45DD PUSH2 0x3ADC JUMP JUMPDEST JUMPDEST PUSH2 0x45EA DUP7 DUP3 DUP8 ADD PUSH2 0x3F8F JUMP JUMPDEST SWAP3 POP SWAP3 POP POP SWAP3 POP SWAP3 POP SWAP3 JUMP JUMPDEST PUSH0 DUP1 PUSH0 DUP1 PUSH0 PUSH1 0x80 DUP7 DUP9 SUB SLT ISZERO PUSH2 0x460F JUMPI PUSH2 0x460E PUSH2 0x3AD8 JUMP JUMPDEST JUMPDEST PUSH0 PUSH2 0x461C DUP9 DUP3 DUP10 ADD PUSH2 0x3D35 JUMP JUMPDEST SWAP6 POP POP PUSH1 0x20 PUSH2 0x462D DUP9 DUP3 DUP10 ADD PUSH2 0x3D68 JUMP JUMPDEST SWAP5 POP POP PUSH1 0x40 DUP7 ADD CALLDATALOAD PUSH8 0xFFFFFFFFFFFFFFFF DUP2 GT ISZERO PUSH2 0x464E JUMPI PUSH2 0x464D PUSH2 0x3ADC JUMP JUMPDEST JUMPDEST PUSH2 0x465A DUP9 DUP3 DUP10 ADD PUSH2 0x3F8F JUMP JUMPDEST SWAP4 POP SWAP4 POP POP PUSH1 0x60 PUSH2 0x466D DUP9 DUP3 DUP10 ADD PUSH2 0x40F4 JUMP JUMPDEST SWAP2 POP POP SWAP3 SWAP6 POP SWAP3 SWAP6 SWAP1 SWAP4 POP JUMP JUMPDEST PUSH0 DUP1 PUSH0 PUSH1 0x40 DUP5 DUP7 SUB SLT ISZERO PUSH2 0x4691 JUMPI PUSH2 0x4690 PUSH2 0x3AD8 JUMP JUMPDEST JUMPDEST PUSH0 PUSH2 0x469E DUP7 DUP3 DUP8 ADD PUSH2 0x3D35 JUMP JUMPDEST SWAP4 POP POP PUSH1 0x20 DUP5 ADD CALLDATALOAD PUSH8 0xFFFFFFFFFFFFFFFF DUP2 GT ISZERO PUSH2 0x46BF JUMPI PUSH2 0x46BE PUSH2 0x3ADC JUMP JUMPDEST JUMPDEST PUSH2 0x46CB DUP7 DUP3 DUP8 ADD PUSH2 0x3F8F JUMP JUMPDEST SWAP3 POP SWAP3 POP POP SWAP3 POP SWAP3 POP SWAP3 JUMP JUMPDEST PUSH0 PUSH1 0x20 DUP3 DUP5 SUB SLT ISZERO PUSH2 0x46EC JUMPI PUSH2 0x46EB PUSH2 0x3AD8 JUMP JUMPDEST JUMPDEST PUSH0 PUSH2 0x46F9 DUP5 DUP3 DUP6 ADD PUSH2 0x3D35 JUMP JUMPDEST SWAP2 POP POP SWAP3 SWAP2 POP POP JUMP JUMPDEST PUSH0 DUP1 PUSH0 DUP1 PUSH0 PUSH1 0xA0 DUP7 DUP9 SUB SLT ISZERO PUSH2 0x471B JUMPI PUSH2 0x471A PUSH2 0x3AD8 JUMP JUMPDEST JUMPDEST PUSH0 PUSH2 0x4728 DUP9 DUP3 DUP10 ADD PUSH2 0x3D35 JUMP JUMPDEST SWAP6 POP POP PUSH1 0x20 PUSH2 0x4739 DUP9 DUP3 DUP10 ADD PUSH2 0x3D35 JUMP JUMPDEST SWAP5 POP POP PUSH1 0x40 PUSH2 0x474A DUP9 DUP3 DUP10 ADD PUSH2 0x3D68 JUMP JUMPDEST SWAP4 POP POP PUSH1 0x60 PUSH2 0x475B DUP9 DUP3 DUP10 ADD PUSH2 0x3D68 JUMP JUMPDEST SWAP3 POP POP PUSH1 0x80 PUSH2 0x476C DUP9 DUP3 DUP10 ADD PUSH2 0x3D68 JUMP JUMPDEST SWAP2 POP POP SWAP3 SWAP6 POP SWAP3 SWAP6 SWAP1 SWAP4 POP JUMP JUMPDEST PUSH0 DUP1 DUP4 PUSH1 0x1F DUP5 ADD SLT PUSH2 0x478E JUMPI PUSH2 0x478D PUSH2 0x3B93 JUMP JUMPDEST JUMPDEST DUP3 CALLDATALOAD SWAP1 POP PUSH8 0xFFFFFFFFFFFFFFFF DUP2 GT ISZERO PUSH2 0x47AB JUMPI PUSH2 0x47AA PUSH2 0x3B97 JUMP JUMPDEST JUMPDEST PUSH1 0x20 DUP4 ADD SWAP2 POP DUP4 PUSH1 0x20 DUP3 MUL DUP4 ADD GT ISZERO PUSH2 0x47C7 JUMPI PUSH2 0x47C6 PUSH2 0x3B9B JUMP JUMPDEST JUMPDEST SWAP3 POP SWAP3 SWAP1 POP JUMP JUMPDEST PUSH0 DUP1 PUSH0 DUP1 PUSH1 0x40 DUP6 DUP8 SUB SLT ISZERO PUSH2 0x47E6 JUMPI PUSH2 0x47E5 PUSH2 0x3AD8 JUMP JUMPDEST JUMPDEST PUSH0 DUP6 ADD CALLDATALOAD PUSH8 0xFFFFFFFFFFFFFFFF DUP2 GT ISZERO PUSH2 0x4803 JUMPI PUSH2 0x4802 PUSH2 0x3ADC JUMP JUMPDEST JUMPDEST PUSH2 0x480F DUP8 DUP3 DUP9 ADD PUSH2 0x4779 JUMP JUMPDEST SWAP5 POP SWAP5 POP POP PUSH1 0x20 DUP6 ADD CALLDATALOAD PUSH8 0xFFFFFFFFFFFFFFFF DUP2 GT ISZERO PUSH2 0x4832 JUMPI PUSH2 0x4831 PUSH2 0x3ADC JUMP JUMPDEST JUMPDEST PUSH2 0x483E DUP8 DUP3 DUP9 ADD PUSH2 0x3B9F JUMP JUMPDEST SWAP3 POP SWAP3 POP POP SWAP3 SWAP6 SWAP2 SWAP5 POP SWAP3 POP JUMP JUMPDEST PUSH0 DUP2 SWAP1 POP SWAP2 SWAP1 POP JUMP JUMPDEST PUSH0 PUSH2 0x486F PUSH2 0x486A PUSH2 0x4865 DUP5 PUSH2 0x3CC7 JUMP JUMPDEST PUSH2 0x484C JUMP JUMPDEST PUSH2 0x3CC7 JUMP JUMPDEST SWAP1 POP SWAP2 SWAP1 POP JUMP JUMPDEST PUSH0 PUSH2 0x4880 DUP3 PUSH2 0x4855 JUMP JUMPDEST SWAP1 POP SWAP2 SWAP1 POP JUMP JUMPDEST PUSH0 PUSH2 0x4891 DUP3 PUSH2 0x4876 JUMP JUMPDEST SWAP1 POP SWAP2 SWAP1 POP JUMP JUMPDEST PUSH2 0x48A1 DUP2 PUSH2 0x4887 JUMP JUMPDEST DUP3 MSTORE POP POP JUMP JUMPDEST PUSH0 PUSH1 0x20 DUP3 ADD SWAP1 POP PUSH2 0x48BA PUSH0 DUP4 ADD DUP5 PUSH2 0x4898 JUMP JUMPDEST SWAP3 SWAP2 POP POP JUMP JUMPDEST PUSH0 DUP1 PUSH0 DUP1 PUSH1 0x60 DUP6 DUP8 SUB SLT ISZERO PUSH2 0x48D8 JUMPI PUSH2 0x48D7 PUSH2 0x3AD8 JUMP JUMPDEST JUMPDEST PUSH0 PUSH2 0x48E5 DUP8 DUP3 DUP9 ADD PUSH2 0x3D35 JUMP JUMPDEST SWAP5 POP POP PUSH1 0x20 PUSH2 0x48F6 DUP8 DUP3 DUP9 ADD PUSH2 0x3D68 JUMP JUMPDEST SWAP4 POP POP PUSH1 0x40 DUP6 ADD CALLDATALOAD PUSH8 0xFFFFFFFFFFFFFFFF DUP2 GT ISZERO PUSH2 0x4917 JUMPI PUSH2 0x4916 PUSH2 0x3ADC JUMP JUMPDEST JUMPDEST PUSH2 0x4923 DUP8 DUP3 DUP9 ADD PUSH2 0x3F8F JUMP JUMPDEST SWAP3 POP SWAP3 POP POP SWAP3 SWAP6 SWAP2 SWAP5 POP SWAP3 POP JUMP JUMPDEST PUSH0 PUSH8 0xFFFFFFFFFFFFFFFF DUP3 GT ISZERO PUSH2 0x494B JUMPI PUSH2 0x494A PUSH2 0x3D90 JUMP JUMPDEST JUMPDEST PUSH1 0x20 DUP3 MUL SWAP1 POP PUSH1 0x20 DUP2 ADD SWAP1 POP SWAP2 SWAP1 POP JUMP JUMPDEST PUSH0 PUSH2 0x496E PUSH2 0x4969 DUP5 PUSH2 0x4931 JUMP JUMPDEST PUSH2 0x3DEE JUMP JUMPDEST SWAP1 POP DUP1 DUP4 DUP3 MSTORE PUSH1 0x20 DUP3 ADD SWAP1 POP PUSH1 0x20 DUP5 MUL DUP4 ADD DUP6 DUP2 GT ISZERO PUSH2 0x4991 JUMPI PUSH2 0x4990 PUSH2 0x3B9B JUMP JUMPDEST JUMPDEST DUP4 JUMPDEST DUP2 DUP2 LT ISZERO PUSH2 0x49BA JUMPI DUP1 PUSH2 0x49A6 DUP9 DUP3 PUSH2 0x3D68 JUMP JUMPDEST DUP5 MSTORE PUSH1 0x20 DUP5 ADD SWAP4 POP POP PUSH1 0x20 DUP2 ADD SWAP1 POP PUSH2 0x4993 JUMP JUMPDEST POP POP POP SWAP4 SWAP3 POP POP POP JUMP JUMPDEST PUSH0 DUP3 PUSH1 0x1F DUP4 ADD SLT PUSH2 0x49D8 JUMPI PUSH2 0x49D7 PUSH2 0x3B93 JUMP JUMPDEST JUMPDEST DUP2 CALLDATALOAD PUSH2 0x49E8 DUP5 DUP3 PUSH1 0x20 DUP7 ADD PUSH2 0x495C JUMP JUMPDEST SWAP2 POP POP SWAP3 SWAP2 POP POP JUMP JUMPDEST PUSH0 DUP1 PUSH0 DUP1 PUSH0 PUSH1 0xA0 DUP7 DUP9 SUB SLT ISZERO PUSH2 0x4A0A JUMPI PUSH2 0x4A09 PUSH2 0x3AD8 JUMP JUMPDEST JUMPDEST PUSH0 PUSH2 0x4A17 DUP9 DUP3 DUP10 ADD PUSH2 0x3D35 JUMP JUMPDEST SWAP6 POP POP PUSH1 0x20 PUSH2 0x4A28 DUP9 DUP3 DUP10 ADD PUSH2 0x3D35 JUMP JUMPDEST SWAP5 POP POP PUSH1 0x40 DUP7 ADD CALLDATALOAD PUSH8 0xFFFFFFFFFFFFFFFF DUP2 GT ISZERO PUSH2 0x4A49 JUMPI PUSH2 0x4A48 PUSH2 0x3ADC JUMP JUMPDEST JUMPDEST PUSH2 0x4A55 DUP9 DUP3 DUP10 ADD PUSH2 0x49C4 JUMP JUMPDEST SWAP4 POP POP PUSH1 0x60 DUP7 ADD CALLDATALOAD PUSH8 0xFFFFFFFFFFFFFFFF DUP2 GT ISZERO PUSH2 0x4A76 JUMPI PUSH2 0x4A75 PUSH2 0x3ADC JUMP JUMPDEST JUMPDEST PUSH2 0x4A82 DUP9 DUP3 DUP10 ADD PUSH2 0x49C4 JUMP JUMPDEST SWAP3 POP POP PUSH1 0x80 DUP7 ADD CALLDATALOAD PUSH8 0xFFFFFFFFFFFFFFFF DUP2 GT ISZERO PUSH2 0x4AA3 JUMPI PUSH2 0x4AA2 PUSH2 0x3ADC JUMP JUMPDEST JUMPDEST PUSH2 0x4AAF DUP9 DUP3 DUP10 ADD PUSH2 0x3E87 JUMP JUMPDEST SWAP2 POP POP SWAP3 SWAP6 POP SWAP3 SWAP6 SWAP1 SWAP4 POP JUMP JUMPDEST PUSH0 PUSH1 0x20 DUP3 DUP5 SUB SLT ISZERO PUSH2 0x4AD1 JUMPI PUSH2 0x4AD0 PUSH2 0x3AD8 JUMP JUMPDEST JUMPDEST PUSH0 PUSH2 0x4ADE DUP5 DUP3 DUP6 ADD PUSH2 0x3D68 JUMP JUMPDEST SWAP2 POP POP SWAP3 SWAP2 POP POP JUMP JUMPDEST PUSH0 DUP1 PUSH1 0x40 DUP4 DUP6 SUB SLT ISZERO PUSH2 0x4AFD JUMPI PUSH2 0x4AFC PUSH2 0x3AD8 JUMP JUMPDEST JUMPDEST PUSH0 PUSH2 0x4B0A DUP6 DUP3 DUP7 ADD PUSH2 0x3D35 JUMP JUMPDEST SWAP3 POP POP PUSH1 0x20 PUSH2 0x4B1B DUP6 DUP3 DUP7 ADD PUSH2 0x3B21 JUMP JUMPDEST SWAP2 POP POP SWAP3 POP SWAP3 SWAP1 POP JUMP JUMPDEST PUSH0 DUP1 PUSH0 DUP1 PUSH0 PUSH1 0xA0 DUP7 DUP9 SUB SLT ISZERO PUSH2 0x4B3E JUMPI PUSH2 0x4B3D PUSH2 0x3AD8 JUMP JUMPDEST JUMPDEST PUSH0 PUSH2 0x4B4B DUP9 DUP3 DUP10 ADD PUSH2 0x3D35 JUMP JUMPDEST SWAP6 POP POP PUSH1 0x20 PUSH2 0x4B5C DUP9 DUP3 DUP10 ADD PUSH2 0x3D35 JUMP JUMPDEST SWAP5 POP POP PUSH1 0x40 PUSH2 0x4B6D DUP9 DUP3 DUP10 ADD PUSH2 0x3D68 JUMP JUMPDEST SWAP4 POP POP PUSH1 0x60 PUSH2 0x4B7E DUP9 DUP3 DUP10 ADD PUSH2 0x3D68 JUMP JUMPDEST SWAP3 POP POP PUSH1 0x80 DUP7 ADD CALLDATALOAD PUSH8 0xFFFFFFFFFFFFFFFF DUP2 GT ISZERO PUSH2 0x4B9F JUMPI PUSH2 0x4B9E PUSH2 0x3ADC JUMP JUMPDEST JUMPDEST PUSH2 0x4BAB DUP9 DUP3 DUP10 ADD PUSH2 0x3E87 JUMP JUMPDEST SWAP2 POP POP SWAP3 SWAP6 POP SWAP3 SWAP6 SWAP1 SWAP4 POP JUMP JUMPDEST PUSH0 PUSH1 0x60 DUP3 ADD SWAP1 POP PUSH2 0x4BCB PUSH0 DUP4 ADD DUP7 PUSH2 0x43AE JUMP JUMPDEST PUSH2 0x4BD8 PUSH1 0x20 DUP4 ADD DUP6 PUSH2 0x3CF7 JUMP JUMPDEST PUSH2 0x4BE5 PUSH1 0x40 DUP4 ADD DUP5 PUSH2 0x43AE JUMP JUMPDEST SWAP5 SWAP4 POP POP POP POP JUMP JUMPDEST PUSH0 DUP2 PUSH1 0x60 SHL SWAP1 POP SWAP2 SWAP1 POP JUMP JUMPDEST PUSH0 PUSH2 0x4C03 DUP3 PUSH2 0x4BED JUMP JUMPDEST SWAP1 POP SWAP2 SWAP1 POP JUMP JUMPDEST PUSH0 PUSH2 0x4C14 DUP3 PUSH2 0x4BF9 JUMP JUMPDEST SWAP1 POP SWAP2 SWAP1 POP JUMP JUMPDEST PUSH2 0x4C2C PUSH2 0x4C27 DUP3 PUSH2 0x3CE6 JUMP JUMPDEST PUSH2 0x4C0A JUMP JUMPDEST DUP3 MSTORE POP POP JUMP JUMPDEST PUSH0 DUP2 SWAP1 POP SWAP3 SWAP2 POP POP JUMP JUMPDEST PUSH0 PUSH2 0x4C47 DUP4 DUP6 PUSH2 0x4C32 JUMP JUMPDEST SWAP4 POP PUSH2 0x4C54 DUP4 DUP6 DUP5 PUSH2 0x3E38 JUMP JUMPDEST DUP3 DUP5 ADD SWAP1 POP SWAP4 SWAP3 POP POP POP JUMP JUMPDEST PUSH0 PUSH2 0x4C6B DUP3 DUP8 PUSH2 0x4C1B JUMP JUMPDEST PUSH1 0x14 DUP3 ADD SWAP2 POP PUSH2 0x4C7C DUP3 DUP6 DUP8 PUSH2 0x4C3C JUMP JUMPDEST SWAP2 POP PUSH2 0x4C88 DUP3 DUP5 PUSH2 0x4C1B JUMP JUMPDEST PUSH1 0x14 DUP3 ADD SWAP2 POP DUP2 SWAP1 POP SWAP6 SWAP5 POP POP POP POP POP JUMP JUMPDEST PUSH0 PUSH2 0x4CA4 DUP3 PUSH2 0x4214 JUMP JUMPDEST PUSH2 0x4CAE DUP2 DUP6 PUSH2 0x4C32 JUMP JUMPDEST SWAP4 POP PUSH2 0x4CBE DUP2 DUP6 PUSH1 0x20 DUP7 ADD PUSH2 0x422E JUMP JUMPDEST DUP1 DUP5 ADD SWAP2 POP POP SWAP3 SWAP2 POP POP JUMP JUMPDEST PUSH0 PUSH2 0x4CD5 DUP3 DUP5 PUSH2 0x4C9A JUMP JUMPDEST SWAP2 POP DUP2 SWAP1 POP SWAP3 SWAP2 POP POP JUMP JUMPDEST PUSH32 0x4E487B7100000000000000000000000000000000000000000000000000000000 PUSH0 MSTORE PUSH1 0x32 PUSH1 0x4 MSTORE PUSH1 0x24 PUSH0 REVERT JUMPDEST PUSH2 0x4D16 DUP2 PUSH2 0x3B60 JUMP JUMPDEST DUP2 EQ PUSH2 0x4D20 JUMPI PUSH0 DUP1 REVERT JUMPDEST POP JUMP JUMPDEST PUSH0 DUP2 CALLDATALOAD SWAP1 POP PUSH2 0x4D31 DUP2 PUSH2 0x4D0D JUMP JUMPDEST SWAP3 SWAP2 POP POP JUMP JUMPDEST PUSH0 PUSH1 0x20 DUP3 DUP5 SUB SLT ISZERO PUSH2 0x4D4C JUMPI PUSH2 0x4D4B PUSH2 0x3AD8 JUMP JUMPDEST JUMPDEST PUSH0 PUSH2 0x4D59 DUP5 DUP3 DUP6 ADD PUSH2 0x4D23 JUMP JUMPDEST SWAP2 POP POP SWAP3 SWAP2 POP POP JUMP JUMPDEST PUSH0 PUSH1 0x60 DUP3 ADD SWAP1 POP PUSH2 0x4D75 PUSH0 DUP4 ADD DUP7 PUSH2 0x3CF7 JUMP JUMPDEST PUSH2 0x4D82 PUSH1 0x20 DUP4 ADD DUP6 PUSH2 0x3CF7 JUMP JUMPDEST PUSH2 0x4D8F PUSH1 0x40 DUP4 ADD DUP5 PUSH2 0x3B6B JUMP JUMPDEST SWAP5 SWAP4 POP POP POP POP JUMP JUMPDEST PUSH32 0x4E487B7100000000000000000000000000000000000000000000000000000000 PUSH0 MSTORE PUSH1 0x11 PUSH1 0x4 MSTORE PUSH1 0x24 PUSH0 REVERT JUMPDEST PUSH0 PUSH2 0x4DCE DUP3 PUSH2 0x3D49 JUMP JUMPDEST SWAP2 POP PUSH32 0xFFFFFFFFFFFFFFFFFFFFFFFFFFFFFFFFFFFFFFFFFFFFFFFFFFFFFFFFFFFFFFFF DUP3 SUB PUSH2 0x4E00 JUMPI PUSH2 0x4DFF PUSH2 0x4D97 JUMP JUMPDEST JUMPDEST PUSH1 0x1 DUP3 ADD SWAP1 POP SWAP2 SWAP1 POP JUMP JUMPDEST PUSH0 DUP2 MLOAD SWAP1 POP PUSH2 0x4E19 DUP2 PUSH2 0x4D0D JUMP JUMPDEST SWAP3 SWAP2 POP POP JUMP JUMPDEST PUSH0 PUSH1 0x20 DUP3 DUP5 SUB SLT ISZERO PUSH2 0x4E34 JUMPI PUSH2 0x4E33 PUSH2 0x3AD8 JUMP JUMPDEST JUMPDEST PUSH0 PUSH2 0x4E41 DUP5 DUP3 DUP6 ADD PUSH2 0x4E0B JUMP JUMPDEST SWAP2 POP POP SWAP3 SWAP2 POP POP JUMP JUMPDEST PUSH0 DUP2 MLOAD SWAP1 POP PUSH2 0x4E58 DUP2 PUSH2 0x3D1F JUMP JUMPDEST SWAP3 SWAP2 POP POP JUMP JUMPDEST PUSH0 PUSH1 0x20 DUP3 DUP5 SUB SLT ISZERO PUSH2 0x4E73 JUMPI PUSH2 0x4E72 PUSH2 0x3AD8 JUMP JUMPDEST JUMPDEST PUSH0 PUSH2 0x4E80 DUP5 DUP3 DUP6 ADD PUSH2 0x4E4A JUMP JUMPDEST SWAP2 POP POP SWAP3 SWAP2 POP POP JUMP JUMPDEST PUSH0 DUP1 REVERT JUMPDEST PUSH0 DUP1 REVERT JUMPDEST PUSH0 DUP1 REVERT JUMPDEST PUSH0 DUP3 CALLDATALOAD PUSH1 0x1 PUSH1 0x80 SUB DUP4 CALLDATASIZE SUB SUB DUP2 SLT PUSH2 0x4EB0 JUMPI PUSH2 0x4EAF PUSH2 0x4E89 JUMP JUMPDEST JUMPDEST DUP1 DUP4 ADD SWAP2 POP POP SWAP3 SWAP2 POP POP JUMP JUMPDEST PUSH0 DUP1 DUP4 CALLDATALOAD PUSH1 0x1 PUSH1 0x20 SUB DUP5 CALLDATASIZE SUB SUB DUP2 SLT PUSH2 0x4ED8 JUMPI PUSH2 0x4ED7 PUSH2 0x4E89 JUMP JUMPDEST JUMPDEST DUP1 DUP5 ADD SWAP3 POP DUP3 CALLDATALOAD SWAP2 POP PUSH8 0xFFFFFFFFFFFFFFFF DUP3 GT ISZERO PUSH2 0x4EFA JUMPI PUSH2 0x4EF9 PUSH2 0x4E8D JUMP JUMPDEST JUMPDEST PUSH1 0x20 DUP4 ADD SWAP3 POP PUSH1 0x1 DUP3 MUL CALLDATASIZE SUB DUP4 SGT ISZERO PUSH2 0x4F16 JUMPI PUSH2 0x4F15 PUSH2 0x4E91 JUMP JUMPDEST JUMPDEST POP SWAP3 POP SWAP3 SWAP1 POP JUMP JUMPDEST PUSH0 PUSH1 0x20 DUP3 DUP5 SUB SLT ISZERO PUSH2 0x4F33 JUMPI PUSH2 0x4F32 PUSH2 0x3AD8 JUMP JUMPDEST JUMPDEST PUSH0 PUSH2 0x4F40 DUP5 DUP3 DUP6 ADD PUSH2 0x40F4 JUMP JUMPDEST SWAP2 POP POP SWAP3 SWAP2 POP POP JUMP JUMPDEST PUSH0 DUP3 DUP3 MSTORE PUSH1 0x20 DUP3 ADD SWAP1 POP SWAP3 SWAP2 POP POP JUMP JUMPDEST PUSH32 0x4E6F7420426F742057616C6C6574000000000000000000000000000000000000 PUSH0 DUP3 ADD MSTORE POP JUMP JUMPDEST PUSH0 PUSH2 0x4F8D PUSH1 0xE DUP4 PUSH2 0x4F49 JUMP JUMPDEST SWAP2 POP PUSH2 0x4F98 DUP3 PUSH2 0x4F59 JUMP JUMPDEST PUSH1 0x20 DUP3 ADD SWAP1 POP SWAP2 SWAP1 POP JUMP JUMPDEST PUSH0 PUSH1 0x20 DUP3 ADD SWAP1 POP DUP2 DUP2 SUB PUSH0 DUP4 ADD MSTORE PUSH2 0x4FBA DUP2 PUSH2 0x4F81 JUMP JUMPDEST SWAP1 POP SWAP2 SWAP1 POP JUMP JUMPDEST PUSH0 DUP2 MLOAD SWAP1 POP PUSH2 0x4FCF DUP2 PUSH2 0x3D52 JUMP JUMPDEST SWAP3 SWAP2 POP POP JUMP JUMPDEST PUSH0 PUSH1 0x20 DUP3 DUP5 SUB SLT ISZERO PUSH2 0x4FEA JUMPI PUSH2 0x4FE9 PUSH2 0x3AD8 JUMP JUMPDEST JUMPDEST PUSH0 PUSH2 0x4FF7 DUP5 DUP3 DUP6 ADD PUSH2 0x4FC1 JUMP JUMPDEST SWAP2 POP POP SWAP3 SWAP2 POP POP JUMP JUMPDEST PUSH32 0x4E6F7420656E6F75676820555344430000000000000000000000000000000000 PUSH0 DUP3 ADD MSTORE POP JUMP JUMPDEST PUSH0 PUSH2 0x5034 PUSH1 0xF DUP4 PUSH2 0x4F49 JUMP JUMPDEST SWAP2 POP PUSH2 0x503F DUP3 PUSH2 0x5000 JUMP JUMPDEST PUSH1 0x20 DUP3 ADD SWAP1 POP SWAP2 SWAP1 POP JUMP JUMPDEST PUSH0 PUSH1 0x20 DUP3 ADD SWAP1 POP DUP2 DUP2 SUB PUSH0 DUP4 ADD MSTORE PUSH2 0x5061 DUP2 PUSH2 0x5028 JUMP JUMPDEST SWAP1 POP SWAP2 SWAP1 POP JUMP JUMPDEST PUSH0 PUSH2 0x5072 DUP3 PUSH2 0x3D49 JUMP JUMPDEST SWAP2 POP PUSH2 0x507D DUP4 PUSH2 0x3D49 JUMP JUMPDEST SWAP3 POP DUP3 DUP3 ADD SWAP1 POP DUP1 DUP3 GT ISZERO PUSH2 0x5095 JUMPI PUSH2 0x5094 PUSH2 0x4D97 JUMP JUMPDEST JUMPDEST SWAP3 SWAP2 POP POP JUMP JUMPDEST PUSH0 PUSH1 0x40 DUP3 ADD SWAP1 POP PUSH2 0x50AE PUSH0 DUP4 ADD DUP6 PUSH2 0x3CF7 JUMP JUMPDEST PUSH2 0x50BB PUSH1 0x20 DUP4 ADD DUP5 PUSH2 0x43AE JUMP JUMPDEST SWAP4 SWAP3 POP POP POP JUMP JUMPDEST PUSH2 0x50CB DUP2 PUSH2 0x3CE6 JUMP JUMPDEST DUP3 MSTORE POP POP JUMP JUMPDEST PUSH0 PUSH3 0xFFFFFF DUP3 AND SWAP1 POP SWAP2 SWAP1 POP JUMP JUMPDEST PUSH2 0x50E8 DUP2 PUSH2 0x50D1 JUMP JUMPDEST DUP3 MSTORE POP POP JUMP JUMPDEST PUSH2 0x50F7 DUP2 PUSH2 0x3D49 JUMP JUMPDEST DUP3 MSTORE POP POP JUMP JUMPDEST PUSH2 0x5106 DUP2 PUSH2 0x3CC7 JUMP JUMPDEST DUP3 MSTORE POP POP JUMP JUMPDEST PUSH2 0x100 DUP3 ADD PUSH0 DUP3 ADD MLOAD PUSH2 0x5121 PUSH0 DUP6 ADD DUP3 PUSH2 0x50C2 JUMP JUMPDEST POP PUSH1 0x20 DUP3 ADD MLOAD PUSH2 0x5134 PUSH1 0x20 DUP6 ADD DUP3 PUSH2 0x50C2 JUMP JUMPDEST POP PUSH1 0x40 DUP3 ADD MLOAD PUSH2 0x5147 PUSH1 0x40 DUP6 ADD DUP3 PUSH2 0x50DF JUMP JUMPDEST POP PUSH1 0x60 DUP3 ADD MLOAD PUSH2 0x515A PUSH1 0x60 DUP6 ADD DUP3 PUSH2 0x50C2 JUMP JUMPDEST POP PUSH1 0x80 DUP3 ADD MLOAD PUSH2 0x516D PUSH1 0x80 DUP6 ADD DUP3 PUSH2 0x50EE JUMP JUMPDEST POP PUSH1 0xA0 DUP3 ADD MLOAD PUSH2 0x5180 PUSH1 0xA0 DUP6 ADD DUP3 PUSH2 0x50EE JUMP JUMPDEST POP PUSH1 0xC0 DUP3 ADD MLOAD PUSH2 0x5193 PUSH1 0xC0 DUP6 ADD DUP3 PUSH2 0x50EE JUMP JUMPDEST POP PUSH1 0xE0 DUP3 ADD MLOAD PUSH2 0x51A6 PUSH1 0xE0 DUP6 ADD DUP3 PUSH2 0x50FD JUMP JUMPDEST POP POP POP POP JUMP JUMPDEST PUSH0 PUSH2 0x100 DUP3 ADD SWAP1 POP PUSH2 0x51C0 PUSH0 DUP4 ADD DUP5 PUSH2 0x510C JUMP JUMPDEST SWAP3 SWAP2 POP POP JUMP JUMPDEST PUSH0 PUSH1 0x60 DUP3 ADD SWAP1 POP PUSH2 0x51D9 PUSH0 DUP4 ADD DUP7 PUSH2 0x3CF7 JUMP JUMPDEST PUSH2 0x51E6 PUSH1 0x20 DUP4 ADD DUP6 PUSH2 0x3F34 JUMP JUMPDEST PUSH2 0x51F3 PUSH1 0x40 DUP4 ADD DUP5 PUSH2 0x3CF7 JUMP JUMPDEST SWAP5 SWAP4 POP POP POP POP JUMP JUMPDEST PUSH0 DUP2 SWAP1 POP SWAP2 SWAP1 POP JUMP JUMPDEST PUSH0 PUSH24 0xFFFFFFFFFFFFFFFFFFFFFFFFFFFFFFFFFFFFFFFFFFFFFFFF DUP3 AND SWAP1 POP SWAP2 SWAP1 POP JUMP JUMPDEST PUSH0 PUSH2 0x5241 PUSH2 0x523C PUSH2 0x5237 DUP5 PUSH2 0x51FB JUMP JUMPDEST PUSH2 0x484C JUMP JUMPDEST PUSH2 0x5204 JUMP JUMPDEST SWAP1 POP SWAP2 SWAP1 POP JUMP JUMPDEST PUSH2 0x5251 DUP2 PUSH2 0x5227 JUMP JUMPDEST DUP3 MSTORE POP POP JUMP JUMPDEST PUSH0 PUSH1 0x40 DUP3 ADD SWAP1 POP PUSH2 0x526A PUSH0 DUP4 ADD DUP6 PUSH2 0x3CF7 JUMP JUMPDEST PUSH2 0x5277 PUSH1 0x20 DUP4 ADD DUP5 PUSH2 0x5248 JUMP JUMPDEST SWAP4 SWAP3 POP POP POP JUMP JUMPDEST PUSH0 PUSH2 0x528A DUP3 DUP5 DUP7 PUSH2 0x4C3C JUMP JUMPDEST SWAP2 POP DUP2 SWAP1 POP SWAP4 SWAP3 POP POP POP JUMP JUMPDEST PUSH0 DUP1 REVERT JUMPDEST PUSH0 DUP1 REVERT JUMPDEST PUSH0 DUP1 DUP6 DUP6 GT ISZERO PUSH2 0x52B1 JUMPI PUSH2 0x52B0 PUSH2 0x5296 JUMP JUMPDEST JUMPDEST DUP4 DUP7 GT ISZERO PUSH2 0x52C2 JUMPI PUSH2 0x52C1 PUSH2 0x529A JUMP JUMPDEST JUMPDEST PUSH1 0x1 DUP6 MUL DUP4 ADD SWAP2 POP DUP5 DUP7 SUB SWAP1 POP SWAP5 POP SWAP5 SWAP3 POP POP POP JUMP JUMPDEST PUSH0 DUP3 SWAP1 POP SWAP3 SWAP2 POP POP JUMP JUMPDEST PUSH0 DUP3 DUP3 SHL SWAP1 POP SWAP3 SWAP2 POP POP JUMP JUMPDEST PUSH0 PUSH2 0x52F9 DUP4 DUP4 PUSH2 0x52D8 JUMP JUMPDEST DUP3 PUSH2 0x5304 DUP2 CALLDATALOAD PUSH2 0x3F5C JUMP JUMPDEST SWAP3 POP PUSH1 0x20 DUP3 LT ISZERO PUSH2 0x5344 JUMPI PUSH2 0x533F PUSH32 0xFFFFFFFFFFFFFFFFFFFFFFFFFFFFFFFFFFFFFFFFFFFFFFFFFFFFFFFFFFFFFFFF DUP4 PUSH1 0x20 SUB PUSH1 0x8 MUL PUSH2 0x52E2 JUMP JUMPDEST DUP4 AND SWAP3 POP JUMPDEST POP POP SWAP3 SWAP2 POP POP JUMP JUMPDEST PUSH32 0x4E487B7100000000000000000000000000000000000000000000000000000000 PUSH0 MSTORE PUSH1 0x21 PUSH1 0x4 MSTORE PUSH1 0x24 PUSH0 REVERT JUMPDEST PUSH0 PUSH2 0x5384 DUP3 DUP7 PUSH2 0x4C1B JUMP JUMPDEST PUSH1 0x14 DUP3 ADD SWAP2 POP PUSH2 0x5395 DUP3 DUP5 DUP7 PUSH2 0x4C3C JUMP JUMPDEST SWAP2 POP DUP2 SWAP1 POP SWAP5 SWAP4 POP POP POP POP JUMP JUMPDEST PUSH0 PUSH2 0x53AD DUP3 DUP5 PUSH2 0x4C1B JUMP JUMPDEST PUSH1 0x14 DUP3 ADD SWAP2 POP DUP2 SWAP1 POP SWAP3 SWAP2 POP POP JUMP JUMPDEST PUSH32 0x6163636F756E743A206E6F742066726F6D20456E747279506F696E7400000000 PUSH0 DUP3 ADD MSTORE POP JUMP JUMPDEST PUSH0 PUSH2 0x53F0 PUSH1 0x1C DUP4 PUSH2 0x4F49 JUMP JUMPDEST SWAP2 POP PUSH2 0x53FB DUP3 PUSH2 0x53BC JUMP JUMPDEST PUSH1 0x20 DUP3 ADD SWAP1 POP SWAP2 SWAP1 POP JUMP JUMPDEST PUSH0 PUSH1 0x20 DUP3 ADD SWAP1 POP DUP2 DUP2 SUB PUSH0 DUP4 ADD MSTORE PUSH2 0x541D DUP2 PUSH2 0x53E4 JUMP JUMPDEST SWAP1 POP SWAP2 SWAP1 POP JUMP JUMPDEST POP JUMP JUMPDEST PUSH0 PUSH2 0x5432 PUSH0 DUP4 PUSH2 0x4C32 JUMP JUMPDEST SWAP2 POP PUSH2 0x543D DUP3 PUSH2 0x5424 JUMP JUMPDEST PUSH0 DUP3 ADD SWAP1 POP SWAP2 SWAP1 POP JUMP JUMPDEST PUSH0 PUSH2 0x5451 DUP3 PUSH2 0x5427 JUMP JUMPDEST SWAP2 POP DUP2 SWAP1 POP SWAP2 SWAP1 POP JUMP JUMPDEST PUSH0 PUSH2 0x5465 DUP3 PUSH2 0x3D49 JUMP JUMPDEST SWAP2 POP PUSH2 0x5470 DUP4 PUSH2 0x3D49 JUMP JUMPDEST SWAP3 POP DUP3 DUP3 SUB SWAP1 POP DUP2 DUP2 GT ISZERO PUSH2 0x5488 JUMPI PUSH2 0x5487 PUSH2 0x4D97 JUMP JUMPDEST JUMPDEST SWAP3 SWAP2 POP POP JUMP JUMPDEST PUSH0 PUSH2 0x5498 DUP3 PUSH2 0x3CC7 JUMP JUMPDEST SWAP1 POP SWAP2 SWAP1 POP JUMP JUMPDEST PUSH2 0x54A8 DUP2 PUSH2 0x548E JUMP JUMPDEST DUP2 EQ PUSH2 0x54B2 JUMPI PUSH0 DUP1 REVERT JUMPDEST POP JUMP JUMPDEST PUSH0 DUP2 MLOAD SWAP1 POP PUSH2 0x54C3 DUP2 PUSH2 0x549F JUMP JUMPDEST SWAP3 SWAP2 POP POP JUMP JUMPDEST PUSH0 DUP1 PUSH0 PUSH1 0x60 DUP5 DUP7 SUB SLT ISZERO PUSH2 0x54E0 JUMPI PUSH2 0x54DF PUSH2 0x3AD8 JUMP JUMPDEST JUMPDEST PUSH0 PUSH2 0x54ED DUP7 DUP3 DUP8 ADD PUSH2 0x4FC1 JUMP JUMPDEST SWAP4 POP POP PUSH1 0x20 PUSH2 0x54FE DUP7 DUP3 DUP8 ADD PUSH2 0x54B5 JUMP JUMPDEST SWAP3 POP POP PUSH1 0x40 PUSH2 0x550F DUP7 DUP3 DUP8 ADD PUSH2 0x4FC1 JUMP JUMPDEST SWAP2 POP POP SWAP3 POP SWAP3 POP SWAP3 JUMP JUMPDEST PUSH0 DUP1 PUSH0 PUSH1 0x60 DUP5 DUP7 SUB SLT ISZERO PUSH2 0x5530 JUMPI PUSH2 0x552F PUSH2 0x3AD8 JUMP JUMPDEST JUMPDEST PUSH0 PUSH2 0x553D DUP7 DUP3 DUP8 ADD PUSH2 0x4FC1 JUMP JUMPDEST SWAP4 POP POP PUSH1 0x20 PUSH2 0x554E DUP7 DUP3 DUP8 ADD PUSH2 0x4E4A JUMP JUMPDEST SWAP3 POP POP PUSH1 0x40 PUSH2 0x555F DUP7 DUP3 DUP8 ADD PUSH2 0x4FC1 JUMP JUMPDEST SWAP2 POP POP SWAP3 POP SWAP3 POP SWAP3 JUMP JUMPDEST PUSH0 PUSH2 0x5574 DUP3 DUP7 PUSH2 0x4C9A JUMP JUMPDEST SWAP2 POP PUSH2 0x5580 DUP3 DUP6 PUSH2 0x4C1B JUMP JUMPDEST PUSH1 0x14 DUP3 ADD SWAP2 POP PUSH2 0x5590 DUP3 DUP5 PUSH2 0x4C9A JUMP JUMPDEST SWAP2 POP DUP2 SWAP1 POP SWAP5 SWAP4 POP POP POP POP JUMP JUMPDEST PUSH0 PUSH2 0x55A8 DUP4 DUP6 PUSH2 0x421E JUMP JUMPDEST SWAP4 POP PUSH2 0x55B5 DUP4 DUP6 DUP5 PUSH2 0x3E38 JUMP JUMPDEST PUSH2 0x55BE DUP4 PUSH2 0x3D80 JUMP JUMPDEST DUP5 ADD SWAP1 POP SWAP4 SWAP3 POP POP POP JUMP JUMPDEST PUSH0 PUSH1 0x40 DUP3 ADD SWAP1 POP PUSH2 0x55DC PUSH0 DUP4 ADD DUP7 PUSH2 0x43AE JUMP JUMPDEST DUP2 DUP2 SUB PUSH1 0x20 DUP4 ADD MSTORE PUSH2 0x55EF DUP2 DUP5 DUP7 PUSH2 0x559D JUMP JUMPDEST SWAP1 POP SWAP5 SWAP4 POP POP POP POP JUMP JUMPDEST PUSH0 PUSH1 0x40 DUP3 ADD SWAP1 POP PUSH2 0x560C PUSH0 DUP4 ADD DUP6 PUSH2 0x406C JUMP JUMPDEST DUP2 DUP2 SUB PUSH1 0x20 DUP4 ADD MSTORE PUSH2 0x561E DUP2 DUP5 PUSH2 0x4256 JUMP JUMPDEST SWAP1 POP SWAP4 SWAP3 POP POP POP JUMP JUMPDEST PUSH0 DUP2 MLOAD SWAP1 POP PUSH2 0x5635 DUP2 PUSH2 0x3F65 JUMP JUMPDEST SWAP3 SWAP2 POP POP JUMP JUMPDEST PUSH0 PUSH1 0x20 DUP3 DUP5 SUB SLT ISZERO PUSH2 0x5650 JUMPI PUSH2 0x564F PUSH2 0x3AD8 JUMP JUMPDEST JUMPDEST PUSH0 PUSH2 0x565D DUP5 DUP3 DUP6 ADD PUSH2 0x5627 JUMP JUMPDEST SWAP2 POP POP SWAP3 SWAP2 POP POP JUMP JUMPDEST PUSH0 PUSH1 0x40 DUP3 ADD SWAP1 POP PUSH2 0x5679 PUSH0 DUP4 ADD DUP6 PUSH2 0x43AE JUMP JUMPDEST PUSH2 0x5686 PUSH1 0x20 DUP4 ADD DUP5 PUSH2 0x43AE JUMP JUMPDEST SWAP4 SWAP3 POP POP POP JUMP JUMPDEST PUSH0 DUP2 SWAP1 POP SWAP3 SWAP2 POP POP JUMP JUMPDEST PUSH32 0x19457468657265756D205369676E6564204D6573736167653A0A333200000000 PUSH0 DUP3 ADD MSTORE POP JUMP JUMPDEST PUSH0 PUSH2 0x56CB PUSH1 0x1C DUP4 PUSH2 0x568D JUMP JUMPDEST SWAP2 POP PUSH2 0x56D6 DUP3 PUSH2 0x5697 JUMP JUMPDEST PUSH1 0x1C DUP3 ADD SWAP1 POP SWAP2 SWAP1 POP JUMP JUMPDEST PUSH0 DUP2 SWAP1 POP SWAP2 SWAP1 POP JUMP JUMPDEST PUSH2 0x56FB PUSH2 0x56F6 DUP3 PUSH2 0x3F5C JUMP JUMPDEST PUSH2 0x56E1 JUMP JUMPDEST DUP3 MSTORE POP POP JUMP JUMPDEST PUSH0 PUSH2 0x570B DUP3 PUSH2 0x56BF JUMP JUMPDEST SWAP2 POP PUSH2 0x5717 DUP3 DUP5 PUSH2 0x56EA JUMP JUMPDEST PUSH1 0x20 DUP3 ADD SWAP2 POP DUP2 SWAP1 POP SWAP3 SWAP2 POP POP JUMP JUMPDEST PUSH0 DUP1 PUSH0 DUP1 PUSH1 0x80 DUP6 DUP8 SUB SLT ISZERO PUSH2 0x573E JUMPI PUSH2 0x573D PUSH2 0x3AD8 JUMP JUMPDEST JUMPDEST PUSH0 PUSH2 0x574B DUP8 DUP3 DUP9 ADD PUSH2 0x5627 JUMP JUMPDEST SWAP5 POP POP PUSH1 0x20 PUSH2 0x575C DUP8 DUP3 DUP9 ADD PUSH2 0x4FC1 JUMP JUMPDEST SWAP4 POP POP PUSH1 0x40 PUSH2 0x576D DUP8 DUP3 DUP9 ADD PUSH2 0x54B5 JUMP JUMPDEST SWAP3 POP POP PUSH1 0x60 PUSH2 0x577E DUP8 DUP3 DUP9 ADD PUSH2 0x4FC1 JUMP JUMPDEST SWAP2 POP POP SWAP3 SWAP6 SWAP2 SWAP5 POP SWAP3 POP JUMP JUMPDEST PUSH2 0x5793 DUP2 PUSH2 0x40D2 JUMP JUMPDEST DUP3 MSTORE POP POP JUMP JUMPDEST PUSH0 PUSH1 0x80 DUP3 ADD SWAP1 POP PUSH2 0x57AC PUSH0 DUP4 ADD DUP8 PUSH2 0x406C JUMP JUMPDEST PUSH2 0x57B9 PUSH1 0x20 DUP4 ADD DUP7 PUSH2 0x578A JUMP JUMPDEST PUSH2 0x57C6 PUSH1 0x40 DUP4 ADD DUP6 PUSH2 0x406C JUMP JUMPDEST PUSH2 0x57D3 PUSH1 0x60 DUP4 ADD DUP5 PUSH2 0x406C JUMP JUMPDEST SWAP6 SWAP5 POP POP POP POP POP JUMP INVALID CALLER EQ PUSH1 0x1D JUMPI RETURNDATASIZE RETURNDATASIZE REVERT JUMPDEST CALLDATASIZE RETURNDATASIZE RETURNDATASIZE CALLDATACOPY RETURNDATASIZE RETURNDATASIZE PUSH1 0x14 CALLDATASIZE SUB PUSH1 0x14 RETURNDATASIZE MLOAD PUSH1 0x60 SHR GAS DELEGATECALL RETURNDATASIZE PUSH1 0x0 DUP1 RETURNDATACOPY DUP1 PUSH1 0x3E JUMPI RETURNDATASIZE PUSH1 0x0 REVERT JUMPDEST RETURNDATASIZE PUSH1 0x0 RETURN LOG2 PUSH5 0x6970667358 0x22 SLT KECCAK256 POP 0x2C 0xC3 PUSH13 0x485E5F9D26E4598DDDF613D2D5 EXTCODECOPY GT 0xA6 0xFB DUP12 SWAP16 PUSH4 0xA712FC76 CALL 0xC1 EXP EXTCODEHASH PUSH5 0x736F6C6343 STOP ADDMOD EQ STOP CALLER "
		},
		"gasEstimates": {
			"creation": {
				"codeDepositCost": "4518400",
				"executionCost": "infinite",
				"totalCost": "infinite"
			},
			"external": {
				"": "infinite",
				"entryPoint()": "infinite",
				"erc6551Registry()": "infinite",
				"execute(address,uint256,bytes,uint8)": "infinite",
				"executeBatch((address,uint256,bytes,uint8)[])": "infinite",
				"executeNested(address,uint256,bytes,uint8,(bytes32,address,uint256)[])": "infinite",
				"extcall(address,uint256,bytes)": "infinite",
				"extcreate(uint256,bytes)": "infinite",
				"extcreate2(uint256,bytes32,bytes)": "infinite",
				"extsload(bytes32)": "infinite",
				"getNonce()": "infinite",
				"isLocked()": "2509",
				"isTrustedForwarder(address)": "infinite",
				"isValidSignature(bytes32,bytes)": "infinite",
				"isValidSigner(address,bytes)": "infinite",
				"lock(uint256)": "infinite",
				"lockedUntil()": "2513",
				"onERC1155BatchReceived(address,address,uint256[],uint256[],bytes)": "infinite",
				"onERC1155Received(address,address,uint256,uint256,bytes)": "infinite",
				"onERC721Received(address,address,uint256,bytes)": "infinite",
				"overrides(address,bytes4)": "infinite",
				"owner()": "infinite",
				"permissions(address,address)": "infinite",
				"setOverrides(bytes4[],address[])": "infinite",
				"setPermissions(address[],bool[])": "infinite",
				"state()": "2499",
				"supportsInterface(bytes4)": "infinite",
				"swapExactInputSingle(address,address,uint256,uint256,uint256)": "infinite",
				"token()": "infinite",
				"trustedForwarder()": "infinite",
				"validateUserOp((address,uint256,bytes,bytes,uint256,uint256,uint256,uint256,uint256,bytes,bytes),bytes32,uint256)": "infinite"
			},
			"internal": {
				"_beforeExecute()": "infinite",
				"_beforeLock()": "infinite",
				"_beforeSetOverrides()": "infinite",
				"_beforeSetPermissions()": "infinite",
				"_isValidExecutor(address)": "infinite",
				"_isValidSignature(bytes32,bytes calldata)": "infinite",
				"_isValidSigner(address,bytes memory)": "infinite",
				"_rootTokenOwner(address,uint256,address,uint256)": "infinite",
				"_rootTokenOwner(uint256,address,uint256)": "infinite",
				"_tokenOwner(uint256,address,uint256)": "infinite",
				"_updateState()": "infinite"
			}
		},
		"methodIdentifiers": {
			"entryPoint()": "b0d691fe",
			"erc6551Registry()": "056d5afe",
			"execute(address,uint256,bytes,uint8)": "51945447",
			"executeBatch((address,uint256,bytes,uint8)[])": "43629a73",
			"executeNested(address,uint256,bytes,uint8,(bytes32,address,uint256)[])": "1fb1ecf0",
			"extcall(address,uint256,bytes)": "b709467c",
			"extcreate(uint256,bytes)": "45a24e3e",
			"extcreate2(uint256,bytes32,bytes)": "34715fb1",
			"extsload(bytes32)": "1e2eaeaf",
			"getNonce()": "d087d288",
			"isLocked()": "a4e2d634",
			"isTrustedForwarder(address)": "572b6c05",
			"isValidSignature(bytes32,bytes)": "1626ba7e",
			"isValidSigner(address,bytes)": "523e3260",
			"lock(uint256)": "dd467064",
			"lockedUntil()": "ce0617ec",
			"onERC1155BatchReceived(address,address,uint256[],uint256[],bytes)": "bc197c81",
			"onERC1155Received(address,address,uint256,uint256,bytes)": "f23a6e61",
			"onERC721Received(address,address,uint256,bytes)": "150b7a02",
			"overrides(address,bytes4)": "ee9c6054",
			"owner()": "8da5cb5b",
			"permissions(address,address)": "1f9838b5",
			"setOverrides(bytes4[],address[])": "7a8f7356",
			"setPermissions(address[],bool[])": "039721b1",
			"state()": "c19d93fb",
			"supportsInterface(bytes4)": "01ffc9a7",
			"swapExactInputSingle(address,address,uint256,uint256,uint256)": "57d39e70",
			"token()": "fc0c546a",
			"trustedForwarder()": "7da0a877",
			"validateUserOp((address,uint256,bytes,bytes,uint256,uint256,uint256,uint256,uint256,bytes,bytes),bytes32,uint256)": "3a871cdd"
		}
	},
	"abi": [
		{
			"inputs": [
				{
					"internalType": "address",
					"name": "entryPoint_",
					"type": "address"
				},
				{
					"internalType": "address",
					"name": "multicallForwarder",
					"type": "address"
				},
				{
					"internalType": "address",
					"name": "erc6551Registry",
					"type": "address"
				},
				{
					"internalType": "address",
					"name": "_guardian",
					"type": "address"
				}
			],
			"stateMutability": "nonpayable",
			"type": "constructor"
		},
		{
			"inputs": [],
			"name": "AccountLocked",
			"type": "error"
		},
		{
			"inputs": [],
			"name": "ContractCreationFailed",
			"type": "error"
		},
		{
			"inputs": [],
			"name": "Create2EmptyBytecode",
			"type": "error"
		},
		{
			"inputs": [],
			"name": "Create2FailedDeployment",
			"type": "error"
		},
		{
			"inputs": [
				{
					"internalType": "uint256",
					"name": "balance",
					"type": "uint256"
				},
				{
					"internalType": "uint256",
					"name": "needed",
					"type": "uint256"
				}
			],
			"name": "Create2InsufficientBalance",
			"type": "error"
		},
		{
			"inputs": [],
			"name": "ECDSAInvalidSignature",
			"type": "error"
		},
		{
			"inputs": [
				{
					"internalType": "uint256",
					"name": "length",
					"type": "uint256"
				}
			],
			"name": "ECDSAInvalidSignatureLength",
			"type": "error"
		},
		{
			"inputs": [
				{
					"internalType": "bytes32",
					"name": "s",
					"type": "bytes32"
				}
			],
			"name": "ECDSAInvalidSignatureS",
			"type": "error"
		},
		{
			"inputs": [],
			"name": "ExceedsMaxLockTime",
			"type": "error"
		},
		{
			"inputs": [],
			"name": "InvalidAccountProof",
			"type": "error"
		},
		{
			"inputs": [],
			"name": "InvalidERC6551Registry",
			"type": "error"
		},
		{
			"inputs": [],
			"name": "InvalidEntryPoint",
			"type": "error"
		},
		{
			"inputs": [],
			"name": "InvalidInput",
			"type": "error"
		},
		{
			"inputs": [],
			"name": "InvalidMulticallForwarder",
			"type": "error"
		},
		{
			"inputs": [],
			"name": "InvalidOperation",
			"type": "error"
		},
		{
			"inputs": [],
			"name": "NotAuthorized",
			"type": "error"
		},
		{
			"inputs": [],
			"name": "OwnershipCycle",
			"type": "error"
		},
		{
			"anonymous": false,
			"inputs": [
				{
					"indexed": false,
					"internalType": "uint256",
					"name": "lockedUntil",
					"type": "uint256"
				}
			],
			"name": "LockUpdated",
			"type": "event"
		},
		{
			"anonymous": false,
			"inputs": [
				{
					"indexed": false,
					"internalType": "address",
					"name": "owner",
					"type": "address"
				},
				{
					"indexed": false,
					"internalType": "bytes4",
					"name": "selector",
					"type": "bytes4"
				},
				{
					"indexed": false,
					"internalType": "address",
					"name": "implementation",
					"type": "address"
				}
			],
			"name": "OverrideUpdated",
			"type": "event"
		},
		{
			"anonymous": false,
			"inputs": [
				{
					"indexed": false,
					"internalType": "address",
					"name": "owner",
					"type": "address"
				},
				{
					"indexed": false,
					"internalType": "address",
					"name": "caller",
					"type": "address"
				},
				{
					"indexed": false,
					"internalType": "bool",
					"name": "hasPermission",
					"type": "bool"
				}
			],
			"name": "PermissionUpdated",
			"type": "event"
		},
		{
			"stateMutability": "payable",
			"type": "fallback"
		},
		{
			"inputs": [],
			"name": "entryPoint",
			"outputs": [
				{
					"internalType": "contract IEntryPoint",
					"name": "",
					"type": "address"
				}
			],
			"stateMutability": "view",
			"type": "function"
		},
		{
			"inputs": [],
			"name": "erc6551Registry",
			"outputs": [
				{
					"internalType": "address",
					"name": "",
					"type": "address"
				}
			],
			"stateMutability": "view",
			"type": "function"
		},
		{
			"inputs": [
				{
					"internalType": "address",
					"name": "to",
					"type": "address"
				},
				{
					"internalType": "uint256",
					"name": "value",
					"type": "uint256"
				},
				{
					"internalType": "bytes",
					"name": "data",
					"type": "bytes"
				},
				{
					"internalType": "uint8",
					"name": "operation",
					"type": "uint8"
				}
			],
			"name": "execute",
			"outputs": [
				{
					"internalType": "bytes",
					"name": "",
					"type": "bytes"
				}
			],
			"stateMutability": "payable",
			"type": "function"
		},
		{
			"inputs": [
				{
					"components": [
						{
							"internalType": "address",
							"name": "to",
							"type": "address"
						},
						{
							"internalType": "uint256",
							"name": "value",
							"type": "uint256"
						},
						{
							"internalType": "bytes",
							"name": "data",
							"type": "bytes"
						},
						{
							"internalType": "uint8",
							"name": "operation",
							"type": "uint8"
						}
					],
					"internalType": "struct BatchExecutor.Operation[]",
					"name": "operations",
					"type": "tuple[]"
				}
			],
			"name": "executeBatch",
			"outputs": [
				{
					"internalType": "bytes[]",
					"name": "",
					"type": "bytes[]"
				}
			],
			"stateMutability": "payable",
			"type": "function"
		},
		{
			"inputs": [
				{
					"internalType": "address",
					"name": "to",
					"type": "address"
				},
				{
					"internalType": "uint256",
					"name": "value",
					"type": "uint256"
				},
				{
					"internalType": "bytes",
					"name": "data",
					"type": "bytes"
				},
				{
					"internalType": "uint8",
					"name": "operation",
					"type": "uint8"
				},
				{
					"components": [
						{
							"internalType": "bytes32",
							"name": "salt",
							"type": "bytes32"
						},
						{
							"internalType": "address",
							"name": "tokenContract",
							"type": "address"
						},
						{
							"internalType": "uint256",
							"name": "tokenId",
							"type": "uint256"
						}
					],
					"internalType": "struct NestedAccountExecutor.ERC6551AccountInfo[]",
					"name": "proof",
					"type": "tuple[]"
				}
			],
			"name": "executeNested",
			"outputs": [
				{
					"internalType": "bytes",
					"name": "",
					"type": "bytes"
				}
			],
			"stateMutability": "payable",
			"type": "function"
		},
		{
			"inputs": [
				{
					"internalType": "address",
					"name": "to",
					"type": "address"
				},
				{
					"internalType": "uint256",
					"name": "value",
					"type": "uint256"
				},
				{
					"internalType": "bytes",
					"name": "data",
					"type": "bytes"
				}
			],
			"name": "extcall",
			"outputs": [
				{
					"internalType": "bytes",
					"name": "result",
					"type": "bytes"
				}
			],
			"stateMutability": "nonpayable",
			"type": "function"
		},
		{
			"inputs": [
				{
					"internalType": "uint256",
					"name": "value",
					"type": "uint256"
				},
				{
					"internalType": "bytes",
					"name": "bytecode",
					"type": "bytes"
				}
			],
			"name": "extcreate",
			"outputs": [
				{
					"internalType": "address",
					"name": "",
					"type": "address"
				}
			],
			"stateMutability": "nonpayable",
			"type": "function"
		},
		{
			"inputs": [
				{
					"internalType": "uint256",
					"name": "value",
					"type": "uint256"
				},
				{
					"internalType": "bytes32",
					"name": "salt",
					"type": "bytes32"
				},
				{
					"internalType": "bytes",
					"name": "bytecode",
					"type": "bytes"
				}
			],
			"name": "extcreate2",
			"outputs": [
				{
					"internalType": "address",
					"name": "",
					"type": "address"
				}
			],
			"stateMutability": "nonpayable",
			"type": "function"
		},
		{
			"inputs": [
				{
					"internalType": "bytes32",
					"name": "slot",
					"type": "bytes32"
				}
			],
			"name": "extsload",
			"outputs": [
				{
					"internalType": "bytes32",
					"name": "value",
					"type": "bytes32"
				}
			],
			"stateMutability": "view",
			"type": "function"
		},
		{
			"inputs": [],
			"name": "getNonce",
			"outputs": [
				{
					"internalType": "uint256",
					"name": "",
					"type": "uint256"
				}
			],
			"stateMutability": "view",
			"type": "function"
		},
		{
			"inputs": [],
			"name": "isLocked",
			"outputs": [
				{
					"internalType": "bool",
					"name": "",
					"type": "bool"
				}
			],
			"stateMutability": "view",
			"type": "function"
		},
		{
			"inputs": [
				{
					"internalType": "address",
					"name": "forwarder",
					"type": "address"
				}
			],
			"name": "isTrustedForwarder",
			"outputs": [
				{
					"internalType": "bool",
					"name": "",
					"type": "bool"
				}
			],
			"stateMutability": "view",
			"type": "function"
		},
		{
			"inputs": [
				{
					"internalType": "bytes32",
					"name": "hash",
					"type": "bytes32"
				},
				{
					"internalType": "bytes",
					"name": "signature",
					"type": "bytes"
				}
			],
			"name": "isValidSignature",
			"outputs": [
				{
					"internalType": "bytes4",
					"name": "magicValue",
					"type": "bytes4"
				}
			],
			"stateMutability": "view",
			"type": "function"
		},
		{
			"inputs": [
				{
					"internalType": "address",
					"name": "signer",
					"type": "address"
				},
				{
					"internalType": "bytes",
					"name": "data",
					"type": "bytes"
				}
			],
			"name": "isValidSigner",
			"outputs": [
				{
					"internalType": "bytes4",
					"name": "magicValue",
					"type": "bytes4"
				}
			],
			"stateMutability": "view",
			"type": "function"
		},
		{
			"inputs": [
				{
					"internalType": "uint256",
					"name": "_lockedUntil",
					"type": "uint256"
				}
			],
			"name": "lock",
			"outputs": [],
			"stateMutability": "nonpayable",
			"type": "function"
		},
		{
			"inputs": [],
			"name": "lockedUntil",
			"outputs": [
				{
					"internalType": "uint256",
					"name": "",
					"type": "uint256"
				}
			],
			"stateMutability": "view",
			"type": "function"
		},
		{
			"inputs": [
				{
					"internalType": "address",
					"name": "",
					"type": "address"
				},
				{
					"internalType": "address",
					"name": "",
					"type": "address"
				},
				{
					"internalType": "uint256[]",
					"name": "",
					"type": "uint256[]"
				},
				{
					"internalType": "uint256[]",
					"name": "",
					"type": "uint256[]"
				},
				{
					"internalType": "bytes",
					"name": "",
					"type": "bytes"
				}
			],
			"name": "onERC1155BatchReceived",
			"outputs": [
				{
					"internalType": "bytes4",
					"name": "",
					"type": "bytes4"
				}
			],
			"stateMutability": "nonpayable",
			"type": "function"
		},
		{
			"inputs": [
				{
					"internalType": "address",
					"name": "",
					"type": "address"
				},
				{
					"internalType": "address",
					"name": "",
					"type": "address"
				},
				{
					"internalType": "uint256",
					"name": "",
					"type": "uint256"
				},
				{
					"internalType": "uint256",
					"name": "",
					"type": "uint256"
				},
				{
					"internalType": "bytes",
					"name": "",
					"type": "bytes"
				}
			],
			"name": "onERC1155Received",
			"outputs": [
				{
					"internalType": "bytes4",
					"name": "",
					"type": "bytes4"
				}
			],
			"stateMutability": "nonpayable",
			"type": "function"
		},
		{
			"inputs": [
				{
					"internalType": "address",
					"name": "",
					"type": "address"
				},
				{
					"internalType": "address",
					"name": "",
					"type": "address"
				},
				{
					"internalType": "uint256",
					"name": "tokenId",
					"type": "uint256"
				},
				{
					"internalType": "bytes",
					"name": "",
					"type": "bytes"
				}
			],
			"name": "onERC721Received",
			"outputs": [
				{
					"internalType": "bytes4",
					"name": "",
					"type": "bytes4"
				}
			],
			"stateMutability": "nonpayable",
			"type": "function"
		},
		{
			"inputs": [
				{
					"internalType": "address",
					"name": "",
					"type": "address"
				},
				{
					"internalType": "bytes4",
					"name": "",
					"type": "bytes4"
				}
			],
			"name": "overrides",
			"outputs": [
				{
					"internalType": "address",
					"name": "",
					"type": "address"
				}
			],
			"stateMutability": "view",
			"type": "function"
		},
		{
			"inputs": [],
			"name": "owner",
			"outputs": [
				{
					"internalType": "address",
					"name": "",
					"type": "address"
				}
			],
			"stateMutability": "view",
			"type": "function"
		},
		{
			"inputs": [
				{
					"internalType": "address",
					"name": "",
					"type": "address"
				},
				{
					"internalType": "address",
					"name": "",
					"type": "address"
				}
			],
			"name": "permissions",
			"outputs": [
				{
					"internalType": "bool",
					"name": "",
					"type": "bool"
				}
			],
			"stateMutability": "view",
			"type": "function"
		},
		{
			"inputs": [
				{
					"internalType": "bytes4[]",
					"name": "selectors",
					"type": "bytes4[]"
				},
				{
					"internalType": "address[]",
					"name": "implementations",
					"type": "address[]"
				}
			],
			"name": "setOverrides",
			"outputs": [],
			"stateMutability": "nonpayable",
			"type": "function"
		},
		{
			"inputs": [
				{
					"internalType": "address[]",
					"name": "callers",
					"type": "address[]"
				},
				{
					"internalType": "bool[]",
					"name": "_permissions",
					"type": "bool[]"
				}
			],
			"name": "setPermissions",
			"outputs": [],
			"stateMutability": "nonpayable",
			"type": "function"
		},
		{
			"inputs": [],
			"name": "state",
			"outputs": [
				{
					"internalType": "uint256",
					"name": "",
					"type": "uint256"
				}
			],
			"stateMutability": "view",
			"type": "function"
		},
		{
			"inputs": [
				{
					"internalType": "bytes4",
					"name": "interfaceId",
					"type": "bytes4"
				}
			],
			"name": "supportsInterface",
			"outputs": [
				{
					"internalType": "bool",
					"name": "",
					"type": "bool"
				}
			],
			"stateMutability": "view",
			"type": "function"
		},
		{
			"inputs": [
				{
					"internalType": "address",
					"name": "tokenIn",
					"type": "address"
				},
				{
					"internalType": "address",
					"name": "tokenOut",
					"type": "address"
				},
				{
					"internalType": "uint256",
					"name": "amountIn",
					"type": "uint256"
				},
				{
					"internalType": "uint256",
					"name": "gasFee",
					"type": "uint256"
				},
				{
					"internalType": "uint256",
					"name": "beepFee",
					"type": "uint256"
				}
			],
			"name": "swapExactInputSingle",
			"outputs": [
				{
					"internalType": "uint256",
					"name": "amountOut",
					"type": "uint256"
				}
			],
			"stateMutability": "nonpayable",
			"type": "function"
		},
		{
			"inputs": [],
			"name": "token",
			"outputs": [
				{
					"internalType": "uint256",
					"name": "chainId",
					"type": "uint256"
				},
				{
					"internalType": "address",
					"name": "tokenContract",
					"type": "address"
				},
				{
					"internalType": "uint256",
					"name": "tokenId",
					"type": "uint256"
				}
			],
			"stateMutability": "view",
			"type": "function"
		},
		{
			"inputs": [],
			"name": "trustedForwarder",
			"outputs": [
				{
					"internalType": "address",
					"name": "",
					"type": "address"
				}
			],
			"stateMutability": "view",
			"type": "function"
		},
		{
			"inputs": [
				{
					"components": [
						{
							"internalType": "address",
							"name": "sender",
							"type": "address"
						},
						{
							"internalType": "uint256",
							"name": "nonce",
							"type": "uint256"
						},
						{
							"internalType": "bytes",
							"name": "initCode",
							"type": "bytes"
						},
						{
							"internalType": "bytes",
							"name": "callData",
							"type": "bytes"
						},
						{
							"internalType": "uint256",
							"name": "callGasLimit",
							"type": "uint256"
						},
						{
							"internalType": "uint256",
							"name": "verificationGasLimit",
							"type": "uint256"
						},
						{
							"internalType": "uint256",
							"name": "preVerificationGas",
							"type": "uint256"
						},
						{
							"internalType": "uint256",
							"name": "maxFeePerGas",
							"type": "uint256"
						},
						{
							"internalType": "uint256",
							"name": "maxPriorityFeePerGas",
							"type": "uint256"
						},
						{
							"internalType": "bytes",
							"name": "paymasterAndData",
							"type": "bytes"
						},
						{
							"internalType": "bytes",
							"name": "signature",
							"type": "bytes"
						}
					],
					"internalType": "struct UserOperation",
					"name": "userOp",
					"type": "tuple"
				},
				{
					"internalType": "bytes32",
					"name": "userOpHash",
					"type": "bytes32"
				},
				{
					"internalType": "uint256",
					"name": "missingAccountFunds",
					"type": "uint256"
				}
			],
			"name": "validateUserOp",
			"outputs": [
				{
					"internalType": "uint256",
					"name": "validationData",
					"type": "uint256"
				}
			],
			"stateMutability": "nonpayable",
			"type": "function"
		},
		{
			"stateMutability": "payable",
			"type": "receive"
		}
	]
}